:020000040800F2
:1000000048110020F912000881020008830200084C
:10001000850200088702000889020008000000002D
:100020000000000000000000000000008B0200083B
:100030008D020008000000008F02000891020008F5
:1000400013130008131300081313000813130008F8
:1000500013130008131300081313000813130008E8
:1000600013130008131300081313000813130008D8
:1000700013130008131300081313000813130008C8
:1000800013130008131300081313000813130008B8
:1000900013130008131300081313000813130008A8
:1000A0001313000813130008131300081313000898
:1000B0001313000813130008630E0008131300083D
:1000C0001313000813130008131300081313000878
:1000D00013130008A11100089B0B00087F0F0008F4
:1000E00013130008131300081313000800F002F89C
:1000F00000F090F80AA090E8000C82448344AAF132
:100100000107DA4501D100F085F8AFF2090EBAE82F
:100110000F0013F0010F18BFFB1A43F0010318473B
:10012000884E0000A84E0000103A24BF78C878C15D
:10013000FAD8520724BF30C830C144BF04680C60ED
:10014000704700000023002400250026103A28BF35
:1001500078C1FBD8520728BF30C148BF0B60704739
:100160006E2903F09385702903F08983662904F0D2
:10017000A986652904F0A686672904F0A38661296B
:10018000AFF3008003681B0A28BF41F08001692992
:1001900003F0FA82642903F0F782752903F0F482F0
:1001A0006F2903F08B86782903F05583E92903F042
:1001B0002586E42903F02286F52903F01F86EF291E
:1001C00003F08886F82903F054830368DB0928BF0D
:1001D00041F08001632903F09485732903F0998528
:1001E000E32904F00F81F32904F014810020704703
:1001F0001FB504F065F904000020002104F04CFE56
:10020000401C60600020002104F030FEE0601FBD53
:1002100010B510BD04F026F91146FFF7E9FF00F014
:1002200012F804F0FFF903B4FFF7F2FF03BC00F08B
:1002300037FF10B500F0BFFA00F0E2FABDE8104059
:1002400000F0A7BB704700F0EBFE00F025FF4FF475
:10025000165001F019F803F0FEF84FF4E13000F009
:1002600013FD002000F0F9FE012002F085FC03F0F0
:1002700098F800F0A0FA00F0C3FA00F08AFBF3E768
:100280007047FEE7FEE7FEE7FEE7704770477047FE
:1002900010B500F0F1FE0D480168491C01600C49E1
:1002A000086800281CBF401E08600A49086800282A
:1002B0001CBF401E08600849086800281CBF401C7D
:1002C0000860BDE8104000F08DBA00001400002066
:1002D00020000020240000201C0000204D4882B097
:1002E000016841F00101016042684B4911404160E1
:1002F000016821F4102121F080710160016821F46E
:1003000080210160416821F4FE0141604FF41F012A
:100310008160002200920192016841F48031016005
:10032000016801F4003101910099491C0091019983
:1003300019B90099B1F5A06FF2D1016811F4003F2D
:1003400008BF019233D00121019134490A6842F07B
:1003500010020A600A6822F003020A600A6842F08A
:1003600002020A604168416041684160416841F4AD
:1003700080614160416821F47C114160416841F431
:10038000E8114160016841F080710160016811F07D
:10039000007FFBD0416821F003014160416841F0DA
:1003A00002014160416801F00C010829FAD11C49A1
:1003B0004FF00060086002B07047164B5868194A49
:1003C000194910F00C0018BF042801D0082801D0EA
:1003D0000A6015E058685A6800F470104FF0020C7B
:1003E00012F4803F0CEB904003D05A6812F4003FA7
:1003F00003D00E4A5043086002E00A4A50430860A6
:1004000058680B4AC0F30310105C0A6822FA00F027
:1004100008607047001002400000FFF80020024012
:1004200008ED00E000127A000000002000093D0005
:100430000400002003004FF0000012BF002900203C
:1004400070470122891E0129D8BF704713F802C0E6
:10045000521C604492B2C0B29142F7DC7047FE4930
:100460000A68091D0968FD4B1B6802704FEA122CCF
:1004700080F801C04FEA124C80F802C0120EC27020
:1004800001710A0A42710A0C8271090EC17103726C
:10049000190A4172190C8172190EC1727047F0B5B8
:1004A000054690F8250089B001281CBF09B0F0BDB1
:1004B0002F8C0024009401940294039404940594D6
:1004C00006943A4629466846079403F004FB9DF8D3
:1004D0000000682842D10DEB070616F8010C992898
:1004E0003CD139466846FFF7A5FF16F8021C884242
:1004F00034D19DF80410DA4A512907D00123532939
:100500000AD0542919D055291FD027E09DF803009F
:1005100002EB0011087021E09DF80500F0B19DF894
:10052000030002EB00108178C1B98370DDF806107A
:10053000DDF80A208160C26010E09DF803109DF88C
:10054000050002EB0111C87008E09DF805000028C5
:100550001CBF9DF8030002EB0010E6D185F8254092
:1005600009B0F0BD0022BE4BFF2805D01A4602EBB1
:100570000012012908D00CE003EB02104170501C5E
:10058000C2B21F2AF8D970475378002B1CBF032B27
:100590007047107051707047002908BF70470123E1
:1005A000AF4901EB00108370116881605168C16030
:1005B0007047AB4A02EB0010C1707047A84B00298E
:1005C00003EB001004BF817070478178002904BFDD
:1005D00001218170116881605168C16070472DE907
:1005E000F0478046A04FC8209E4D0026386095F801
:1005F0002500012808D0012000F02FFD38680028D0
:10060000F5D10120BDE8F087B5F8209029464A468B
:10061000404603F060FA85F8256098F800006828E5
:10062000ECD108EB090111F8010C9928E6D15FEA39
:1006300008004FF0000414BFB9F1000F34460DD08C
:100640000123A9F10202012A08DD10F803C05B1C96
:10065000A4449BB20CF0FF049A42F6DC11F8020CA1
:100660008442CBD10020BDE8F0872DE9F34F89B05B
:100670004FF0000B7A4FCDF800B0CDF804B0CDF8B4
:1006800008B00125DFF8E4810446CDF80CB0CDF8C0
:1006900010B0CDF814B0CDF818B05E46AA4607F5F4
:1006A000AA69CDF81CB020460A9900F0AAFD20796D
:1006B000512804BF4FF4FA60C8F8000004D068461F
:1006C000FFF78DFF28B365E06846FFF788FFD8B9CC
:1006D0009DF804002179884216D19DF8031001226B
:1006E0000020FF2908D007EB01104378002B12BF30
:1006F000032B0170427006E007EB0011401CC0B2F2
:100700004A701F28F8D90025D8F800000028DBD14E
:1007100040E09DF80400217988423BD19DF8030018
:10072000A178884236D10025532805D054281CD002
:10073000552820D0012536E09DF8050000284848BE
:1007400008BF80F832B529D090F83205002804BFE0
:10075000434880F832A54248DDF80610C0F8381545
:10076000DDF80A10C0F83C1518E03D499DF8050079
:1007700081F8430512E09DF8050078B1384880F80B
:1007800052A5DDF80600C9F80800DDF80A00C9F82E
:100790000C0003E015B1012D05D008E0701CC6B2B5
:1007A000032E80D303E0A0780321FFF7DBFE0BB01C
:1007B0002846BDE8F08F2E4A2E481168006821B106
:1007C0002D4B411A994238BF704710B510602B4C21
:1007D00020466178FFF72EFE607161782046BDE803
:1007E000104042E71E4B002003EB00125168002925
:1007F0001CBF491C5160401CC0B21F28F4D970476F
:100800002DE9F05F0025DFF87880154F41F2883937
:100810004FF0040B2E4607EB0514607800286CD0CF
:10082000E178FF2902D0012842D066E0606848459F
:1008300063D388F8025098F80110114B0022002968
:1008400008BF324624D00120A1F1020CBCF1010FF7
:100850001EDD13F800A015E0E8F7FF1FF0F7FF1FFB
:1008600084000020880A00202400002020000020AE
:100870002800002014000020E09304003000002035
:1008800037000020401C524480B2D2B28445E0DCE4
:1008900088F805206C48FFF7E8FE002807BFA0781D
:1008A00000280320E07008BF84F803B0666024E0ED
:1008B00088F8025098F80110634B0022002908BF05
:1008C00032460DD00120A1F1020CBCF1010F07DD71
:1008D00013F800A0401C524480B2D2B28445F7DC29
:1008E00088F805205848FFF7C0FE30B902210020E3
:1008F000FF2D1CBF2570617005D0681CC5B21F2D6F
:1009000089D9BDE8F09F07EB0012401CC0B25170BE
:100910001F28F8D9F1E700204C4A034602EB0011EA
:1009200091F803C0BCF1000F05D0D1F804C0BCF1B0
:10093000000F08BFCB70401CC0B21F28EED9704713
:1009400070B5424A1F2802EB00141AD8A078C0B133
:1009500004F10800082203F073F890B93C48A1683C
:100960003C4DC0F82210E168C0F826109920A87309
:1009700069782846FFF75EFD687369782846FFF7B7
:1009800074FEE078FF2819BF012060600320E0704A
:1009900070BD2DE9F0412E4A2F48002451680068AF
:1009A00000291CBF411AB1F5FA6F38BFBDE8F081CC
:1009B000264E2A4D0027506006EB04104078C8B13F
:1009C000AC706978254B0022002908BF3A460DD04B
:1009D0000120A1F1020CBCF1010F07DD13F800802A
:1009E000401C424480B2D2B28445F7DC6A711B4895
:1009F000FFF73BFE601CC4B21F2CDDD9BDE8F081BF
:100A000017484CE5A0F1300109299CBFC8B27047D6
:100A1000A0F14101052998BF373806D9A0F161013D
:100A2000052992BF573800207047C0B27047092887
:100A300098BF303006D9A0F10A01052992BF37309E
:100A400030207047C0B2704737000020840000207B
:100A50002800002045000020140000203E00002057
:100A6000880A002038B50121142000F0DDFE0121A4
:100A70003C4800F069FD4FF40040ADF800003A4DED
:100A800048248DF803406946284600F0C0FC202128
:100A9000ADF800108DF803406946344800F0B7FC0B
:100AA0000121ADF8001028218DF803106946284671
:100AB00000F0ADFC38BD2DE9F04101252C4C2B4F49
:100AC000294E00280ABF20782570002810D0202148
:100AD000384600F004FD90B14FF40041304600F07C
:100AE000FEFC60B10121304600F0F9FC012806D07F
:100AF0002021384600F0F3FC012830D121E00A2003
:100B000000F0ABFA002020702021384600F0E7FC0E
:100B1000002804BF0120BDE8F0814FF400413046B9
:100B200000F0DDFC002804BF0220BDE8F0810121B7
:100B3000304600F0D4FC012804BF0320BDE8F0815A
:100B40000DE04FF40041304600F0C9FC012806D109
:100B50000121304600F0C3FC002808BF25700020AA
:100B6000BDE8F081000230000008014000100140A3
:100B700054000020010010B5CD484FF0000108D00E
:100B8000044601F087FE2046BDE81040012101F037
:100B900068BCBDE8104001F064BC70B5C54C40F2C3
:100BA0002551204601F00CF8002808BF70BD2046F2
:100BB00000F0A5FFC04DC4B22888B0F5806F28BFF3
:100BC00040F4004012D2BA4E0021304601F062FEDD
:100BD000298839B90021304601F05CFE01213046F8
:100BE00001F03FFCB54928880C54401C288070BD9A
:100BF00030B50D46044685B00121042000F01DFEED
:100C0000ADF804400020ADF80050A94CADF8060046
:100C1000ADF802006946204601F04FF90122114665
:100C2000204601F032FC1E208DF80C0001208DF8CA
:100C30000D0002218DF80E108DF80F0003A800F0B2
:100C4000F0FF05B030BD70B50C46064601218CB0F2
:100C50001546084600F0DFFD304601F093FE002106
:100C60001020CDE902018020CDE904104001CDE93A
:100C7000081006910A91079169463046CDE9004572
:100C800001F0E7FE0CB070BD2DE9F043044691B0D1
:100C90000121042000F0C8FD0121480400F0CDFD31
:100CA000844F384600F010FE0425ADF82C50032682
:100CB0008DF82E601820DFF808828DF82F000BA920
:100CC000404600F0A4FB0820ADF82C008DF82F5012
:100CD0000BA9404600F09BFB0C940024ADF8384073
:100CE0000C20ADF83440ADF83A00ADF83640ADF820
:100CF0003C400CA9384600F031FE012280213846E4
:100D000000F0C7FE0121DFF8BC9107F104086E4D29
:100D1000084600F080FD484601F034FE1020CDE981
:100D200002048020CDE9044040010694CDE908404A
:100D30000A94CDE9008507946946484601F089FE8A
:100D40000121384600F084FE012240F22551384648
:100D500000F087FE26208DF8400002278DF84170B4
:100D60008DF842604FF001088DF8438010A800F024
:100D700058FF632641F61F450121042000F05DFD68
:100D8000ADF800504A4DADF80460ADF80640ADF83E
:100D900002406946284601F090F801221146284693
:100DA00001F073FB1E208DF80C008DF80D808DF87E
:100DB0000E708DF80F8003A800F033FF3E4800212D
:100DC0000480284601F04DFB11B0BDE8F08370B5FA
:100DD0000C460546002101F072FE2146284601F02E
:100DE00080FE2846BDE87040012101F068BE0FB4C6
:100DF000354870B505AA049902F042FC3348D0F892
:100E000084100029FBD12F4D2F4802F045FE84B2FB
:100E10000021284601F053FE2146284601F061FEDC
:100E20000121284601F04BFE70BC5DF814FB70B543
:100E30000C460A460146244802F04DFE2348D0F8ED
:100E400084100029FBD11F4D284601F038FE2146B1
:100E5000284601F046FE2846BDE87040012101F019
:100E60002EBE10B5124C0121204601F03FFD002896
:100E700008BF10BD0121204601F043FD0E49204668
:100E80000A8842F400420A80BDE81040002101F0C7
:100E9000E8BA10B504460021054801F0FBFC0C49F6
:100EA000088800220A800A8842EA0400088010BDEF
:100EB0000008004000440040560000208806002042
:100EC000000801408000024088020020000002402B
:100ED0002C080040F0B5044687B00121092000F03D
:100EE000A3FC0121880400F0A8FC4A4E304600F023
:100EF000EBFC3015ADF8000003258DF802501820EA
:100F0000454F8DF803006946384600F080FAF0142A
:100F1000ADF8000004208DF803006946384600F063
:100F200076FA0220ADF8000010208DF803008DF84D
:100F300002506946394800F06AFA27208DF804000B
:100F400000208DF8050001208DF806008DF80700BF
:100F500001A800F066FE02A800F057FD02A9304685
:100F6000029400F0FBFC012240F22551304600F0D3
:100F700078FD0121304600F06BFD07B0F0BD70B583
:100F8000244D4021284600F018FE40F22551284605
:100F900000F016FE002808BF70BD284600F0AFFD27
:100FA000C4B2012000F059F82146284600F0A3FD04
:100FB0008021284600F0FAFD0028F9D0BDE87040F5
:100FC000022000F04AB810B5124C0146204600F04D
:100FD00092FD8021204600F0E9FD0028F9D010BDE7
:100FE0002DE9F0410D46064600240A4F0AE0384636
:100FF00000F081FD8021384600F0D8FD0028F9D0AE
:10100000601C84B2315D002918BFAC42EFD3BDE84B
:10101000F08100000048004000080140000C014041
:101020001A484FF47A710068B0FBF1F0B0F1807F9C
:1010300012D220F07F40411E4FF0E0204161144A5F
:10104000F02182F8141D00218161072101610169ED
:1010500021F0010101617047FEE701B40D480099DC
:1010600001604FF0E0210A6942F001020A61016863
:101070000029FCD101B0704706480168002908BF6B
:1010800070470168491E01607047000000000020A1
:101090000FE000E0580000204FF4A06000F0BABD5F
:1010A00070478D490A8812F0400FFBD08B4AC1B2BD
:1010B0001180704790F82420082A28BF7047DFE885
:1010C00002F015040A0F11111113CA1F0C2A0DD8B2
:1010D000018400F0DDB8824A1278914202D005E026
:1010E0001F2903D800F0D4B8992901D000F0E8B83E
:1010F000428C81540021418480F82410012180F821
:1011000025107047F0B5054687B0012144F2040070
:1011100000F08AFB704E304600F0D6FB7015ADF83B
:10112000100003248DF8124018206E4F8DF8130024
:1011300004A9384600F06BF93015ADF81000042012
:101140008DF8130004A9384600F061F925208DF8C8
:1011500014008DF815408DF8164001208DF8170009
:1011600005A800F05EFD0020ADF80400ADF8060013
:10117000ADF80800ADF80C000C20ADF80A000095A1
:101180006946304600F0EAFB012240F22551304624
:1011900000F067FC0121304600F05AFC07B0F0BDBA
:1011A00010B55148514900680A68821A642A03D36D
:1011B0004F4B002283F824200860474C40F2255111
:1011C000204600F0FDFC002808BF10BD204600F0BE
:1011D00096FCC1B24648FFF76DFF2046BDE81040BF
:1011E00040F2255100F00DBD10B53B4C01462046A4
:1011F00000F081FC8021204600F0D8FC0028F9D0C6
:1012000010BD70B5054638480E463A490068A1FB46
:10121000002189084A4202EB820108444FF47A41D6
:1012200048434FF49661B0FBF1F0FFF716FF701ED4
:1012300084B22CBF284E70BD15F8011B304600F05B
:101240005AFC8021304600F0B1FC0028F9D0611E24
:101250008CB2F1D270BD2DE9F0410D460646002456
:101260001D4F0AE0384600F046FC8021384600F069
:101270009DFC0028F9D0601C84B2315D002918BFA4
:10128000AC42EFD3BDE8F081154AF021117039E787
:10129000428C815490F82210491C01F01F024284B4
:1012A00090F82410052918BF491C02D080F824109A
:1012B0007047911C028C914208BF0621F6D07047FE
:1012C000002268291EBF428480F82420704780F8DD
:1012D00025204284DCE7000000380140043801404A
:1012E0005C000020000801401400002018000020CD
:1012F000880A0020CDCCCCCC09488047094800475B
:10130000FEE7FEE7FEE7FEE7FEE7FEE7FEE7FEE7B5
:10131000FEE7FEE704480549054A064B7047000012
:10132000DD020008ED000008480B002048110020F5
:10133000480D0020480D002010B5A0F18041B1F506
:1013400084311DD0B1F5806124D0B1F580612BD0FE
:10135000B1F5806132D0B1F5806139D0B1F58061ED
:1013600040D0B1F5806118BF10BD0121080200F026
:101370006DFABDE8104000214FF4807000F066BAAD
:101380000121042000F062FA0021BDE81040042091
:1013900000F05CBA0121082000F058FA0021BDE8F5
:1013A0001040082000F052BA0121102000F04EFA3F
:1013B0000021BDE81040102000F048BA0121202093
:1013C00000F044FA0021BDE81040202000F03EBAB1
:1013D0000121402000F03AFA0021BDE810404020F1
:1013E00000F034BA0121802000F030FA0021BDE87D
:1013F0001040802000F02ABA10B50121084600F004
:1014000025FA0021BDE81040012000F01FBA2DE9A7
:10141000F00191F803C000220CF00F031CF0100F34
:101420001CBF91F802C04CEA030391F800C04FF0D2
:101430000F071CF0FF0F4FF0010618BF04681CD007
:101440000D8806FA02FC05EA0C05654511D19500E8
:1014500007FA05F824EA080403FA05F52C43CD78C9
:10146000282D08BFC0F814C003D0482D08BFC0F80D
:1014700010C0521C082AE3D304600A88FF2A87BFE1
:1014800044680022BDE8F001704702F1080C0D88A5
:1014900006FA0CFC05EA0C05654511D1950007FA22
:1014A00005F824EA080403FA05F52C43CD78282D25
:1014B00008BFC0F814C0CD78482D08BFC0F810C0D0
:1014C000521C082AE1D34460BDE8F00170474FF692
:1014D000FF710180022181700421C17070470246B2
:1014E000002092680A4218BF01207047806880B2CD
:1014F000704702460020D2680A4218BF0120704798
:10150000C06880B270470161704741617047002A2E
:1015100014BF016141617047C160704741F480327E
:101520008261816182618169806970472E4B1A688E
:101530004FF6807C02EA0C0242EA00100843186071
:1015400070472A49C861704770B4DFF89CC010F03A
:10155000004F14BFDCF81C20DCF80420C0F3034467
:101560004FF4401333EA00054FEA50534FEA031398
:1015700086B206FA03F316D010F4801F08BF9A4310
:1015800003D0032505FA04F4A24342F07062002957
:1015900018BF1A4310F0004F14BFCCF81C20CCF831
:1015A000042070BC7047DCF8044022F0706224F024
:1015B0007064CCF80440EAE78A0721F0030101F1E6
:1015C000804101F58031120F0F23D1F808C09340FC
:1015D0002CEA03038B608B68904018438860704747
:1015E0000249C1F8DC0070470000014000002042C1
:1015F000AC48016841F0010101604168AA4A11400C
:101600004160016821F4102121F0807101600168BE
:1016100021F480210160416821F4FE0141604FF412
:101620001F01816070479F490A6822F480320A6076
:101630000A6822F480220A60B0F5803F04BF08687F
:1016400040F4803006D0B0F5802F06BF086840F423
:10165000A02070470860704700224109914B012982
:1016600008BF196803D002290CBF196A596A00F033
:101670001F00012303FA00F0084218BF01221046A0
:10168000704708B50020874A00900020116811F4C7
:10169000003F18BF01200099491C0091B1F5A06FCF
:1016A00001D00028F1D03120FFF7D6FF002818BF65
:1016B000012008BD7B4A116821F0F80141EAC00011
:1016C00010607047794908607047764B5A68084344
:1016D00022F47C12104358607047744908667047C2
:1016E000704A516821F003010843506070476D480B
:1016F000406800F00C0070476A4A516821F0F00120
:10170000084350607047674A516821F4E06108431C
:1017100050607047634A516821F4605141EAC0004B
:10172000506070475F4A0029517A14BF084321EA8C
:101730000000507270475D49C1F8D8007047594A9F
:10174000516821F4404108435060704755490022D8
:1017500081F8202081F82020012803D004280CBF24
:101760000520704781F82000704751490860704794
:101770004C490A6A1043086270474E490860704736
:10178000484A10B451684C4B11F00C0118BF0429A1
:1017900001D0082901D0036015E05168536801F4B5
:1017A00070114FF0020C13F4803F0CEB914103D009
:1017B000536813F4003F03D0404B5943016002E0EB
:1017C0003D4B5943016051680F23DFF8F4C003EA31
:1017D00011111CF80110036823FA01F141605368EC
:1017E000072404EA13231CF8033021FA03F383606F
:1017F000536804EAD3231CF80330D940C16052680F
:10180000032303EA9232ACF104039A5CB1FBF2F1D8
:10181000016110BC7047234A0029516914BF084375
:1018200021EA0000506170471E4A0029916914BFE7
:10183000084321EA0000906170471A4A0029D169E3
:1018400014BF084321EA0000D0617047154A0029FF
:10185000D16814BF084321EA0000D0607047114AE4
:101860000029116914BF084321EA00001061704784
:101870001449086070470D49C86470470949C87128
:1018800070470848416A41F0807141627047054ADB
:101890000146002092680A4218BF012070470149A2
:1018A00088727047001002400000FFF800004242BA
:1018B000800442423C04424200127A0000093D008A
:1018C000680000204004424210B5A0F18041B1F50B
:1018D0009C3117D011F574411FD0B1F5806127D02C
:1018E000B1F580612FD0B1F5806118BF10BD012125
:1018F0000805FFF7B4FFBDE8104000214FF4801049
:10190000FFF7ADBF01218803FFF7A0FFBDE810403E
:1019100000214FF48040FFF799BF01214804FFF7F1
:101920009EFFBDE8104000214FF40030FFF797BF45
:1019300001218804FFF793FFBDE8104000214FF418
:101940008020FFF78CBF0121C804FFF788FFBDE8A6
:10195000104000214FF40020FFF781BF30B504464E
:10196000008A85B00D464CF6FF710840E9880843AF
:101970002082A0894EF6F3110840A9882A891143D4
:101980006A8910430843A081A08A4FF6FF410840AE
:10199000A9890843A0826846FFF7F2FEA4F18040BF
:1019A000B0F59C300CBF03980298A18911F4004F48
:1019B00000EBC00101EB0010296814BF4900890049
:1019C000B0FBF1F0924A6FF0180CA2FB003149090C
:1019D00009010B0903FB0CF300EB8300A38913F44B
:1019E000004F4FF0320314BF03EBC00003EB0010B5
:1019F000A2FB00204FEA501014BF00F0070000F0D7
:101A00000F000843208105B030BD4FF4165101602E
:101A100000218180C18001810C2242818181704737
:101A2000028A4FF2FF031A400B88B1F802C043EA62
:101A30000C03B1F804C0C9884CEA010119431143F1
:101A4000018270470021018041808180C180704700
:101A50000029818914BF41F4005121F40051818192
:101A60007047C1F3421301F01F014FF0010C0CFA53
:101A700001F1012B08BF0C3003D0022B0CBF10303A
:101A80001430002A026814BF114322EA01010160E8
:101A90007047002A828A14BF114322EA0101818221
:101AA0007047028A22F00F020282028A11430182E9
:101AB0007047828922F40062828182891143818188
:101AC00070470029818914BF41F0020121F0020111
:101AD00081817047028A22F020020282028A114329
:101AE000018270470029018A14BF41F4804121F42A
:101AF000804101827047C1F308018180704780886E
:101B0000C0F308007047818941F00101818170476D
:101B1000028BD2B20283028B42EA01210183704719
:101B2000028B02F47F420283028B114301837047D0
:101B30000029818A14BF41F0200121F02001818217
:101B400070470029818A14BF41F0100121F0100173
:101B5000818270470029818A14BF41F0080121F079
:101B60000801818270470029818914BF41F4004136
:101B7000C1F30E01818170470029818A14BF41F4AD
:101B8000006121F4006181827047828A22F00402A0
:101B90008282828A1143818270470029818A14BF20
:101BA00041F0020121F002018182704702460020CB
:101BB00012880A4218BF01207047C943018070474C
:101BC00010B401F01F020124C1F3421304FA02F21F
:101BD0004FF0000C012B04BF83891A4004D0022B64
:101BE0000CBF038A838A1A40090A008804FA01F1AB
:101BF0000840002A1CBF00284FF0010C604610BCB2
:101C00007047090A012202FA01F1C94301807047B5
:101C10001F85EB512D4940F0FD7040F08060086059
:101C2000704710B4C27801784FF00F0C01242AB32A
:101C3000264A126801F1E02102F4E062C2F5E06296
:101C4000120AC2F104032CFA02F290F801C00CFA55
:101C500003F390F802C00CEA02021A43120181F861
:101C60000024007800F01F0104FA01F1400980000F
:101C700000F1E020C0F8001110BC704701F01F0017
:101C800004FA00F04909890001F1E021C1F880015E
:101C900010BC704721F07F0121F0604108430C49DE
:101CA000086070470B4A0029116814BF084321EAF5
:101CB0000000106070474FF0E021042808690CBF55
:101CC00040F0040020F00400086170470CED00E0D3
:101CD00008ED00E010ED00E010B5A0F18041B1F595
:101CE00096313BD0B0F1804F4DD011F5943140D0BA
:101CF000B1F5806151D0B1F5806158D0B1F5806106
:101D00005FD0B1F5806166D0B1F590316DD0B1F59D
:101D1000C05175D0B1F580617DD0B1F580617DD0C5
:101D200011F59E317BD0B1F5806179D0B1F580613C
:101D300077D0B1F5903175D0B1F5806173D0B1F540
:101D4000806118BF10BD01218804FFF77FFDBDE849
:101D5000104000214FF48020FFF778BD0121C80218
:101D6000FFF774FDBDE8104000214FF40060FFF75D
:101D70006DBD01210220FFF772FD0021BDE810407A
:101D80000220FFF76CBD01210846FFF768FD002126
:101D9000BDE810400120FFF762BD01210420FFF7DC
:101DA0005EFD0021BDE810400420FFF758BD012171
:101DB0000820FFF754FD0021BDE810400820FFF780
:101DC0004EBD01211020FFF74AFD0021BDE8104063
:101DD0001020FFF744BD01212020FFF740FD002126
:101DE000BDE810402020FFF73ABD01214803FFF76E
:101DF0002DFDBDE8104000214FF40050FFF726BD37
:101E00000121C804FFF722FDBDE8104000214FF476
:101E10000020FFF71BBD0121080505E00DE017E0DC
:101E200020E029E033E03DE0FFF710FDBDE8104081
:101E300000214FF48010FFF709BD01214805FFF78D
:101E400005FDBDE8104000214FF40010FFF7FEBC77
:101E500001214020FFF703FD0021BDE81040402094
:101E6000FFF7FDBC01218020FFF7F9FC0021BDE850
:101E700010408020FFF7F3BC01210802FFF7EFFCC0
:101E8000BDE8104000214FF48070FFF7E8BC01214D
:101E90000804FFF7DBFCBDE8104000214FF4803060
:101EA000FFF7D4BC01214804FFF7D0FCBDE8104087
:101EB00000214FF40030FFF7C9BC10B40288DFF8EE
:101EC000F0C3FC4B604518BF984211D0B0F1804F71
:101ED0001CBFA0F18044B4F5806409D0A0F1804417
:101EE000B4F500641CBFA0F18044B4F5406403D194
:101EF0004C8822F070022243A0F18044B4F5805453
:101F00001CBFA0F18044B4F5A05403D0CC8822F4C7
:101F10004072224302808A8882850A880285604551
:101F200018BF98420DD0A0F18042B2F5A0321FBF79
:101F3000A0F18042B2F5A232A0F18042B2F5A43203
:101F400001D1097A01860121818210BC704710B449
:101F5000028C22F001020284028C8388B0F818C03F
:101F60000C882CF0730C44EA0C0C0C8922F0020251
:101F700022434C882243A0F18044B4F596341CBF20
:101F8000A0F18044B4F59A340DD0A0F18044B4F5AA
:101F9000A0341FBFA0F18044B4F5A234A0F1804466
:101FA000B4F5A4340DD14C8922F0080222438C8868
:101FB00022F0040222438C8923F440732343CC890A
:101FC00023438380A0F818C0C9888186028410BC8E
:101FD000704730B4028C22F010020284028C838895
:101FE000B0F818C00D882CF4E6444FF6FF7C0CEADC
:101FF00005252C430D8922F020020CEA05152A4301
:102000004D880CEA05152A43A0F18045B5F59635B3
:102010001CBFA0F18045B5F59A3516D14D8922F047
:1020200080020CEA05152A438D8822F040020CEA52
:1020300005152A438D8923F440630CEA85052B435B
:10204000CD890CEA850C4CEA030383800483C9889C
:102050000187028430BC704730B4028C22F4807255
:102060000284028C8388B0F81CC00C882CF0730C9E
:1020700044EA0C040D894FF6FF7C22F400720CEA4E
:1020800005252A434D880CEA05252A43A0F1804501
:10209000B5F596351CBFA0F18045B5F59A3516D13A
:1020A0004D8922F400620CEA05252A438D8822F42A
:1020B00080620CEA05252A438D8923F440530CEAFB
:1020C00005152B43CD890CEA051C4CEA03038380DC
:1020D0008483C9888187028430BC704730B4028C05
:1020E00022F480520284038C8288B0F81CC00D88D0
:1020F0004FF6FF742CF4E64C04EA052545EA0C0C77
:102100000D8923F4005304EA05352B434D8804EA76
:1021100005352B43A0F18045B5F596351CBFA0F1E0
:102120008045B5F59A3505D18D8922F4804204EABF
:10213000851422438280A0F81CC0C988A0F84010F2
:10214000038430BC7047828B22F440628283828B8E
:102150004FF6FF7303EA0121114381837047828B9D
:1021600022F00C028283828B114381837047028BA1
:1021700022F440620283028B4FF6FF7303EA0121CF
:1021800011430183704770B4B0F820C02CF0100CDC
:10219000A0F820C0058BB0F820C04FF6FF7625F4DC
:1021A000734506EA03332B4306EA02221A43A0F1E1
:1021B000804306EA0114B3F596331CBFA0F18043B7
:1021C000B3F59A3314D0B0F1804F1CBFA0F1804317
:1021D000B3F580630CD0A0F18043B3F500631FBF5B
:1021E000A0F18043B3F540632CF0A003194302D162
:1021F0002CF02001214341F010010283018470BCC6
:102200007047028B22F00C020283028B1143018380
:1022100070472DE9F05F0D4604460888244FDFF82B
:102220009480DFF89490DFF894A0DFF894E0498878
:10223000AA882B89002845D04FF6FF7604284DD078
:102240000828208C58D020F480502084B4F81CB08A
:10225000208C2BF4734B06EA022242EA0B0206EAB8
:1022600003331A4306EA013CBC4218BF44450BD075
:10227000B4F1804F18BF4C4506D054451EBF74457D
:1022800020F40240084303D120F4005040EA0C003F
:1022900040F48050A2832084A879A18B21F440616E
:1022A000A183A18B06EA00200843A083BDE8F09F2C
:1022B000002C0140003401400004004000080040B0
:1022C000000C0040204600F01FFBE888218B21F025
:1022D0000C012183218B08432083E7E72046FFF789
:1022E00052FFA879218B21F440612183218B06EADA
:1022F000002008432083D9E720F480702084B4F8BC
:102300001CC0208C06EA03131A432CF0F30C06EAD7
:10231000012B42EA0C02BC4218BF44450BD0B4F179
:10232000804F18BF4C4506D054451EBF744520F45D
:102330002060084303D120F4007040EA0B0040F411
:102340008070A2832084E888A18B21F00C01A183F6
:10235000A18B0843A083A9E72DE9F0410C464988E9
:10236000012605464FF00008002908BF4FF002087B
:10237000A288012A08BF02262088238900284FF658
:10238000FF7728461BD0FFF7FEFEA079298B21F4AA
:1023900040612983298B07EA002008432883238989
:1023A00032464146284600F0AFFAE088298B21F0FA
:1023B0000C012983298B08432883BDE8F08100F0B4
:1023C000A3FAE088298B21F00C012983298B08438B
:1023D00028832389324641462846FFF7D4FEA07958
:1023E000298B21F440612983298B07EA00200843C7
:1023F0002883BDE8F0810A884B88B1F806C01A43EB
:102400008B8843EA0C031A430B891A434B89898949
:102410001A431143A0F8441070474FF6FF718180B2
:1024200000210180C180418001727047002101803C
:1024300041808180C180018141818181C18170475A
:1024400000210180418001228280C180018170478A
:102450000021018041808180C18001814181818191
:1024600070470029018814BF41F0010121F00101EA
:10247000018070470029B0F8441014BF41F40041B6
:10248000C1F30E01A0F844107047002A828914BFDE
:10249000114322EA01018181704781827047114313
:1024A000A0F848107047002A828914BF114322EA1D
:1024B000010181817047018921F007010181704785
:1024C000028922F07002114301817047028922F0D3
:1024D000700211430181018941F0070101817047B8
:1024E00070B594460D46602904464FF001026146DE
:1024F0000BD000F009FA208920F0700028432081D9
:10250000208940F00700208170BDFFF73CFEF2E714
:1025100010B4B0F808C04FF6FF7404EA03231A435E
:102520000CF0FF0C114341EA0C01018110BC704713
:1025300010B4B0F808C04FF6FF7404EA03231A433E
:102540000CF0FF0C114341EA0C010181018941F0BB
:102550007701018110BC704710B4B0F808C04FF685
:10256000FF7404EA03231A430CF0FF0C114341EA01
:102570000C010181018941F48041018110BC704747
:10258000018582827047028822F070021143018027
:10259000704730B40589B0F818C0048C25F00705E1
:1025A00029432CF0030C2CF4407C40F201154CEA3A
:1025B000050C4FF6FF7505EA031324F022041A43B5
:1025C00022430181A0F818C0028430BC7047028BFE
:1025D00022F07002114301837047028B4FF6FF73A4
:1025E00022F4E04203EA0121114301837047828B08
:1025F00022F07002114381837047828B4FF6FF7384
:1026000022F4E04203EA012111438183704700294B
:10261000018814BF41F0800121F0800101807047E2
:102620000029818814BF41F0040121F00401818058
:1026300070470029818814BF41F0080121F008018A
:10264000818070470029818814BF41F0010121F089
:10265000010181807047028B22F00802114301833F
:102660007047028B4FF6FF7322F4006203EA0121E8
:10267000114301837047828B22F00802114381834A
:102680007047828B4FF6FF7322F4006203EA012148
:10269000114381837047028B22F0040211430183AE
:1026A0007047028B4FF6FF7322F4806203EA012128
:1026B000114301837047828B22F00402114381830E
:1026C0007047828B4FF6FF7322F4806203EA012188
:1026D000114381837047028B22F0800211430183F2
:1026E0007047028B4FF6FF73C2F30E0203EA01211B
:1026F000114301837047828B22F080021143818352
:102700007047828B4FF6FF73C2F30E0203EA01217A
:10271000114381837047028C22F00202114301842D
:102720007047028C22F00802114301847047028C2A
:102730004FF6FF7322F0200203EA011111430184D6
:102740007047028C4FF6FF7322F0800203EA0111FA
:10275000114301847047028C4FF6FF7322F400721C
:1027600003EA0121114301847047028C4FF6FF7385
:1027700022F4006203EA0121114301847047028CB4
:102780004FF6FF7322F4005203EA01311143018432
:1027900070470123B0F820C08B402CEA0303038468
:1027A000038C02FA01F11943018470470423B0F845
:1027B00020C08B402CEA03030384038C02FA01F14E
:1027C00019430184704710B44FF0010C048C00F1E0
:1027D00018030CFA01FC24EA0C0CA0F820C0002914
:1027E00018BF082910D0081FC0F34E001844016814
:1027F00021F4E041016001684FF6FF7303EA022211
:102800001143016010BC704703EB5100016821F0D7
:102810007001016001681143016010BC704700291C
:10282000018814BF41F0020121F0020101807047CC
:102830000029018814BF41F0040121F00401018046
:1028400070470029818814BF41F0800121F0800188
:1028500081807047028822F00802028002881143BA
:1028600001807047828822F0700282808288114342
:1028700081807047028922F0070202810289114398
:1028800001817047028922F080020281028911438E
:1028900001817047818470478185704781867047C8
:1028A0000187704781877047A0F840107047028801
:1028B00022F4407202800288114301807047808EAA
:1028C0007047008F7047808F7047B0F840007047A6
:1028D000808C7047008D704702460020128A0A42A1
:1028E00018BF01207047C94301827047038A002244
:1028F00080890B4200EA01001CBF0028012210461B
:102900007047C9430182704730B4B0F820C02CF042
:10291000010CA0F820C0048BB0F820C04FF6FF7562
:1029200005EA03131A4324F0F3042243A0F1804381
:10293000B3F596331CBFA0F18043B3F59A331AD098
:10294000B0F1804F1CBFA0F18043B3F5806312D07B
:10295000A0F18043B3F500631CBFA0F18043B3F541
:10296000406308D02CF00A03194341F001010283AF
:10297000018430BC70472CF00203194341F001017F
:10298000F5E7000002684FF6FE711140016000217A
:10299000016041608160C160684A6949904204BF3A
:1029A000486840F00F0022D0664A904204BF486851
:1029B00040F0F0001BD0644A904204BF486840F4E5
:1029C000706014D0614A904204BF486840F470407F
:1029D0000DD05F4A904204BF486840F4702006D092
:1029E0005C4A904204BF486840F4700001D14860DE
:1029F0007047594A904204D1486840F0706048607E
:102A00007047564A111F904204BF086840F00F00FB
:102A100014D0534A904204BF086840F0F0000DD033
:102A2000504A904204BF086840F4706006D04E4A95
:102A3000904204BF086840F4704001D108607047BC
:102A40004A4A904218BF7047086840F470200860F6
:102A5000704710B40268D1F820C08B686FF30E1273
:102A600043EA0C03D1E904C44CEA040C43EA0C0326
:102A7000D1F818C043EA0C03D1F81CC043EA0C0398
:102A8000D1F824C043EA0C03D1F828C043EA0C0370
:102A90001A430260CA6842600A6882604968C1607D
:102AA00010BC70470021016041608160C16001611C
:102AB00041618161C16101624162816270470029A7
:102AC000016812BF41F001014FF6FE721140016032
:102AD0007047002A026814BF114322EA0101016015
:102AE000704741607047406880B27047002210F024
:102AF000805F14BF1E4912490968014218BF0122B4
:102B00001046704710F0805F19BF1A4908600C49E1
:102B100048607047002210F0805F14BF14490849D4
:102B20000968014218BF01221046704710F0805F0B
:102B300019BF104908600249486070470800024008
:102B4000000002401C0002403000024044000240ED
:102B5000580002406C00024080000240080402401D
:102B60001C04024030040240440402405804024065
:102B70000004024004040240F94A118811F4004F95
:102B800008BF7047C1F30E014FF0000C0028F54B51
:102B900003F801C018BFA2F800C0F34819880180EB
:102BA000704770B5EE4C01460025208810F4004FA8
:102BB0000ED0EC4BC0F30E0000221A54184600F061
:102BC0002DFF05462088C0F30E01E648FEF743FBC3
:102BD000284670BD2DE9F05F0025E14F14460E46F2
:102BE0000246A8463D80FF2898BFE04806D8D0F8A6
:102BF00084100029FBD1DE48028003E00146DDA0FD
:102C0000FEF7F5F8DFF874A3A4F580604C3806D120
:102C10000B208AF8000042F20F70FEF73AF9002EFE
:102C200018BF002C35D0601E0404240C18BFDFF838
:102C300034B32DD09AF8010028B10020FDF73BFFF6
:102C4000054603281DD00A20FEF707FA388810F43D
:102C5000004F19D0C0F30E0031460BF80080C14878
:102C600000F0DCFE81463888C0F30E01BD48FEF757
:102C7000F2FAB9F1000F08BFA7F8008004D03CB108
:102C800007E00220BDE8F09F601E0404240CD1D1AF
:102C900001252846BDE8F09F2DE9F04705004FF0DB
:102CA000010918BF002932D0481E0404240C2CD07E
:102CB000DFF8B0A2AA4E00270020FDF7FCFE032893
:102CC0001CD00A20FEF7C9F9308810F4004F18D044
:102CD000C0F30E0029460AF80070A24800F09EFEDC
:102CE00080463088C0F30E019E48FEF7B4FAB8F172
:102CF000000F08BF378004D03CB108E00220BDE8D7
:102D0000F087601E0404240CD6D14FF00009484619
:102D1000BDE8F0872DE9F74FB4B08246934600270F
:102D2000642101A800F01CFF64211AA800F018FF1C
:102D30000025A8462C462E465B4691A101A8359A4F
:102D400000F0BCFC8648A94693A1A0F80090CDF8FD
:102D500000B0DFF840B201A8359B5BF82A2000F0F4
:102D6000ADFC4FF4FA7293A101A8FFF733FF0028DE
:102D70000EBFDFF8ECB137B0BDE8F08F002211468E
:102D80001B20FFF727FF8C48A0FB051000094042DD
:102D900000EB800015EB80001CD03FE0012CEDD152
:102DA0004FF4FA7285A186A0FFF714FF0028E5D141
:102DB0001AA970A0FEF71BF83220FEF74EF94FF467
:102DC0007A7282A11A20FFF705FF4FF4FA70FEF71E
:102DD00044F9D8E708F1010000F0FF08022C01D007
:102DE000082E13D94FF4FA727AA17DA0FFF7F2FEF4
:102DF0004FF4FA727EA180A0FFF7ECFE4FF4FA7256
:102E00006CA101A8FFF7E6FE002426466148434670
:102E10007CA150F82A201AA800F050FCF4B97F4891
:102E2000A0FB051080096FF01801484315EBC000A6
:102E30002DD14FF4FA725FA179A0FFF7CBFE7CA1F0
:102E4000484800F0EBFD002818BF02247AA145484D
:102E500000F0E4FD002818BF012401D1012C16D197
:102E6000B5F5167F13D30025C82254A154A0FFF74F
:102E7000B1FE2A460028114618BF1B2044D0FFF798
:102E8000A9FE701CC6B231466EA000F00BFC0A20F1
:102E9000FEF7E3F8BBF8000010F4004F28D0C0F3B1
:102EA0000E01304800F8019001466BA000F0FAFBDB
:102EB00036B146A12B4800F0B1FD002818BF00260E
:102EC00066A1284800F0AAFD009078B165A100F045
:102ED000A5FD339064A1009800F0A0FD80F800905B
:102EE000339862A1421C1AA800F0E8FBABF80090EE
:102EF000681C85B2781CC7B20A2F7FF64FAF002737
:102F00005FA0FDF774FF49E70020FFF763FE28206C
:102F1000FEF7A3F8002211461A20B0E72DE9F84F7A
:102F200059A00FF27C1B00904FF0000A012464228C
:102F300028A12BA0FFF74EFE64222DA12EA0FFF7A3
:102F400049FE4FF47A721BA157A0FFF743FE0028F9
:102F50001CBF0120BDE8F88F4FF47A7215A1ABE0D9
:102F60005600002088060020AE0A00200000024023
:102F70000444004025730D0A000000007800002082
:102F80004950B5D8D6B73A257320B6CBBFDA3A2523
:102F9000730000007C00002041542B4349505354DF
:102FA0004152543D222573222C222573222C2225A6
:102FB000732200004F4B0000CDCCCCCC3E00000073
:102FC00041542B43495053454E44000053454E4411
:102FD000204F4B00434C4F5345204F4B0000000007
:102FE00041542B434950434C4F53453D3100000061
:102FF00053485554204F4B0041542B43495053489C
:103000005554000041544B2D53494D383030432026
:103010002573B2E2CAD42025642020001F85EB511D
:1030200041542B4349505354415455530000000020
:10303000434C4F5345440000434F4E4E45435420AC
:103040004F4B00006862656174657272636E743A1A
:1030500025640D0A00000000257300002B49504430
:10306000000000002C0000003A000000CAD5B5BDE9
:103070002573D7D6BDDA2CC4DAC8DDC8E7CFC200C5
:1030800041540D0A000000003230386C3877313876
:1030900033382E35316D7970632E636E0000000079
:1030A000343834333800000041542B4347434C41FB
:1030B00053533D2242220000F7A0FFF78BFD00286A
:1030C0001CBF0220BDE8F88F4FF4FA72AFF21C115A
:1030D000F8A0FFF77FFD00281CBF0320BDE8F88F94
:1030E0004FF4FA72AFF23411F5A0FFF773FD002828
:1030F0001CBF0420BDE8F88F4FF4FA72AFF24C11F8
:10310000F5A0FFF767FD00281CBF0520BDE8F88F7C
:10311000F54EF64FDFF8D883DFF8D893002514B3C7
:10312000F4490020E4FB091000096FF01201484344
:10313000E04218D05A4650460099FFF7EBFD601C5C
:10314000C4B2142C08BF00240A20FDF786FF308883
:1031500010F4004FE3D0C0F30E003D5435803888A2
:10316000A8F80000DBE70020BDE8F88F70B58EB04E
:103170000024009401940294DB4D0394049405947C
:1031800006940794089409940A940B940C942C8048
:10319000C822AFF2E011D8A0FFF71CFDD34E50B902
:1031A000D7A1B01C00F03AFC0470B21CD5A168464F
:1031B00000F084FA2C80C822AFF20821D4A0FFF7D7
:1031C00009FD50B9CEA1B01C00F028FC0470B21C5F
:1031D000D1A1684600F072FA2C80C822AFF22C21EF
:1031E000D0A0FFF7F7FC50B9C5A1B01C00F016FC49
:1031F0000470B21CCDA1684600F060FA2C80C82291
:10320000CDA1CFA0FFF7E6FC00281CBF0EB070BD1B
:10321000AFF2B011B54800F001FC0646A4A1801C35
:1032200000F0FCFB0470B21CC7A1684600F046FA2F
:103230002C800EB070BDF0B500248DB0AA4F009464
:1032400001940294039404940594069407940894BA
:1032500009940A940B940C9425463C80C822AFF242
:10326000AC21BCA0FFF7B6FC002818BF01253C80AC
:10327000C822AFF2C021BAA0FFF7ACFC002818BFEB
:1032800045F0020520D0C822B8A1BAA0FFF7A2FCE1
:10329000002818BF45F0040528D0C822B7A1B9A05E
:1032A000FFF798FC002818BF45F008052FD0C8226A
:1032B000B6A1B8A0FFF78EFC002818BF45F0100596
:1032C0003AD00DB02846F0BD79A1884800F0A6FBA1
:1032D000060009D076A1701C00F0A0FB0470721CDF
:1032E000AFA1684600F0EAF93C80CCE7A0A17F4896
:1032F00000F094FB0646AFF2942100F08FFB0470BF
:10330000B21CAAA1684600F0D9F93C80C5E7AFF22B
:10331000AC21764800F082FB0646AFF2B821401C93
:1033200000F07CFB04704471431C721CA2A168462F
:1033300000F0C4F93C80BAE75DA16C4800F06EFB78
:1033400006468BA1401C00F069FBC470721C9FA153
:10335000684600F0B3F93C80B3E710B5C8229EA1DF
:103360009EA0FFF737FCC8229BA1A4A0FFF732FC68
:10337000C8220021A8A0FFF72DFC0520FDF76DFE57
:10338000C82295A1A8A0FFF725FCC82292A1AAA057
:10339000FFF720FCBDE810404FF41672ADA1B0A0BD
:1033A00018E400252C463220FDF757FE64228AA13E
:1033B000ADA0FFF70FFC50B14FF49660FDF74DFE46
:1033C000642285A1A8A0FFF705FC0028F4D1C8223B
:1033D00081A1A6A0FFF7FEFB1E212820FFF7C6FE55
:1033E000FFF7BBFF404EDFF80481DFF804910027B0
:1033F0000A20FDF732FE308810F4004F08D0C0F3E9
:103400000E0008F800703780B8F80000A9F8000036
:103410001CB1FFF783FD002506E0002D18BF002C2E
:1034200002D0681CC5B2E3E7E1212820FFF703FFC3
:1034300000280CBF01240024F3E710B58D4C0120B7
:10344000C4F8AC014FF47A7004F5D674FDF705FEAC
:103450000020206010BD38B501210820FEF7E4F9F6
:103460004FF40060ADF8000010208DF80300032039
:103470008DF8020069468048FDF7C9FF7D4C0120A8
:10348000C4F8AC014FF47A7004F5D674FDF7E5FD8D
:103490000020206038BD000041542B434744434F77
:1034A0004E543D312C224950222C22434D4E45543E
:1034B0002200000041542B43474154543D31000049
:1034C00041542B434950435347503D312C22434DE7
:1034D0004E4554220000000041542B4349504845BA
:1034E00041443D31000000005600002088060020C5
:1034F000AE0A0020E53594D741542B43474D49008F
:103500000D0A0000D6C6D4ECC9CC3A2573000000E1
:1035100041542B43474D4D00C4A3BFE9D0CDBAC59C
:103520003A25730041542B4347534E00D0F2C1D08B
:10353000BAC53A25730000002B434E554D000000DC
:1035400041542B434E554D00B1BEBBFABAC5C2EB38
:103550003A25730041542B4350494E3F0000000070
:1035600041542B434F50533F000000002B43535115
:103570003A00000041542B43535100002B43424377
:103580003A00000041542B43424300002B43434C7C
:103590004B3A000041542B43434C4B3F000000008A
:1035A000D4CBD3AAC9CC3A2573000000D0C5BAC584
:1035B000D6CAC1BF3A257300B5E7B3D8B5E7C1BFD6
:1035C0003A25732525202025736D5600C8D5C6DA07
:1035D000CAB1BCE43A2573004F4B000041542B5351
:1035E000415042523D332C312C22436F6E7479701E
:1035F00065222C22475052532200000041542B5385
:10360000415042523D332C312C2241504E222C222B
:10361000434D4E455422000041542B5341504252D9
:103620003D312C310000000041542B434E54504397
:1036300049443D310000000041542B434E54503D5D
:10364000223230322E3132302E322E313031222C95
:10365000333200002B434E54503A2031000000001A
:1036600041542B434E5450004154000041544530C6
:103670000000000000802142000C01407047000063
:103680001CB50C46064B7B4469460090204600F072
:1036900016FB04460020694600F024FB20461CBDB2
:1036A0005B0600000FB4044910B503AA029800F0AD
:1036B00035FB10BC5DF814FB600000200FB41CB596
:1036C000084B06AA7B4469460090059800F0F7FA7B
:1036D00004460020694600F005FB20461CBC5DF84E
:1036E00014FB00001D06000070B5044685690068E3
:1036F000C10601D5302600E02026C00707D070BDE6
:10370000D4E9012130469047206A401C20626D1E9A
:10371000F6D570BD70B5044685690078C00707D13D
:1037200070BDD4E9012120209047206A401C20620E
:103730006D1EF6D570BD70B50C460546012A05D044
:103740002878800600D5EA69002302E0012305E01D
:103750005B1C934202D2E05C0028F9D1A869E6180C
:10376000C01AA861286A184428622846FFF7BCFFDF
:1037700004E0D5E9012114F8010B9047B442F8D3D5
:103780002846FFF7C7FF70BD2DE9F041064600242B
:1037900010687529314616A510D000F00CFA0028E3
:1037A00002DA404213A507E031688A0701D512A565
:1037B00002E0490704D511A5012401E000F004FA54
:1037C00000210A2206F1240709E0B0FBF2FCB0FB5D
:1037D000F2F302FB1C00303078541846491C0028D4
:1037E000F3D123462A463046BDE8F04100F0F5B952
:1037F000000000002D0000002B0000002000000051
:10380000F0B40D460188090502D5214C7C4402E044
:103810001F4C7C440E34002100F1240608E002F025
:103820000F071209E75D42EA03721B097754491C2E
:1038300052EA0307F3D102780023120704D5702D52
:1038400006D009B1022311342246F0BC00F0C5B9FC
:1038500001231034F8E770B504460D462146106880
:1038600000F0B2F9024629462046BDE87040002328
:10387000C6E7D21D22F00703D3E90023C0E703689F
:10388000126843F0200303600823C3610023B7E7F5
:10389000B81600002DE9F05F894604464FF0000A93
:1038A000DFF874B1FB44C0F820A02046E1688847E7
:1038B000002874D0252806D0D4E901219047206A39
:1038C000401C2062F1E700265F462046E1688847F9
:1038D0002028054607DB312D05D2781910F8200C79
:1038E00008B10643F1E7B00701D526F00406C4F895
:1038F0001CA00027C4F818A02A2D09D0284601F0E2
:10390000AEFA38B304EB8708303DC8F8185019E018
:1039100059F8041B204604EB87029161E16888474F
:10392000012F054618D1E069002820DA26F020068C
:103930001DE0D8F8180000EB800005EB400030389F
:10394000C8F818002046E1688847054601F087FA64
:103950000028EED1012F0AD02E2D08D12046E16893
:1039600088477F1C0546022F46F02006C4DBA0696D
:10397000002803DA404246F00106A061F00701D0BA
:1039800026F010066C2D0BD0682D09D04C2D39D0A7
:103990006A2D35D0742D35D07A2D33D016E038E02D
:1039A000E1682F4620468847B842054609D16C2F6A
:1039B00026D04FF48060E1680643204688470546DC
:1039C00004E06C2F1AD04FF4807006430DB3A5F1BC
:1039D0004100192802D8203546F400664A46294697
:1039E000204626604E46FCF7BBFB80B101280BD079
:1039F000F61D26F0070000F1080956E74020E4E72D
:103A00008020D8E70020D6E706F104094DE72846D4
:103A100052E7206ABDE8F09F4816000030B5054621
:103A20000B462A4613F8014B12F8010B08B1A042CD
:103A3000F8D01CB1002802D06D1CF1E7284630BD3B
:103A400040EA010310B59B070FD1042A0DD310C81B
:103A500008C9121F9C42F8D020BA19BA884201D96D
:103A6000012010BD4FF0FF3010BD1AB1D30703D0B5
:103A7000521C07E0002010BD10F8013B11F8014B6B
:103A80001B1B07D110F8013B11F8014B1B1B01D187
:103A9000921EF1D1184610BD10B5431C02E010F87B
:103AA000011B71B18107FAD14FF0013202C88C1AA3
:103AB0008C4314EAC211F9D0C01A0A0603D0C01E02
:103AC00010BDC01A10BD0A0401D0801E10BD09022D
:103AD000FCD0401E10BD032A40F2308010F0030CD1
:103AE00000F0158011F8013BBCF1020F624498BF51
:103AF00011F801CB00F8013B38BF11F8013BA2F1EE
:103B0000040298BF00F801CB38BF00F8013B11F068
:103B1000030300F0E981083AC0F0088051F8043B43
:103B2000083A51F804CBA0E80810F5E7121D5CBF75
:103B300051F8043B40F8043BAFF30080D20724BFA8
:103B400011F8013B11F801CB48BF11F8012B24BF3C
:103B500000F8013B00F801CB48BF00F8012B70478B
:103B60004FF0000200B5134694469646203922BF16
:103B7000A0E80C50A0E80C50B1F12001BFF4F7AF61
:103B8000090728BFA0E80C5048BF0CC05DF804EB43
:103B9000890028BF40F8042B08BF704748BF20F8B1
:103BA000022B11F0804F18BF00F8012B70477047AF
:103BB00070477047704709684A0501D540B27047A1
:103BC000C905FCD500B2704709684A0501D5C0B2E5
:103BD0007047C905FCD580B270472DE9F0470D4606
:103BE00099469246044600F124080168880604D5E7
:103BF000E06921F01001216000E00120A84201DD10
:103C0000471B00E00027A1697A1902EB0900081A96
:103C1000A0612078C00602D42046FFF765FD00268B
:103C200008E0D4E901211AF806009047206A401CF8
:103C3000761C20624E45F4DB2078C0060AD520466B
:103C4000FFF752FD06E0D4E9012130209047206AB9
:103C5000401C2062381EA7F10107F4DC07E0D4E91C
:103C6000012118F805009047206A401C2062281E98
:103C7000A5F10105F3DC2046FFF74CFD2078000696
:103C800002D50220BDE8F0870120FBE71168026839
:103C9000006A530501D508700AE0D30501D50880F4
:103CA00006E0130603D5C217C1E9000200E0086070
:103CB0000120704701694A1C02610878704700B50D
:103CC0008FB0CDE901310021059105497944CDE955
:103CD000031011466846FFF7DDFD0FB000BD000080
:103CE000E5FFFFFF0A6802F8010B0A60704710B594
:103CF000436913B1AFF3008001E0FFF71CFD012021
:103D000010BD127800F124010A7000224A700122CD
:103D1000EDE711684FF0FF32E9E70000074B70B59F
:103D20000D467B44FFF7CBFF0446284600F076FBA8
:103D300010B14FF0FF3070BD204670BD7DD3FFFF46
:103D40002DE9FF5F15468A460446DFF8AC80F8444B
:103D50000027D8E900103E46CDE9001010E03AF8FF
:103D600016106A4602A800F05DFB411C07D02178BE
:103D7000890603D5E269391891420DD80744761CAB
:103D80002078800602D5E069B84205DDAE42E6DB68
:103D90003AF816000028E2D1A069C01BA0612046B5
:103DA000FFF7A2FCD8E90010CDE90010002017E0D1
:103DB0003AF818106A4602A800F034FBB0F1FF3F51
:103DC00081460BD000250DF1080B05E0D4E9012157
:103DD0001BF8050090476D1C4D45F7D308F1010015
:103DE000B0428046E4DB206A384420622046FFF778
:103DF00091FCBDE8FF9F0000B21100002DE9F041E9
:103E00008046D21D22F007020025D2E90002F529E2
:103E100015A614D0011E72F1000106DA0023D0EBC2
:103E2000030063EB020211A608E0D8F800108B072C
:103E300001D50FA602E0490701D50EA601251146BE
:103E4000002408F1240704E000F080F830323A55ED
:103E5000641C50EA0102F7D12B4632462146404607
:103E6000BDE8F041FFF7B9BE000000002D000000E2
:103E70002B0000002000000030B4002100F12404D9
:103E800008E002F00705D208303542EA4372DB0849
:103E90006554491C52EA0305F3D10468002310A2BB
:103EA000250708D504F020040C4304D0C46901237D
:103EB0000CA2641EC46130BCFFF78FBE10B504466F
:103EC00021461068FFF780FE02462046BDE81040FC
:103ED0000023D1E7D21D22F00701D1E90023CBE76F
:103EE000000000003000000010B5203AC0F00B8048
:103EF000B1E81850203AA0E81850B1E81850A0E8EE
:103F00001850BFF4F5AF5FEA027C24BFB1E8185047
:103F1000A0E8185044BF18C918C0BDE810405FEAB7
:103F2000827C24BF51F8043B40F8043B08BF704733
:103F3000D20728BF31F8023B48BF11F8012B28BF38
:103F400020F8023B48BF00F8012B704730B5B0F1B4
:103F50000A024FEA900E71F100034EEA817EB0EB47
:103F60000E0061EB91014FEA101E4EEA017E10EB4C
:103F70000E0041EB11114FEA102E4EEA016E10EBCC
:103F80000E0041EB11214FEA104E4EEA014E10EBAC
:103F90000E0041EB1141401841F100014FEAD00001
:103FA00040EA41704FEAD10110EB80054FEA8104ED
:103FB00044EA907444EB01046D1944EB0404521B71
:103FC000A3414FF0000348BF0A3200D530BD401C6A
:103FD00041F1000130BD70472DE9FF4F0C461E46F0
:103FE0004FF0FF378BB0D2E90001DDF860800A9016
:103FF0008A46C1F30A5505B93D46002108464FF0EF
:104000000000BAF1000F00F4400005DA00EB800078
:104010004FF4400101EA50004FEA9059B9F1010F05
:1040200000DDB9460A9850EA4A000ED044F6105016
:10403000A5F2FF3545432F14B8F1000F1ED075428D
:10404000291E1EDDC9F100021CE0B8F1010F4FF07E
:10405000000001D0302103E0F24305E02154401C70
:10406000B042FBDB30460022002121540B99C1F8FD
:104070000880C1E900200FB0BDE8F08FBD1B6D1CAA
:10408000DEE74A4600DA694206A800F05DFA06ABB0
:1040900093E8070003AB83E8070050460A9900F055
:1040A0000FFB8DE80700A0F500501F380090039823
:1040B000002D09DD42F21F014A46084403A903907E
:1040C000684600F06EFD08E0A0F500504A461F3833
:1040D00003A90390684600F078FD8DE8070000040E
:1040E000000C03D04FF0FF30410800E01046B8F15B
:1040F000000F03D00022009215461EE0751E05D465
:10410000FFF724FF303262556D1EF9D5B346012208
:10411000084302D000227F1C04E02078302801D11F
:1041200000227F1E002A099786D01DE0112D07DA94
:10413000FFF70CFF303262556D1C50EA0102F5D1D9
:10414000084302D00098C8B10EE00021681E05E0C7
:10415000235C625C63542254401E491C8142F7DB9D
:10416000AB46A81B401E0990002004F80B000B98DA
:10417000099AC0F80880C0E9002B7CE711264FF0AF
:10418000000859E72DE9F04F88460446D21D22F079
:10419000070191B0D1E90001CDE90A0100F04BFE21
:1041A00002460B98C00F01D02D2007E02068810740
:1041B00001D52B2002E0202101EAC000032A09904A
:1041C00001D0072A05DB03464146204600F07CF972
:1041D0000BE12078800601D5E06900E00620B8F107
:1041E000650F814606D0B8F1660F18D0B8F1670F99
:1041F00070D131E00020B9F1110F009001DB1123E3
:1042000001E009F101030AAA01A90CA8FFF7E4FEE5
:10421000DDE90C70002609F10105834647E0012025
:104220004B4600904FF000470AAA01A90CA8FFF7DF
:10423000D3FEDDE90DB00C995D46002610B909F1F9
:1042400001000D18B9EB050003D4C0F1FF3609F1E8
:104250000105A5EB09002BE0B9F1010F01DA4FF0E0
:1042600001090020B9F1110F0090484601DD11232A
:1042700000E003460AAA01A90CA8FFF7ADFEDDE99C
:104280000C704D4600268346207800070AD4AB45C3
:1042900000DA5D4601A8012D04DD411911F8011C69
:1042A000302907D04F4502DA17F1040F04DA012054
:1042B00082460FE06D1EEEE7002F02DCED1B3E4450
:1042C00003E0781CA84200DD7D1CB81B00F1010A48
:1042D0004FF000472078000703D4AA4501DB4FF0D8
:1042E000FF3A0021B7F1004F0DF143088DF843105C
:1042F00024D002202B23002F01DA7F422D230A2114
:10430000021EA0F1010000DC5FB197FBF1FC97FBFE
:10431000F1F201FB1C7C17460CF1300C08F801CDC2
:10432000EEE7A8F1010003702188090501D54521B8
:1043300000E06521A0F1010800F8011C09980FA90F
:10434000A1EB0807FF1D00B10120411901EBEA7044
:10435000A1693844081A401EA0612078C00602D422
:104360002046FFF7C1F9099828B1D4E90121904707
:10437000206A401C20622078C00622D52046FFF724
:10438000B3F91EE0002E04DBB34502DD01A8805D19
:1043900000E03020D4E901219047206A401C2062CF
:1043A000761CAAF101005FEA000A0AD100F088F841
:1043B000C0680168405CD4E901219047206A401C34
:1043C0002062281EA5F10105DCDC07E0D4E901210B
:1043D00018F8010B9047206A401C2062381EA7F194
:1043E0000107F3DC2046FFF795F9032011B043E6FF
:1043F00010B5436913B1AFF3008001E0FFF7A0FCF3
:10440000012010BD128800F1240182840022C284A0
:104410000122EDE711684FF0FF32E9E7007B00F081
:104420008000704770B516460C46054600F040F80F
:10443000036893F80101012806D0FF2C0FD8185DFE
:1044400068B101202C7070BDD3F8070132462146B7
:1044500003F2071303442846BDE8704018474FF0A5
:10446000FF3070BD754600F0E7F8AE4605006946BE
:10447000534620F00700854618B020B5FCF74AFFE8
:10448000BDE820404FF000064FF000074FF0000855
:104490004FF0000B21F00701AC46ACE8C009ACE8D6
:1044A000C009ACE8C009ACE8C0098D4670470000FF
:1044B00010B500F005F8001D10BD00BFDD090000BB
:1044C00000487047040B00202DE9F0411F460446C8
:1044D00003260168072A01F4006004DB08B116A571
:1044E00005E016A503E008B115A500E015A521F02B
:1044F00010002060A069C01EA0610FB1401EA06125
:104500002046FFF7F1F84FB1D4E901213846904732
:10451000206A401C2062C01C206206E0206AFAE784
:10452000D4E9012115F8010B9047761EF8D22046F8
:10453000FFF7F0F8BDE8F0814E414E006E616E006D
:10454000494E4600696E66002DE9F04781461646E1
:104550008AB0334878440DC88DE80D00304878445F
:10456000801C03AC0DC884E80D0041F69B30084464
:10457000372190FBF1F290FBF1F5A5F1800501FBED
:1045800012041B3C02D56442012000E00020DFF849
:1045900090A080460027FA44AAF1BE0A0DE0E00789
:1045A00009D03246684607EB47010AEB810100F06B
:1045B0000CFB8DE8070064107F1C002CEFD1184F16
:1045C0007F44AC3F18E0E80714D007EB04100DF16E
:1045D000180A90E80E008AE80E00C068F04201D187
:1045E00098190890324606A903A800F0EEFA03AB2A
:1045F00083E807006D10641C002DE4D13246694643
:10460000B8F1000F03A802D000F0CBFA01E000F0EF
:10461000DCFAC9E90001C9F808200AB0BDE8F08752
:10462000300A000010B50446AFF300802046BDE814
:104630001040FBF7F8BD000000487047E40A002076
:104640004FF0013C50F8042B51F8043B9A4221D121
:10465000A2EB0C03934313EACC1317D150F8042BAD
:1046600051F8043B9A4215D1A2EB0C03934313EA91
:10467000CC130BD150F8042B51F8043B9A4209D1CA
:10468000A2EB0C03934313EACC13DBD04FF00000F2
:10469000704700BFD01A01BAB1FA81F101F01801D8
:1046A00022FA01F0CB40C1F12001DBB2C0B2C01A46
:1046B0002CFA01F3D11A914311EAC311E6D17047E4
:1046C0005FEA400C08BF91F0000F4FEA8C234FEADD
:1046D000C12243EA51514FEA1C5018BF00F5F04087
:1046E0004FEA300018BF41F000415FEA6C5C00F017
:1046F0002980BCF1FF3F08BF40F080407047130C99
:1047000006BF12044FF0100C4FF0000C130E04BF44
:1047100012020CF1080C130F04BF12010CF1040C6F
:10472000930F04BF92000CF1020CD30F04BF520090
:104730000CF1010C11464FF00002A0F11F00A0EB9C
:104740000C00704711F0004F08BF704731F0004176
:104750003FF4D5AF0B0C06BF09044FF0100C4FF01F
:10476000000C0B0E04BF09020CF1080C0B0F04BF68
:1047700009010CF1040C8B0F04BF89000CF1020C31
:10478000CB0F04BF49000CF1010CCCF12003A0EBCE
:104790000C0022FA03F302FA0CF241EA030100F1E1
:1047A0000100704720F07F4C80EA030023F07F4730
:1047B000ACEB070303F57C5300F0004003F1FF036B
:1047C0002DE980494FEA154B09B44FEA144325EA15
:1047D0000B4E24EA03480FF2042606EB1327490880
:1047E0003E785FEA320203FB0667C7F5000707FB66
:1047F00006F64FEA54374FEAD64606F1020607FBA3
:10480000066CCCF1005C4FEA1C472CEA074C07FB16
:1048100006F40CFB06F504EB15464FEA961634BF7A
:1048200000204FF000404FEAD13706FB07FC4FEA6B
:104830001C4C0CFB0BF7D21B03FB0CF761EB0701C5
:104840000CFB0EF7B0EB074072EB17420CFB08F7BE
:1048500034BFA2EB0742B2EB074261EB17414FEACC
:104860000C444FEA910706FB07FC4FEA1C4C0CFB7B
:104870000BF7B0EBC74072EB573203FB0CF734BFBA
:10488000A2EBC742B2EBC74261EB57310CFB0EF70C
:10489000B0EBC70072EB57720CFB08F734BFA2EB0A
:1048A000C702B2EBC70261EB5771039F4FEA816108
:1048B00041EA921104EBCC044FEAD1374FEA82620D
:1048C00006FB07FC42EA90124FEA80604FEA1C4C5C
:1048D0000CFB0BF7D21B03FB0CF761EB07010CFB86
:1048E0000EF7B0EB074072EB17420CFB08F734BF32
:1048F000A2EB0742B2EB074261EB17414FEA8C553E
:104900004FEA910704EB9C2406FB07FC4FEA1C4C82
:104910000CFB0BF7B0EBC74072EB573203FB0CF705
:1049200034BFA2EBC742B2EBC74261EB57310CFB7D
:104930000EF7B0EBC70072EB57720CFB08F734BFF1
:10494000A2EBC702B2EBC70261EB577115EB4C2526
:104950004FEA816141EA92114FEA82624FEAD13710
:1049600042EA901206FB07FC44F100044FEA806023
:104970004FEA1C4C0CFB0BF7D21B03FB0CF761EB53
:1049800007010CFB0EF7B0EB074072EB17420CFB74
:1049900008F734BFA2EB0742B2EB074261EB1741C5
:1049A00015EB1C154FEA813141EA92414FEA823200
:1049B00042EA90424FEA80304FEA0C7644F100041C
:1049C00048EA03434EEA0B484FF0000EB2EB080CE6
:1049D00071EB030724BF624639464EEB0E0E4FF0D3
:1049E000000B0018524149414BEB0B0BB2EB080C8A
:1049F00071EB03077BF1000B24BF624639464EEB97
:104A00000E0E4FF0000B0018524149414BEB0B0BBF
:104A1000B2EB080C71EB03077BF1000B24BF62467D
:104A200039464EEB0E0E51EA020718BF46F001065A
:104A300016EB0E7655F1000254F1000103D5BDE8E6
:104A40008901BDE80088BDE88901BDE80048B619C4
:104A5000524141EB0101A3F10103704780807F7E49
:104A60007D7C7B7A797877767675747372717170E4
:104A70006F6E6E6D6C6C6B6A6A6968686766666596
:104A80006464636362616160605F5F5E5E5D5D5C24
:104A90005C5B5B5A5A595958585757565655555595
:104AA0005454535352525251515050504F4F4F4EF5
:104AB0004E4D4D4D4C4C4C4B4B4B4A4A4A49494943
:104AC0004848484747474746464645454544444485
:104AD000444343434342424242414141002B26D496
:104AE000770021D01CB54FEA370703B44FF0100010
:104AF0004FF010014FF000000FBCBDE810400BF16B
:104B0000010BBBF1010F08BF5FEA170722BF12F1CB
:104B1000010211F101014FF0004143F1000300F0E7
:104B2000004043EA00007047F9D35708DAE746EA45
:104B3000064613F1400F4FEA16461FDD13F1200F12
:104B4000DFBF16430A46002120335B42C8D0C3F1C1
:104B5000200746EA064602FA07F74FEA164646EAF3
:104B60000706C3F1200722FA03F201FA07F721FA38
:104B700003F14FF0000342EA0702B1E746EA0206FA
:104B800046EA06464FEA164646EA0106BCBF46EA32
:104B90000646360C4FF000034FF000024FF00001C4
:104BA0009EE72DE9C048934630B491E8380007C825
:104BB00031EA400C48BF34EA430C03D5FFF7F2FD5D
:104BC000FFF78CFFF0BCBDE800882DE9C048934694
:104BD00030B491E8380007C810F0804F08BF13F0D8
:104BE000804F03D100F005F8FFF778FFF0BCBDE877
:104BF000008820F07F4780EA030023F07F4C07EB1A
:104C00000C03A3F57C5300F00040A3F1FE0392F0E7
:104C1000000F00F0B38095F0000F00F077802DE9D1
:104C200001494FEA11404FEA144621EA004800FBCF
:104C300006FC24EA064708FB06F607FB08F800FB1B
:104C400007F718EB06484CEB164C4FEA124B18EBE3
:104C500007484FEA15464CEB174022EA0B4E0BFB78
:104C600006FC25EA06470EFB06F607FB0EFE0BFBCD
:104C700007F71EEB064E4CEB164C4FF000061EEBF2
:104C8000074E4CEB174B18EB0B0840F1000018EBEC
:104C90000E0B58EB000840F100008F1A4FF0000196
:104CA0003CBFC943661B14BFB5EB040C00213CBFDD
:104CB000C943F61B4FEA17444EEA8E0E27EA044515
:104CC0004FEA1C4704FB07622CEA074C05FB07F779
:104CD0000CFB05F604FB0CFC16EB074642EB1742F7
:104CE00016EB0C4642EB1C421BEB060658EB02028D
:104CF000414146EA9E0601D5BDE80189B6195241F7
:104D000041EB0101A3F10103BDE801894FEA14451C
:104D10004FEA114724EA054621EA074C05FB07F450
:104D200006FB07F70CFB06F105FB0CFC11EB07413A
:104D300044EB17444FEA124711EB0C4144EB1C447F
:104D400022EA074C05FB07F206FB07F70CFB06F609
:104D500005FB0CFC16EB074642EB174216EB0C4624
:104D600042EB1C456A1854F1000148BF7047B61960
:104D7000524141EB0101A3F10103704795F0000F8F
:104D800037D04FEA11424FEA144721EA024624EA9B
:104D9000074C02FB07F106FB07F70CFB06F402FBCE
:104DA0000CFC14EB074441EB17414FEA154714EB99
:104DB0000C4441EB1C4125EA074C02FB07F506FBBE
:104DC00007F70CFB06F602FB0CFC16EB074645EB5F
:104DD000174516EB0C4645EB1C42121951F1000128
:104DE00048BF7047B619524141EB0101A3F10103DD
:104DF00070474FEA14454FEA114724EA054621EA75
:104E0000074C05FB07F106FB07F70CFB06F24FF01A
:104E1000000605FB0CFC12EB074241EB174112EBBD
:104E20000C4251EB1C4148BF7047921841EB010105
:104E3000A3F101037047490050EAC12018BF0420C4
:104E40004A0D18BF40F0010040F2FF72B2EB515F13
:104E500008BF40F00200012808BF05207047303825
:104E60000A2801D2012070470020704710B50029A0
:104E70000AD00878002807D005487844FFF7E0FBFF
:104E8000002801D0002010BD0248784410BD000069
:104E90004E0100004601000010B500290AD0087834
:104EA000002807D005487844FFF7CAFB002801D046
:104EB000002010BD0248784410BD00003E010000F3
:104EC00036010000FFF75EB9303132333435363702
:104ED000383941424344454640305800303132333E
:104EE000343536373839616263646566403078003E
:104EF00004000008000000000000000200010000A3
:104F0000100000000000000000000000024000004F
:104F1000000000A00000000005400000000000C8E4
:104F2000000000000C4000000000409C0000000059
:104F3000194000000020BCBE00000000344000000A
:104F4000BFC91B8E00000004B5400000504BCFD0FD
:104F50006607E2CF010000006C4100003E8251AACA
:104F6000DFEEA73401000000D9420000DCB5A0E26A
:104F70003A301F97FFFFFFFFB4450000FD25A0C892
:104F8000E9A3C14FFFFFFFFFFF3F000000000080CB
:104F900000000000FF3F0000000000800000000053
:104FA0005443500055445000F450000800000020C5
:104FB00084000000280100087851000884000020C7
:104FC000C4100000440100081C0000004300000061
:104FD000F8FFFFFF0C0000000E0000000F000000B3
:104FE0002E0000001001000043000000F8FFFFFF4A
:104FF00000404040404040404040414141414140EC
:1050000040404040404040404040404040404040A0
:10501000400502020202020202020202020202022F
:105020000220202020202020202020020202020234
:10503000020290909090909010101010101010108C
:105040001010101010101010101010100202020298
:1050500002028888888888880808080808080808DC
:1050600008080808080808080808080802020202D8
:1050700040000000000000000000000000000000F0
:105080000000000000000000000000000000000020
:105090000000000000000000000000000000000010
:1050A0000000000000000000000000000000000000
:1050B00000000000000000000000000000000000F0
:1050C00000000000000000000000000000000000E0
:1050D00000000000000000000000000000000000D0
:1050E00000000000000000000000000000000000C0
:1050F0000000000000A24A040000000000000000C0
:105100000102030406070809000000000000000077
:10511000000000000000000000000000000000008F
:10512000000000006707FFF0510099670700F05387
:105130000099670700F0510099670F00F0540000D4
:10514000000000000000000001000000000000005E
:10515000000000000000000002040608000000003B
:10516000010203040102030406070809000000000D
:08517000A04F0008A44F000845
:04000005080000ED02
:00000001FF
