:020000040800F2
:10000000000900201D1100086102000863020008B9
:10001000650200086702000869020008000000008D
:100020000000000000000000000000006B0200085B
:100030006D020008000000006F0200087102000855
:100040003711000837110008371100083711000870
:100050003711000837110008371100083711000860
:100060003711000837110008371100083711000850
:100070003711000837110008371100083711000840
:100080003711000837110008371100083711000830
:100090003711000837110008371100083711000820
:1000A0003711000837110008371100083711000810
:1000B00037110008371100087909000837110008C6
:1000C00037110008371100083711000837110008F0
:1000D00037110008650F0008AF060008970A0008EE
:1000E00037110008371100083711000800F002F836
:1000F00000F090F80AA090E8000C82448344AAF132
:100100000107DA4501D100F085F8AFF2090EBAE82F
:100110000F0013F0010F18BFFB1A43F0010318473B
:1001200098550000B8550000103A24BF78C878C12F
:10013000FAD8520724BF30C830C144BF04680C60ED
:10014000704700000023002400250026103A28BF35
:1001500078C1FBD8520728BF30C148BF0B60704739
:100160006E2904F09D80702903F05F86662905F0F2
:10017000FB81652905F0F881672905F0F581612982
:10018000AFF3008003681B0A28BF41F08001692992
:1001900004F04A80642904F04780752904F0448003
:1001A0006F2904F07F81782903F02B86E92904F078
:1001B0001981E42904F01681F52904F01381EF294F
:1001C00004F07C81F82903F02A860368DB0928BF44
:1001D00041F08001632904F02B84732904F03084FA
:1001E000E32904F03B84F32904F0408400207047A5
:1001F0001FB504F0B7FC04000020002105F09EF9B3
:10020000401C60600020002105F082F9E0601FBD05
:1002100010B510BD04F079FC1146FFF7E9FF00F0BE
:1002200008F804F051FD03B4FFF7F2FF03BC00F03F
:1002300017FE00F0D5FD00F00FFE4FF4165000F051
:10024000F7FE00F079FC00F063FD03F05BFB00209B
:1002500000F0E3FD00F00EF903F052FBFAE70000B6
:100260007047FEE7FEE7FEE7FEE77047704770471E
:1002700010B500F0E1FD0B480168491C01600A4916
:10028000086800281CBF401E08600849086800284C
:100290001CBF401E08600649086800281CBF401C9F
:1002A000086010BD14000020200000202400002061
:1002B0001C0000204D4882B0016841F0010101603E
:1002C00042684B4911404160016821F4102121F03E
:1002D00080710160016821F480210160416821F48E
:1002E000FE0141604FF41F018160002200920192E3
:1002F000016841F480310160016801F4003101912D
:100300000099491C0091019919B90099B1F5A06FA4
:10031000F2D1016811F4003F08BF019233D00121EE
:10032000019134490A6842F010020A600A6822F01A
:1003300003020A600A6842F002020A6041684160F2
:1003400041684160416841F480614160416821F445
:100350007C114160416841F4E8114160016841F05D
:1003600080710160016811F0007FFBD0416821F0CD
:1003700003014160416841F002014160416801F0C0
:100380000C010829FAD11C494FF00060086002B046
:100390007047164B5868194A194910F00C0018BFDD
:1003A000042801D0082801D00A6015E058685A686E
:1003B00000F470104FF0020C12F4803F0CEB9040F0
:1003C00003D05A6812F4003F03D00E4A504308602D
:1003D00002E00A4A5043086058680B4AC0F3031011
:1003E000105C0A6822FA00F00860704700100240B2
:1003F0000000FFF80020024008ED00E000127A0043
:100400000000002000093D000400002096490A6811
:10041000091D0968954B1B6802704FEA122C80F881
:1004200001C04FEA124C80F802C0120EC270017176
:100430000A0A42710A0C8271090EC1710372190A0B
:100440004172190C8172190EC172704778211229FC
:1004500018BF00BA70477821122918BF00BA704738
:100460007821122918BF40BA70477821122918BF85
:1004700040BA70472DE9F04F7D4D7E4FDFF8F8B15F
:1004800095F8250091B0012840F0D9804FF0000880
:10049000CDF80080CDF80480CDF80880CDF80C8030
:1004A000CDF81080CDF81480CDF81880CDF81C80E0
:1004B0002E8C8246CDF82080CDF82480CDF828807F
:1004C0006C46CDF82C80CDF83080CDF83480CDF856
:1004D00038804FF000093246294608A8CDF83C8004
:1004E00003F0BDFD9DF8200067287DD108A800EB32
:1004F000060E1EF8011C992976D100220346002E13
:1005000008BF42460CD00121A6F1020CBCF1010F3C
:1005100006DD5E5C491C324489B2D2B28C45F8DCFF
:100520001EF8021C8A425FD1682104F8021B9DF864
:10053000231004F8011B5149097804F8011B9DF8A8
:10054000241021709DF82410512915D0532905D06D
:100550000226542936D0552950D06EE0B8780028AC
:1005600018BF012004F8010F30B1B868C4F80100C9
:10057000F868C4F805000834BAF1000F5DD099207E
:1005800004F8020F6846201A401C10F0FF038DF893
:1005900001306A464FF0000108BF41460BD00120F0
:1005A0009B1E012B07DD12F800C0401C614480B285
:1005B000C9B28342F7DC04F8011C9DF804005128FD
:1005C00035D129E0082207F10801401D03F0FCFCA9
:1005D000002818BF01200ED1B878002808BF04F801
:1005E000016FC9D0012600E027E000F0B7FAFE70E5
:1005F000FF20CBF8006004F8010FBDE7B8780128B0
:1006000018BF002004F8010FB878012808BFBE7099
:1006100020780028B0D0A8E719484FF4FA410078B4
:1006200000F01F0048434FF49661B0FBF1F99DF8CC
:1006300001104A46684600F0C8FC85F82580DBF8C2
:10064000000041F2941188423CBF11B0BDE8F08F28
:10065000002400F08DFA0B49FC705220CBF80040CA
:10066000087011B0BDE8F08FE8F7FF1FF0F7FF1F2B
:10067000780200205C0000201C00002030000020D8
:100680001400002028000020010010B5CE484FF0D3
:10069000000108D0044602F063F92046BDE810408E
:1006A000012101F044BFBDE8104001F040BF70B52A
:1006B000C64C40F22551204601F094F9002808BFAD
:1006C00070BD204601F02DF9C14DC4B22888B0F5A7
:1006D000807F28BF40F4004012D2BB4E002130463C
:1006E00002F03EF9298839B90021304602F038F984
:1006F0000121304601F01BFFB64928880C54401CEC
:10070000288070BD30B50D46044685B00121042017
:1007100000F0A5FFADF804400020ADF80050AA4C51
:10072000ADF80600ADF802006946204601F02BFC4A
:1007300001221146204601F00EFF1E208DF80C000C
:1007400001208DF80D0002218DF80E108DF80F009C
:1007500003A801F078F905B030BD70B50C46064627
:1007600001218CB01546084600F067FF304602F0C4
:100770006FF900211020CDE902018020CDE904109D
:100780004001CDE9081006910A910791694630466B
:10079000CDE9004502F0C3F90CB070BD2DE9F0437E
:1007A000044691B00121042000F050FF01214804CB
:1007B00000F055FF854F384600F098FF0425ADF84E
:1007C0002C5003268DF82E601820DFF80C828DF84F
:1007D0002F000BA9404600F02CFD0820ADF82C009E
:1007E0008DF82F500BA9404600F023FD0C940024F7
:1007F000ADF838400C20ADF83440ADF83A00ADF813
:100800003640ADF83C400CA9384600F0B9FF012253
:100810008021384601F04FF80121DFF8C09107F13F
:1008200004086F4D084600F008FF484602F010F932
:100830001020CDE902048020CDE904404001069457
:10084000CDE908400A94CDE90085079469464846F9
:1008500002F065F90121384601F00CF8012240F25E
:100860002551384601F00FF826208DF84000022768
:100870008DF841708DF842604FF001088DF843808B
:1008800010A801F0E0F8632641F61F45012104207D
:1008900000F0E5FEADF800504B4DADF80460ADF84A
:1008A0000640ADF802406946284601F06CFB012283
:1008B0001146284601F04FFE1E208DF80C008DF8E1
:1008C0000D808DF80E708DF80F8003A801F0BBF835
:1008D0003F4800210480284601F029FE11B0BDE800
:1008E000F08370B50C460546002102F04EF9214612
:1008F000284602F05CF92846BDE87040012102F06C
:1009000044B90FB4364870B505AA049903F008FA43
:100910003448D0F884100029FBD1304D304803F022
:100920007FFB84B20021284602F02FF92146284699
:1009300002F03DF90121284602F027F970BC5DF86C
:1009400014FB70B50C460A460146254803F087FBA8
:10095000224D284602F02DF90028FAD10021284620
:1009600002F013F92146284602F021F92846BDE895
:100970007040012102F009B910B5134C0121204645
:1009800002F01AF8002808BF10BD0121204602F02D
:100990001EF80F4920460A8842F400420A80BDE84A
:1009A0001040002101F0C3BD10B5044600210648E7
:1009B00001F0D6FF0C49088800220A800A8842EA22
:1009C0000400088010BD0000000800400044004002
:1009D0002A00002078010020000801408000024029
:1009E00078000020000002402C080040F0B50446CA
:1009F00087B00121092000F029FE0121880400F0C0
:100A00002EFE4A4E304600F071FE3015ADF8000063
:100A100003258DF802501820454F8DF803006946D4
:100A2000384600F006FCF014ADF8000004208DF804
:100A300003006946384600F0FCFB0220ADF80000D8
:100A400010208DF803008DF802506946394800F0F7
:100A5000F0FB27208DF8040000208DF80500012010
:100A60008DF806008DF8070001A800F0ECFF02A841
:100A700000F0DDFE02A93046029400F081FE012262
:100A800040F22551304600F0FEFE0121304600F0D4
:100A9000F1FE07B0F0BD70B5244D4021284600F0AE
:100AA0009EFF40F22551284600F09CFF002808BF19
:100AB00070BD284600F035FFC4B2012000F0ADF94A
:100AC0002146284600F029FF8021284600F080FFBB
:100AD0000028F9D0BDE87040022000F09EB910B5A2
:100AE000124C0146204600F018FF8021204600F0FD
:100AF0006FFF0028F9D010BD2DE9F0410D460646E4
:100B000000240A4F0AE0384600F007FF80213846EB
:100B100000F05EFF0028F9D0601C84B2315D00292E
:100B200018BFAC42EFD3BDE8F081000000480040A0
:100B300000080140000C014008B50121082000F028
:100B400085FD1020ADF800008DF8030003208DF81E
:100B500002006946084800F06CFB08BD10B5102182
:100B6000054800F0E2FBBDE81040002000F0D5B8D9
:100B70001021014800F0DBBB000C014038B500211A
:100B80006A4801F0D4FC2020ADF8000010208DF858
:100B900003000320664C8DF802006946204600F0F1
:100BA00048FB2021204600F0C2FB38BD2DE9F04172
:100BB0005E4F20260325DFF8788182B004467A282C
:100BC00003D944F62060844215D90021384601F04B
:100BD000AEFCADF8046010208DF807008DF80650CB
:100BE00001A9404600F025FB2021404600F09FFB74
:100BF00002B0BDE8F08101214E4800F0B7FBADF82E
:100C0000006018208DF803008DF8025069464046B8
:100C100000F00FFB4848B0FBF4F4A1B2384601F0F5
:100C2000A1FEC4F34F01384601F0A0FE0121384671
:100C300001F07DFC02B0BDE8F0812DE9F04FDFF856
:100C4000F0A083B0064600244FF020084FF0100BB0
:100C50004FF0030906EB84077888002804BF03B02F
:100C6000BDE8F08F36F824507A2D03D944F6206081
:100C7000854212D900212D4801F059FCADF80480BD
:100C80008DF807B08DF8069001A9504600F0D1FA12
:100C90002021504600F04BFB1EE00121254800F0CA
:100CA00065FBADF8008018208DF803008DF80290E8
:100CB0006946504600F0BDFA1F48B0FBF5F5A9B2F1
:100CC0001A4801F04FFEC5F34F01184801F04EFEDF
:100CD0000121164801F02BFCB7F9020000F09DF845
:100CE000601CC4B20021114801F021FCADF8008065
:100CF0008DF803B08DF802906946504600F099FADD
:100D00002021504600F013FB0A2000F086F8A1E7EE
:100D10000A2143F63F0000F015B820B1012818BFA2
:100D20007047064889E7064887E70000000400404E
:100D3000000C014000081A0000127A007C550008DF
:100D40006C55000830B50D46044689B001210220DB
:100D500000F085FC0121092000F078FC01211D48EC
:100D600000F004FB2022ADF81C2018228DF81F2073
:100D700003228DF81E2007A9174800F05AFAADF893
:100D80001440ADF810500024144DADF81640ADF8E5
:100D9000124004A9284601F0F6F87021ADF80010C1
:100DA0000121ADF802100221ADF80810ADF806409F
:100DB0006946284601F073F90821284601F0B7FC7E
:100DC0000121284601F089FC0121284601F0AFFBF2
:100DD00009B030BD00081A00000C014000040040BA
:100DE0001A484FF47A710068B0FBF1F0B0F1807FDF
:100DF00012D220F07F40411E4FF0E0204161144AA2
:100E0000F02182F8141D002181610721016101692F
:100E100021F0010101617047FEE701B40D4800991E
:100E200001604FF0E0210A6942F001020A610168A5
:100E30000029FCD101B0704706480168002908BFAD
:100E400070470168491E01607047000000000020E3
:100E50000FE000E02C0000204FF4A06000F0ECBD9B
:100E60007047A6490A8812F0400FFBD0A44AC1B2CD
:100E70001180704790F82420082A28BF7047DFE8C7
:100E800002F017040A1113131315CA1F0C2A0FD8E6
:100E9000018400F010B9FF2906D09A4A12789142D5
:100EA00002D005E0F02903D100F005B9992901D05D
:100EB00000F019B9428C81540021418480F824103B
:100EC000012180F825107047F0B5054687B0012153
:100ED00044F2040000F0BAFB884E304600F006FCF5
:100EE0007015ADF8100003248DF812401820864FBD
:100EF0008DF8130004A9384600F09BF93015ADF8C1
:100F0000100004208DF8130004A9384600F091F970
:100F100025208DF814008DF815408DF8164001201D
:100F20008DF8170005A800F08EFD0020ADF8040034
:100F3000ADF80600ADF80800ADF80C000C20ADF8D7
:100F40000A0000956946304600F01AFC012240F282
:100F50002551304600F097FC0121304600F08AFC14
:100F600007B0F0BD10B56948694A00681168814250
:100F700006D2411A642903D3664B002183F824105A
:100F80005E4C106040F22551204600F02BFD0028F9
:100F900008BF10BD204600F0C4FCC1B25D48FFF799
:100FA00069FF2046BDE8104040F2255100F03BBDEE
:100FB00010B5524C0146204600F0AFFC802120467F
:100FC00000F006FD0028F9D010BD70B505460E46AC
:100FD0001046FFF722FF701E84B22CBF474E70BD33
:100FE00015F8011B304600F098FC8021304600F0D7
:100FF000EFFC0028F9D0611E8CB2F1D270BD2DE952
:10100000F0410D46064600243C4F0AE0384600F009
:1010100084FC8021384600F0DBFC0028F9D0601CFD
:1010200084B2315D002918BFAC42EFD3BDE8F08136
:10103000F8B50646334C01210C2000F007FB482090
:101040008DF8030003208DF802004FF480702E4DC0
:10105000ADF800006946284600F0EBF84FF4704008
:101060002D4FADF800006946384600F0E2F8A915AA
:10107000284600F046F905464FF40041384600F096
:1010800040F945EA40054FF48041384600F039F90F
:1010900045EA80057914384600F033F945EAC00581
:1010A000B914384600F02DF945EA0010207030469A
:1010B000BDE8F84008E7428C815490F82210491CA2
:1010C00001F01F02428490F82410052918BF491C22
:1010D00002D080F824107047911C028C914208BF06
:1010E0000621F6D07047002267291EBF428480F88F
:1010F0002420704780F825204284DCE70038014036
:101100000438014030000020000801401400002095
:101110001800002078020020000C01400948804798
:1011200009480047FEE7FEE7FEE7FEE7FEE7FEE7C9
:10113000FEE7FEE7FEE7FEE704480549054A064BE1
:1011400070470000B5020008ED0000080003002011
:1011500000090020000500200005002010B5A0F1C6
:101160008041B1F584311DD0B1F5806124D0B1F555
:1011700080612BD0B1F5806132D0B1F5806139D07A
:10118000B1F5806140D0B1F5806118BF10BD01217B
:10119000080200F06DFABDE8104000214FF48070A5
:1011A00000F066BA0121042000F062FA0021BDE8D7
:1011B0001040042000F05CBA0121082000F058FA29
:1011C0000021BDE81040082000F052BA0121102093
:1011D00000F04EFA0021BDE81040102000F048BA9F
:1011E0000121202000F044FA0021BDE81040202019
:1011F00000F03EBA0121402000F03AFA0021BDE89B
:101200001040402000F034BA0121802000F030FA74
:101210000021BDE81040802000F02ABA10B501215D
:10122000084600F025FA0021BDE81040012000F03A
:101230001FBA2DE9F00191F803C000220CF00F0352
:101240001CF0100F1CBF91F802C04CEA030391F888
:1012500000C04FF00F071CF0FF0F4FF0010618BF42
:1012600004681CD00D8806FA02FC05EA0C056545E9
:1012700011D1950007FA05F824EA080403FA05F5E8
:101280002C43CD78282D08BFC0F814C003D0482DBA
:1012900008BFC0F810C0521C082AE3D304600A88B3
:1012A000FF2A87BF44680022BDE8F001704702F1C1
:1012B000080C0D8806FA0CFC05EA0C05654511D1F1
:1012C000950007FA05F824EA080403FA05F52C430B
:1012D000CD78282D08BFC0F814C0CD78482D08BFA0
:1012E000C0F810C0521C082AE1D34460BDE8F001E8
:1012F00070474FF6FF710180022181700421C17097
:1013000070470246002092680A4218BF01207047C9
:10131000806880B2704702460020D2680A4218BF37
:1013200001207047C06880B2704701617047416119
:101330007047002A14BF016141617047C160704766
:1013400041F4803282618161826181698069704784
:101350002E4B1A684FF6807C02EA0C0242EA00101B
:101360000843186070472A49C861704770B4DFF8B5
:101370009CC010F0004F14BFDCF81C20DCF80420E7
:10138000C0F303444FF4401333EA00054FEA5053CF
:101390004FEA031386B206FA03F316D010F4801F47
:1013A00008BF9A4303D0032505FA04F4A24342F090
:1013B0007062002918BF1A4310F0004F14BFCCF818
:1013C0001C20CCF8042070BC7047DCF8044022F0EC
:1013D000706224F07064CCF80440EAE78A0721F0D8
:1013E000030101F1804101F58031120F0F23D1F883
:1013F00008C093402CEA03038B608B68904018432D
:10140000886070470249C1F8DC0070470000014065
:1014100000002042AC48016841F0010101604168D0
:10142000AA4A11404160016821F4102121F0807125
:101430000160016821F480210160416821F4FE010E
:1014400041604FF41F01816070479F490A6822F490
:1014500080320A600A6822F480220A60B0F5803F78
:1014600004BF086840F4803006D0B0F5802F06BF76
:10147000086840F4A02070470860704700224109C6
:10148000914B012908BF196803D002290CBF196AC2
:10149000596A00F01F00012303FA00F0084218BF48
:1014A00001221046704708B50020874A00900020AE
:1014B000116811F4003F18BF01200099491C0091E8
:1014C000B1F5A06F01D00028F1D03120FFF7D6FF91
:1014D000002818BF012008BD7B4A116821F0F801DF
:1014E00041EAC00010607047794908607047764B48
:1014F0005A68084322F47C121043586070477449BC
:1015000008667047704A516821F003010843506033
:1015100070476D48406800F00C0070476A4A516897
:1015200021F0F001084350607047674A516821F488
:10153000E061084350607047634A516821F460518C
:1015400041EAC000506070475F4A0029517A14BFD9
:10155000084321EA0000507270475D49C1F8D80085
:101560007047594A516821F4404108435060704720
:101570005549002281F8202081F82020012803D03D
:1015800004280CBF0520704781F82000704751499E
:10159000086070474C490A6A1043086270474E4918
:1015A00008607047484A10B451684C4B11F00C0168
:1015B00018BF042901D0082901D0036015E0516843
:1015C000536801F470114FF0020C13F4803F0CEBE0
:1015D000914103D0536813F4003F03D0404B59436B
:1015E000016002E03D4B5943016051680F23DFF871
:1015F000F4C003EA11111CF80110036823FA01F189
:1016000041605368072404EA13231CF8033021FACD
:1016100003F38360536804EAD3231CF80330D940F2
:10162000C1605268032303EA9232ACF104039A5C6E
:10163000B1FBF2F1016110BC7047234A00295169E6
:1016400014BF084321EA0000506170471E4A002978
:10165000916914BF084321EA0000906170471A4A5B
:101660000029D16914BF084321EA0000D061704706
:10167000154A0029D16814BF084321EA0000D06050
:101680007047114A0029116914BF084321EA00007C
:10169000106170471449086070470D49C86470476D
:1016A0000949C87170470848416A41F08071416238
:1016B0007047054A0146002092680A4218BF01207F
:1016C0007047014988727047001002400000FFF81F
:1016D00000004242800442423C04424200127A002E
:1016E00000093D003C0000204004424210B5A0F13A
:1016F0008041B1F59C3117D011F574411FD0B1F57F
:10170000806127D0B1F580612FD0B1F5806118BF1D
:1017100010BD01210805FFF7B4FFBDE8104000210E
:101720004FF48010FFF7ADBF01218803FFF7A0FF42
:10173000BDE8104000214FF48040FFF799BF012120
:101740004804FFF79EFFBDE8104000214FF4003031
:10175000FFF797BF01218804FFF793FFBDE8104012
:1017600000214FF48020FFF78CBF0121C804FFF750
:1017700088FFBDE8104000214FF40020FFF781BF33
:1017800030B50446008A85B00D464CF6FF7108401E
:10179000E98808432082A0894EF6F3110840A98801
:1017A0002A8911436A8910430843A081A08A4FF611
:1017B000FF410840A9890843A0826846FFF7F2FE6E
:1017C000A4F18040B0F59C300CBF03980298A18929
:1017D00011F4004F00EBC00101EB0010296814BFA9
:1017E00049008900B0FBF1F0924A6FF0180CA2FB9F
:1017F0000031490909010B0903FB0CF300EB8300DD
:10180000A38913F4004F4FF0320314BF03EBC00061
:1018100003EB0010A2FB00204FEA501014BF00F0B1
:10182000070000F00F000843208105B030BD4FF4E1
:101830001651016000218180C18001810C2242810A
:1018400081817047028A4FF2FF031A400B88B1F87A
:1018500002C043EA0C03B1F804C0C9884CEA010194
:10186000194311430182704700210180418081802A
:10187000C18070470029818914BF41F4005121F4CF
:10188000005181817047C1F3421301F01F014FF0F5
:10189000010C0CFA01F1012B08BF0C3003D0022B14
:1018A0000CBF10301430002A026814BF114322EA22
:1018B000010101607047002A828A14BF114322EAA5
:1018C000010181827047028A22F00F020282028A9D
:1018D000114301827047828922F4006282818289E9
:1018E0001143818170470029818914BF41F00201B1
:1018F00021F0020181817047028A22F020020282D7
:10190000028A1143018270470029018A14BF41F401
:10191000804121F4804101827047C1F30801818038
:1019200070478088C0F308007047818941F0010149
:1019300081817047028BD2B20283028B42EA01217D
:1019400001837047028B02F47F420283028B1143B2
:10195000018370470029818A14BF41F0200121F0E2
:101960002001818270470029818A14BF41F0100153
:1019700021F01001818270470029818A14BF41F053
:10198000080121F00801818270470029818914BF74
:1019900041F40041C1F30E01818170470029818A21
:1019A00014BF41F4006121F4006181827047828A92
:1019B00022F004028282828A1143818270470029C8
:1019C000818A14BF41F0020121F002018182704737
:1019D0000246002012880A4218BF01207047C943FE
:1019E0000180704710B401F01F020124C1F34213BB
:1019F00004FA02F24FF0000C012B04BF83891A4055
:101A000004D0022B0CBF038A838A1A40090A00887B
:101A100004FA01F10840002A1CBF00284FF0010C15
:101A2000604610BC7047090A012202FA01F1C9435D
:101A3000018070471F85EB512D4940F0FD7040F04B
:101A400080600860704710B4C27801784FF00F0CC6
:101A500001242AB3264A126801F1E02102F4E0626F
:101A6000C2F5E062120AC2F104032CFA02F290F805
:101A700001C00CFA03F390F802C00CEA02021A4308
:101A8000120181F80024007800F01F0104FA01F12E
:101A90004009800000F1E020C0F8001110BC704740
:101AA00001F01F0004FA00F04909890001F1E0216A
:101AB000C1F8800110BC704721F07F0121F0604126
:101AC00008430C49086070470B4A0029116814BF8D
:101AD000084321EA0000106070474FF0E02104281D
:101AE00008690CBF40F0040020F004000861704752
:101AF0000CED00E008ED00E010ED00E010B5A0F105
:101B00008041B1F5983111D011F5784119D0B1F576
:101B1000806118BF10BD0121C803FFF7B2FDBDE809
:101B2000104000214FF40040FFF7ABBD0121080336
:101B3000FFF79EFDBDE8104000214FF48050FFF7F5
:101B400097BD01218803FFF79CFDBDE810400021EF
:101B50004FF48040FFF795BD10B402880B88B1F8B0
:101B600002C0CC8843EA0C03B1F804C002F441522D
:101B70004CEA040C43EA0C03B1F808C043EA0C0336
:101B8000B1F80AC043EA0C03B1F80CC043EA0C03F5
:101B9000B1F80EC043EA0C031A430280828B22F490
:101BA00000628283098A018210BC7047F0B5054645
:101BB0000C4602200021AA8B85B0012622F0BF022C
:101BC00022F47062AA832884AF8BA268022A23D0F1
:101BD000A088002818BF02266846FFF7E3FCE188CA
:101BE0000098B1F5007F2DD07101B0FBF1F000EB52
:101BF0008000A1684000B0FBF1F0401D80B2684950
:101C00004FF6FF72A1FB0010C00800F00101401A5E
:101C1000C0F34F0002EA0121821EFE2A24BF0220E7
:101C20000021E28808431043288420886188A28923
:101C30000843A18811430843384340F40060A88357
:101C400005B0F0BD000A00EB8000A1684000B0FBC9
:101C5000F1F0401D80B2D2E70021018041808180F7
:101C6000C180018141818181C18107210182704749
:101C70000021018041808180C180022282608181B7
:101C800070470029018814BF41F0400121F0400154
:101C9000018070470029818B14BF41F4806121F4D9
:101CA0008061818370470909012303FA01F1002A49
:101CB000828889B214BF114322EA010181807047F2
:101CC000002A828814BF114322EA010181807047F3
:101CD0008181704780897047A1F57E420188FF3A73
:101CE00014BF41F4807121F4807101807047002994
:101CF000818814BF41F0040121F004018180704704
:101D0000028822F400620280028811430180704739
:101D1000018841F48051018070470029018814BF77
:101D200041F4005121F4005101807047012914BF92
:101D3000008B808A7047008A7047B1F5804F018818
:101D40000CBF41F4804121F480410180704702467C
:101D5000002012890A4218BF01207047C94301813F
:101D6000704701F00F034FF0010C0CFA03F300224F
:101D700009090CFA01F1B0F804C09BB289B20089DC
:101D80000CEA010118421CBF0029012210467047CD
:101D900001F00F01012202FA01F1C94301817047EC
:101DA000CDCCCCCC10B5A0F18041B1F596313BD073
:101DB000B0F1804F4DD011F5943140D0B1F5806134
:101DC00051D0B1F5806158D0B1F580615FD0B1F5E7
:101DD000806166D0B1F590316DD0B1F5C05175D04C
:101DE000B1F580617DD0B1F580617DD011F59E3176
:101DF0007BD0B1F5806179D0B1F5806177D0B1F554
:101E0000903175D0B1F5806173D0B1F5806118BFA4
:101E100010BD01218804FFF72BFCBDE81040002114
:101E20004FF48020FFF724BC0121C802FFF720FCFB
:101E3000BDE8104000214FF40060FFF719BC0121FC
:101E40000220FFF71EFC0021BDE810400220FFF732
:101E500018BC01210846FFF714FC0021BDE8104022
:101E60000120FFF70EBC01210420FFF70AFC00212E
:101E7000BDE810400420FFF704BC01210820FFF753
:101E800000FC0021BDE810400820FFF7FABB01214B
:101E90001020FFF7F6FB0021BDE810401020FFF7EF
:101EA000F0BB01212020FFF7ECFB0021BDE8104032
:101EB0002020FFF7E6BB01214803FFF7D9FBBDE86F
:101EC000104000214FF40050FFF7D2BB0121C8049D
:101ED000FFF7CEFBBDE8104000214FF40020FFF7D4
:101EE000C7BB0121080505E00DE017E020E029E06F
:101EF00033E03DE0FFF7BCFBBDE8104000214FF4AC
:101F00008010FFF7B5BB01214805FFF7B1FBBDE825
:101F1000104000214FF40010FFF7AABB0121402020
:101F2000FFF7AFFB0021BDE810404020FFF7A9BB41
:101F300001218020FFF7A5FB0021BDE81040802093
:101F4000FFF79FBB01210802FFF79BFBBDE8104094
:101F500000214FF48070FFF794BB01210804FFF7C4
:101F600087FBBDE8104000214FF48030FFF780BBB5
:101F700001214804FFF77CFBBDE8104000214FF42D
:101F80000030FFF775BB10B40288DFF8F0C3FC4BDC
:101F9000604518BF984211D0B0F1804F1CBFA0F12E
:101FA0008044B4F5806409D0A0F18044B4F50064A5
:101FB0001CBFA0F18044B4F5406403D14C8822F0EA
:101FC00070022243A0F18044B4F580541CBFA0F1FC
:101FD0008044B4F5A05403D0CC8822F4407222434C
:101FE00002808A8882850A880285604518BF9842E7
:101FF0000DD0A0F18042B2F5A0321FBFA0F1804207
:10200000B2F5A232A0F18042B2F5A43201D1097A30
:1020100001860121818210BC704710B4028C22F02D
:1020200001020284028C8388B0F818C00C882CF05E
:10203000730C44EA0C0C0C8922F0020222434C88F7
:102040002243A0F18044B4F596341CBFA0F1804433
:10205000B4F59A340DD0A0F18044B4F5A0341FBF7C
:10206000A0F18044B4F5A234A0F18044B4F5A434C6
:102070000DD14C8922F0080222438C8822F0040200
:1020800022438C8923F440732343CC8923438380E8
:10209000A0F818C0C9888186028410BC704730B48B
:1020A000028C22F010020284028C8388B0F818C0DF
:1020B0000D882CF4E6444FF6FF7C0CEA05252C43F2
:1020C0000D8922F020020CEA05152A434D880CEAFE
:1020D00005152A43A0F18045B5F596351CBFA0F142
:1020E0008045B5F59A3516D14D8922F080020CEA6B
:1020F00005152A438D8822F040020CEA05152A4373
:102100008D8923F440630CEA85052B43CD890CEAC5
:10211000850C4CEA030383800483C9880187028409
:1021200030BC704730B4028C22F480720284028C7E
:102130008388B0F81CC00C882CF0730C44EA0C04A3
:102140000D894FF6FF7C22F400720CEA05252A4324
:102150004D880CEA05252A43A0F18045B5F5963552
:102160001CBFA0F18045B5F59A3516D14D8922F4F2
:1021700000620CEA05252A438D8822F480620CEA6D
:1021800005252A438D8923F440530CEA05152B437A
:10219000CD890CEA051C4CEA030383808483C9883B
:1021A0008187028430BC704730B4028C22F48052A4
:1021B0000284038C8288B0F81CC00D884FF6FF742F
:1021C0002CF4E64C04EA052545EA0C0C0D8923F4B1
:1021D000005304EA05352B434D8804EA05352B43AB
:1021E000A0F18045B5F596351CBFA0F18045B5F549
:1021F0009A3505D18D8922F4804204EA8514224360
:102200008280A0F81CC0C988A0F84010038430BCAC
:102210007047828B22F440628283828B4FF6FF7379
:1022200003EA0121114381837047828B22F00C0263
:102230008283828B114381837047028B22F4406238
:102240000283028B4FF6FF7303EA012111430183DE
:10225000704770B4B0F820C02CF0100CA0F820C06B
:10226000058BB0F820C04FF6FF7625F4734506EADB
:1022700003332B4306EA02221A43A0F1804306EA05
:102280000114B3F596331CBFA0F18043B3F59A3324
:1022900014D0B0F1804F1CBFA0F18043B3F5806330
:1022A0000CD0A0F18043B3F500631FBFA0F18043C1
:1022B000B3F540632CF0A003194302D12CF02001A8
:1022C000214341F010010283018470BC7047028BEE
:1022D00022F00C020283028B1143018370472DE927
:1022E000F05F0D4604460888244FDFF89480DFF83D
:1022F0009490DFF894A0DFF894E04988AA882B89AD
:10230000002845D04FF6FF7604284DD00828208CB1
:1023100058D020F480502084B4F81CB0208C2BF4CA
:10232000734B06EA022242EA0B0206EA03331A431F
:1023300006EA013CBC4218BF44450BD0B4F1804FC3
:1023400018BF4C4506D054451EBF744520F40240CA
:10235000084303D120F4005040EA0C0040F48050C0
:10236000A2832084A879A18B21F44061A183A18B51
:1023700006EA00200843A083BDE8F09F002C01403E
:10238000003401400004004000080040000C004000
:10239000204600F01FFBE888218B21F00C012183EF
:1023A000218B08432083E7E72046FFF752FFA879F7
:1023B000218B21F440612183218B06EA0020084310
:1023C0002083D9E720F480702084B4F81CC0208CCE
:1023D00006EA03131A432CF0F30C06EA012B42EA37
:1023E0000C02BC4218BF44450BD0B4F1804F18BF5B
:1023F0004C4506D054451EBF744520F42060084368
:1024000003D120F4007040EA0B0040F48070A283F6
:102410002084E888A18B21F00C01A183A18B0843C3
:10242000A083A9E72DE9F0410C464988012605461D
:102430004FF00008002908BF4FF00208A288012AC7
:1024400008BF02262088238900284FF6FF772846F8
:102450001BD0FFF7FEFEA079298B21F44061298370
:10246000298B07EA00200843288323893246414606
:10247000284600F0AFFAE088298B21F00C0129836F
:10248000298B08432883BDE8F08100F0A3FAE08897
:10249000298B21F00C012983298B08432883238968
:1024A000324641462846FFF7D4FEA079298B21F415
:1024B00040612983298B07EA002008432883BDE86F
:1024C000F0810A884B88B1F806C01A438B8843EA2A
:1024D0000C031A430B891A434B8989891A43114308
:1024E000A0F8441070474FF6FF71818000210180F1
:1024F000C18041800172704700210180418081804C
:10250000C180018141818181C181704700210180A9
:10251000418001228280C1800181704700210180B9
:1025200041808180C1800181418181817047002982
:10253000018814BF41F0010121F0010101807047C1
:102540000029B0F8441014BF41F40041C1F30E015A
:10255000A0F844107047002A828914BF114322EA70
:10256000010181817047818270471143A0F84810B2
:102570007047002A828914BF114322EA0101818138
:102580007047018921F0070101817047028922F01B
:102590007002114301817047028922F070021143D9
:1025A0000181018941F007010181704770B59446AE
:1025B0000D46602904464FF0010261460BD000F041
:1025C00009FA208920F0700028432081208940F0FA
:1025D0000700208170BDFFF73CFEF2E710B4B0F8B1
:1025E00008C04FF6FF7404EA03231A430CF0FF0CF3
:1025F000114341EA0C01018110BC704710B4B0F8DE
:1026000008C04FF6FF7404EA03231A430CF0FF0CD2
:10261000114341EA0C010181018941F077010181F7
:1026200010BC704710B4B0F808C04FF6FF7404EA4D
:1026300003231A430CF0FF0C114341EA0C01018102
:10264000018941F48041018110BC7047018582827B
:102650007047028822F0700211430180704730B445
:102660000589B0F818C0048C25F0070529432CF023
:10267000030C2CF4407C40F201154CEA050C4FF69B
:10268000FF7505EA031324F022041A432243018153
:10269000A0F818C0028430BC7047028B22F0700290
:1026A000114301837047028B4FF6FF7322F4E0421F
:1026B00003EA0121114301837047828B22F07002EB
:1026C000114381837047828B4FF6FF7322F4E042FF
:1026D00003EA01211143818370470029018814BF57
:1026E00041F0800121F0800101807047002981883C
:1026F00014BF41F0040121F00401818070470029DA
:10270000818814BF41F0080121F0080181807047E1
:102710000029818814BF41F0010121F0010181806D
:102720007047028B22F00802114301837047028B2D
:102730004FF6FF7322F4006203EA01211143018383
:102740007047828B22F00802114381837047828B8D
:102750004FF6FF7322F4006203EA012111438183E3
:102760007047028B22F00402114301837047028BF1
:102770004FF6FF7322F4806203EA012111430183C3
:102780007047828B22F00402114381837047828B51
:102790004FF6FF7322F4806203EA01211143818323
:1027A0007047028B22F08002114301837047028B35
:1027B0004FF6FF73C2F30E0203EA012111430183B6
:1027C0007047828B22F08002114381837047828B95
:1027D0004FF6FF73C2F30E0203EA01211143818316
:1027E0007047028C22F00202114301847047028C70
:1027F00022F00802114301847047028C4FF6FF73E8
:1028000022F0200203EA0111114301847047028C77
:102810004FF6FF7322F0800203EA01111143018495
:102820007047028C4FF6FF7322F4007203EA012115
:10283000114301847047028C4FF6FF7322F400624B
:1028400003EA0121114301847047028C4FF6FF73A4
:1028500022F4005203EA013111430184704701233D
:10286000B0F820C08B402CEA03030384038C02FAE7
:1028700001F11943018470470423B0F820C08B4054
:102880002CEA03030384038C02FA01F11943018447
:10289000704710B44FF0010C048C00F118030CFACF
:1028A00001FC24EA0C0CA0F820C0002918BF08295C
:1028B00010D0081FC0F34E001844016821F4E04115
:1028C000016001684FF6FF7303EA022211430160C1
:1028D00010BC704703EB5100016821F070010160EA
:1028E00001681143016010BC70470029018814BFC2
:1028F00041F0020121F002010180704700290188A6
:1029000014BF41F0040121F0040101807047002947
:10291000818814BF41F0800121F0800181807047DF
:10292000028822F008020280028811430180704769
:10293000828822F0700282808288114381807047F1
:10294000028922F007020281028911430181704746
:10295000028922F0800202810289114301817047BD
:1029600081847047818570478186704701877047F1
:1029700081877047A0F840107047028822F44072A7
:1029800002800288114301807047808E7047008F5B
:102990007047808F7047B0F840007047808C704758
:1029A000008D704702460020128A0A4218BF01209B
:1029B0007047C94301827047038A002280890B4215
:1029C00000EA01001CBF0028012210467047C943DD
:1029D0000182704730B4B0F820C02CF0010CA0F890
:1029E00020C0048BB0F820C04FF6FF7505EA031332
:1029F0001A4324F0F3042243A0F18043B3F5963345
:102A00001CBFA0F18043B3F59A331AD0B0F1804FC8
:102A10001CBFA0F18043B3F5806312D0A0F18043C6
:102A2000B3F500631CBFA0F18043B3F5406308D049
:102A30002CF00A03194341F001010283018430BCE8
:102A400070472CF00203194341F00101F5E7000043
:102A500002684FF6FE711140016000210160416083
:102A60008160C160684A6949904204BF486840F08B
:102A70000F0022D0664A904204BF486840F0F00040
:102A80001BD0644A904204BF486840F4706014D080
:102A9000614A904204BF486840F470400DD05F4ADC
:102AA000904204BF486840F4702006D05C4A9042CF
:102AB00004BF486840F4700001D148607047594A2B
:102AC000904204D1486840F0706048607047564AB0
:102AD000111F904204BF086840F00F0014D0534A01
:102AE000904204BF086840F0F0000DD0504A904278
:102AF00004BF086840F4706006D04E4A904204BF9C
:102B0000086840F4704001D1086070474A4A90421A
:102B100018BF7047086840F470200860704710B410
:102B20000268D1F820C08B686FF30E1243EA0C03E1
:102B3000D1E904C44CEA040C43EA0C03D1F818C0F0
:102B400043EA0C03D1F81CC043EA0C03D1F824C0BB
:102B500043EA0C03D1F828C043EA0C031A4302608D
:102B6000CA6842600A6882604968C16010BC7047E8
:102B70000021016041608160C1600161416181614A
:102B8000C16101624162816270470029016812BF20
:102B900041F001014FF6FE72114001607047002ABA
:102BA000026814BF114322EA0101016070474160CD
:102BB0007047406880B27047002210F0805F14BFF9
:102BC0001E4912490968014218BF01221046704788
:102BD00010F0805F19BF1A4908600C4948607047BF
:102BE000002210F0805F14BF1449084909680142AF
:102BF00018BF01221046704710F0805F19BF1049BE
:102C00000860024948607047080002400000024026
:102C10001C000240300002404400024058000240C4
:102C20006C00024080000240080402401C04024084
:102C300030040240440402405804024000040240B0
:102C40000404024008B501210820FEF7FFFC012022
:102C5000ADF8000010208DF803006946FD48FEF72E
:102C6000E8FAFD4800F00EFF08BD38B500220092DA
:102C70007E2202EA40008DF800008DF8011001204C
:102C8000FEF7CBF8F54C10212046FEF750FB022250
:102C90006946F14800F0C9FF10212046FEF745FBC8
:102CA00038BD30B583B000218DF800107E2101EAD7
:102CB000400040F080008DF804000120FEF7ADF8E0
:102CC000E64C10212046FEF732FBE34D012201A91C
:102CD000284600F0AAFF01226946284600F0DEFFE0
:102CE00010212046FEF721FB9DF8000003B030BD07
:102CF00070B50C460546FFF7D4FF40EA04012846AC
:102D0000BDE87040B1E770B50C460546FFF7C9FF56
:102D100020EA04012846BDE87040A6E72DE9FF5FE0
:102D200000250227DDF838909846934682462E46C5
:102D30000C2804BF7725302604D0BAF10E0F04BF4B
:102D40001225102645F080010220FFF78EFF042493
:102D50002046FFF7A6FF20F080012046FFF785FF01
:102D600000210120FFF781FF0A242046FFF799FF89
:102D700040F080012046FFF778FF0024BBF1000FF0
:102D800007D90198015D0920FFF76FFF641CA34577
:102D9000F7D851460120FFF768FFBAF10C0F08D1B0
:102DA0000D242046FFF77DFF40F080012046FFF70D
:102DB0005CFF4FF448740420FFF773FF8346641EE2
:102DC00005D01BF0010F08BF1BEA060FF3D00D263C
:102DD0003046FFF766FF20F080013046FFF745FFE1
:102DE0003CB10620FFF75DFF10F01B0F18BF022754
:102DF00010D00C242046FFF754FF40F080012046FD
:102E0000FFF733FF00210120FFF72FFF04B0384602
:102E1000BDE8F09F00270BEA050010F0010F18BF76
:102E20000127BAF10C0FE4D10A20FFF73AFF04465C
:102E30000C20FFF736FF10F0070008BFE00002D0BB
:102E4000E10008390844C9F80000002C08BF01243B
:102E500002D0122C88BF12240025002CC9D90920C9
:102E6000FFF71FFF08F805006D1CAC42F7D8C0E75C
:102E700070B50646082588B00C462846FFF711FFB6
:102E800020F008012846FFF7F0FE07210D20FFF78C
:102E9000ECFE14252846FFF704FF40F00301284606
:102EA000FFF7E3FE06A801AB00908DF80460012255
:102EB00019460C20FFF732FF002807BF069910299A
:102EC000022008B018BF70BD9DF8041021709DF855
:102ED0000510617008B070BD70B50546082688B051
:102EE00000243046FFF7DDFE20F008013046FFF7F2
:102EF000BCFE00210D20FFF7B8FE0E263046FFF77E
:102F0000D0FE20F080013046FFF7AFFE93208DF811
:102F1000040020208DF8050006A801AB00900222D5
:102F200019460C20FFF7FAFE060004BF002101AA93
:102F30000BD1505C6854505C4440481CC1B2042919
:102F4000F7D3505CA04218BF02260E242046FFF79C
:102F5000A8FE40F080012046FFF787FE08B030460B
:102F600070BD2DE9F0410646052417460D46204662
:102F7000FFF797FE20F004012046FFF776FE0021C0
:102F80000120FFF772FE0A242046FFF78AFE40F078
:102F900080012046FFF769FE0024002D07D9315D2E
:102FA0000920FFF762FE601CC4B2A542F7D80321D6
:102FB0000120FFF75AFEFF240520FFF772FE611E75
:102FC00011F0FF0402D010F0040FF5D02220FFF71B
:102FD00068FE38702120FFF764FE7870BDE8F0814C
:102FE00010B588B093218DF8041070218DF805106C
:102FF00000218DF80A1001AA02EB010C435C8CF849
:10300000023010F801C09DF80A30491C83EA0C0315
:10301000C9B28DF80A300429EED3072101A8D21DC8
:10302000FFF79FFF08242046FFF73BFE20F0080132
:103030002046FFF71AFE06A801AB009009221946A8
:103040000C20FFF76BFE002806BF06991829022006
:1030500008B010BD000C01400030014000080140E4
:1030600010B588B08DF804008DF80510002001A976
:1030700012F800C00C18401CC0B284F802C0062828
:10308000F6D3002001EB000C1A5C401CC0B28CF897
:1030900008200628F6D306A800900B460C220E2026
:1030A000FFF73CFE040005D10820FFF7FAFD10F001
:1030B000080F00D1022408B0204610BD30B587B0FB
:1030C0000D4630218DF8041001AC8DF80500A21CCE
:1030D00002212046FFF745FF06A801AB009004221D
:1030E00019460C20FFF71AFE002805BF0699902903
:1030F000022000221CBF07B030BDA15CA954511CA6
:10310000CAB2102AF9D307B030BD70B588B00D46E9
:10311000A0218DF8041001AC8DF80500A21C02213D
:103120002046FFF71EFF06AE01AB042219460C2015
:103130000096FFF7F3FD002804BF0698042827D166
:103140009DF8040000F00F000A2808BF00201FD1DE
:10315000295C2154401CC0B21028F9D304F110029C
:10316000102101A8FFF7FDFE01AB122219460C2029
:103170000096FFF7D3FD002804BF0699042907D164
:103180009DF8041001F00F010A2904BF08B070BDBA
:10319000022008B070BDF0B587B001AC8DF8040016
:1031A00015460E468DF80510A21C02212046FFF799
:1031B000D8FE06AF01AB042219460C200097FFF79A
:1031C000ADFD002804BF069804283DD19DF80400F9
:1031D00000F00F000A2808BF002035D1295C2154D7
:1031E000401CC0B21028F9D3221D042101A8FFF70A
:1031F000B8FE002001AB06900622194600970C206D
:10320000FFF78CFD022804BF07B0F0BDB0208DF899
:1032100004008DF80560A21C022101A8FFF7A1FEA1
:1032200001AB042219460C200097FFF777FD002818
:1032300004BF0699042907D19DF8041001F00F017D
:103240000A2904BF07B0F0BD022007B0F0BD70B579
:1032500088B00E46C2218DF8041001AC8DF805002F
:10326000A21C02212046FFF77CFE06AD01AB042222
:1032700019460C200095FFF751FD002804BF069861
:10328000042833D19DF8040000F00F000A282DD146
:1032900000200190221D042101A8FFF762FE01AB6E
:1032A000062219460C200095FFF738FD02281DD094
:1032B000B0208DF804008DF80560A21C022101A841
:1032C000FFF74FFE01AB042219460C200095FFF7D3
:1032D00025FD002804BF0699042907D19DF8041094
:1032E00001F00F010A2904BF08B070BD022008B028
:1032F00070BD00B587B050208DF8040000208DF817
:10330000050001A8821C0221FFF72BFE06A801ABD5
:103310000090042219460C20FFF700FD07B00020A2
:1033200000BD10B5FE4C01212046FDF7FEFF0A202E
:10333000FDF773FD01212046FDF7F9FF4FF47A7088
:10334000FDF76BFD01212046FDF7EFFF4FF4FA700A
:10335000FDF763FD0F210120FFF787FC0220FDF739
:103360005CFD3D211120FFF780FC1E212D20FFF781
:103370007CFC00212C20FFF778FC8D212A20FFF710
:1033800074FC3E212B20FFF770FC40211520FFF735
:103390006CFC33242046FFF784FC20F0800120469B
:1033A000FFF763FC40211520FFF75FFC002010BDF4
:1033B00010B51420FFF775FC10F0030F18BF10BDF7
:1033C00014242046FFF76DFC40F003012046BDE8C1
:1033D00010404AE410B514242046FFF762FC20F0A8
:1033E00003012046BDE810403FE4412818BF704764
:1033F00010B508242046FFF754FC20F008012046B1
:10340000FFF733FC3D211120FFF72FFC8621172009
:10341000FFF72BFC7F212620FFF727FC1E212D2004
:10342000FFF723FC00212C20FFF71FFC8D212A2011
:10343000FFF71BFC3E212B20FFF717FC0520FDF7B3
:10344000ECFC1420FFF72DFC10F0030F18BF10BD8B
:1034500014242046FFF725FC40F003012046BDE878
:10346000104002E410B5AF4894B000F120010BAC5D
:1034700091E80E1084E80E10016B0F9100F13401F9
:1034800001AC91E80E1084E80E10406C059010A974
:103490005220FFF7EDFC002844D1BDF8400040BAAF
:1034A000B0F5884F18BFB0F5806F09D0B0F5007F38
:1034B0001EBFB0F5006FA0F58841B1F1030131D115
:1034C00011A8FFF709FD00282CD111A8FFF788FDEE
:1034D00040BBFFF70EFF07210D20FFF7C6FB402082
:1034E0008DF8180012AC06AB012219460C2000948E
:1034F000FFF714FCB0B900210D20FFF7B6FB432005
:103500008DF8180006AB012219460C200094FFF735
:1035100005FC38B90BAB042219460C200094FFF7C8
:10352000FDFB10B114B0022010BD01A805AA1021A6
:10353000FFF717FD01AB122219460C200094FFF78C
:10354000EDFB14B010BD10B540F003040B46754AF6
:1035500021466020FFF784FD20B973492046FFF71C
:10356000ADFD08B1022010BD6E486F49D0F80620AD
:103570000A6042898A80C268C1F80A20008AC8812C
:103580002046BDE81040C0E52DE9F04186B000249A
:10359000664F05460094019402940394F87801283C
:1035A00079D0634E05A93078FFF762FC002879D105
:1035B000BDF8140040BAB0F5884F18BFB0F5806F61
:1035C00009D0B0F5007F1EBFB0F5006FA0F58841AF
:1035D000B1F1030166D104A8FFF77EFC002861D198
:1035E00004A8FFF7FDFC00285CD1012D24D104AB19
:1035F000504A05216020FFF733FDE8B94FF0070876
:1036000004AB484A41466020FFF72AFDA0B946496D
:103610004046FFF753FD78B94248434AD0F80610B8
:10362000116041899180C168C2F80A10008AD08176
:1036300011464046FFF769FD04AB3F4A0521602073
:10364000FFF70EFD40B94FF02608012D05D0694661
:103650000520FFF733FDF8B124E038490520FFF7D6
:1036600054FDC0B90A20FDF7D8FB69460520FFF7D5
:1036700025FD80B910226946304800F0A5FC50B9FC
:103680000120FDF74AFBFFF734FE86F8008006B004
:103690000020BDE8F08109E010226946274800F0CB
:1036A00093FC38B13078522808BFBC70022006B0B5
:1036B000BDE8F081FFF71DFEB87818B90120B87099
:1036C000FDF72BFB86F8008006B00020BDE8F081F6
:1036D0001BA090B0D0E90010CDE90B10012108200B
:1036E000FDF7B4FF0120ADF8000010208DF80300B5
:1036F00069460B48FDF79DFD134800F0C3F9FFF73D
:1037000010FE14242046FFF7CCFA20F003012046D7
:10371000FFF7ABFA0220FDF780FB142016E0000053
:10372000000C01408C5500084C0000205C0000207B
:10373000280000209E550008A4550008D255000816
:10374000FFFFFFFFFFFF000000300140FFF7A9FA75
:1037500010F0030F07D12046FFF7A3FA40F0030152
:103760002046FFF782FAAA274FF0BB0802AD0026D9
:103770000DF118094FF0500A0DF1380B0A20FDF732
:103780004CFB0DA95220FFF773FB0028F6D1BDF8C2
:10379000340044BA214674A000F0D4FAB4F5006FA6
:1037A00008BF76A016D00ADCB4F5007F08BF77A06A
:1037B00010D0B4F5806F08BF79A00BD008E0B4F545
:1037C000884F08BF7BA005D0A4F58840033804D0FB
:1037D0007DA04AE000F0B6FA02E07FA000F0B2FA65
:1037E00001A8FFF779FB002818BF80A03DD19DF804
:1037F000070000909DF806309DF805209DF8041004
:103800007FA000F09FFA01A8FFF7EAFB002818BF8D
:1038100084A02AD101AB0BAA05216020FFF720FC70
:10382000002818BF84A020D14FF001300190012260
:10383000102102A800F058FC8DF8087002A905209C
:10384000FFF763FC08B181A00FE00296039604968F
:1038500008200596FDF7E1FA02A90520FFF72EFCE6
:10386000002808BF002403D07DA000F06BFA85E794
:10387000295D80A000F066FA601CC4B2102CF7D35A
:1038800054A000F05FFA0222102102A800F02CFCE4
:103890008DF808800820FDF7C0FA02A90520FFF77F
:1038A00034FC0028CFD10820FDF7B7FA02A9052083
:1038B000FFF704FC002808BF0024D5D1295D6DA0C6
:1038C00000F040FA601CC4B2102CF7D341A000F005
:1038D00039FA8DF818A002960396049605968DF88D
:1038E000196009F10202022106A8FFF73AFB06ABB4
:1038F000042219460C20CDF800B0FFF70FFA3DE77F
:10390000012041E638B501210820FDF79FFE012086
:10391000ADF8000010208DF8030069465748FDF708
:1039200088FC574800F0AEF8FFF7FBFC1424204653
:10393000FFF7B7F920F003012046FFF796F90220C0
:10394000FDF76BFA1420FFF7ACF910F0030F18BF66
:1039500038BD14242046FFF7A4F940F003012046A7
:10396000BDE83840FFF781B9436172642054797033
:103970006528307825303458293A00004D69666151
:1039800072652050726F2858290A0D004D696661D2
:103990007265204F6E6528533730290A0D000000EC
:1039A0004D6966617265204F6E6528533530290A6E
:1039B0000D0000004D696661726520556C7472617E
:1039C0004C696768740A0D00556E6B6E6F776E20D8
:1039D000436172640A0D00004D696661726520449E
:1039E0004553466972650A0D00000000416E746916
:1039F000636F6C6C204572726F720A0D00000000DC
:103A000053657269616C204E756D6265723A25303E
:103A100032582530325825303258253032580A0D68
:103A20000000000053656C6563742043617264207C
:103A30004572726F720A0D0041757468205374618B
:103A40007465204572726F720A0D000043617264E2
:103A5000205772697465204572726F720A0D0000FA
:103A6000436172642052656164204572726F720A0C
:103A70000D0000002530325820000000000C0140ED
:103A80000030014070B5A24D86B00446A8424FF008
:103A9000010104D141F20400FDF7D8FD06E0082041
:103AA000FDF7D4FD01218803FDF7D9FD0021ADF814
:103AB00004104FF482701026ADF80600ADF81060C7
:103AC000ADF80810ADF80C100720ADF80A10ADF8ED
:103AD0000E10ADF81210ADF8140001A92046FEF743
:103AE0003BF803201821AC4218D1E022ADF80020A9
:103AF0008DF80200874D8DF8031069462846FDF7C2
:103B000098FBADF800608DF8036069462846FDF724
:103B100090FB10212846FDF708FC19E04FF46042A5
:103B2000ADF800208DF802007B4D8DF8031069463A
:103B30002846FDF77EFBA814ADF800008DF8036061
:103B400069462846FDF775FBA9142846FDF7EDFBED
:103B500001212046FEF7CBF801212046FEF791F81F
:103B600006B070BD2DE9F0410F4606460024022143
:103B7000FEF7EDF844F6206540B9641CAC4212D85B
:103B800002213046FEF7E3F80028F6D039463046E9
:103B9000FEF79EF8002401213046FEF7D8F860B900
:103BA000641CAC4203D94FF0FF30BDE8F081012125
:103BB0003046FEF7CCF80028F2D03046FEF78AF8FF
:103BC0000020BDE8F0812DE9F0410E4607460024B3
:103BD0000221FEF7BCF844F6206540B9641CAC42F3
:103BE00012D802213846FEF7B2F80028F6D0FF219D
:103BF0003846FEF76DF8002401213846FEF7A7F895
:103C000060B9641CAC4203D94FF0FF30BDE8F081CD
:103C100001213846FEF79BF80028F2D03846FEF71F
:103C200059F830800020BDE8F0812DE9F0470D46BD
:103C30000746561E28BF44F6206828D315F8019B76
:103C4000002402213846FEF782F840B9641C44453E
:103C500020D802213846FEF77AF80028F6D04946E7
:103C60003846FEF735F8002401213846FEF76FF894
:103C700040B9641C44450DD801213846FEF767F869
:103C80000028F6D03846FEF725F8761ED6D200205A
:103C9000BDE8F0874FF0FF30BDE8F0872DE9F04731
:103CA0000D468046561E28BF44F6206929D32F466C
:103CB0006D1C002402214046FEF749F840B9641CFF
:103CC0004C4521D802214046FEF741F80028F6D0A5
:103CD000FF214046FDF7FCFF002401214046FEF78E
:103CE00036F840B9641C4C450ED801214046FEF719
:103CF0002EF80028F6D04046FDF7ECFF3880761EFF
:103D0000D5D20020BDE8F0874FF0FF30BDE8F08746
:103D10000030014000080140000C014070470000E5
:103D20001CB50C46064B7B4469460090204600F0CB
:103D3000D0FA04460020694600F0DEFA20461CBD99
:103D4000CF0500000FB4044910B503AA029800F093
:103D5000D9FA10BC5DF814FB3400002070B504469D
:103D600085690068C10601D5302600E02026C0071D
:103D700007D070BDD4E9012130469047206A401C2D
:103D800020626D1EF6D570BD70B504468569007859
:103D9000C00707D170BDD4E9012120209047206AD7
:103DA000401C20626D1EF6D570BD0000F0B40D46BB
:103DB0000188090502D5214C7C4402E01F4C7C445B
:103DC0000E34002100F1240608E002F00F0712096A
:103DD000E75D42EA03721B097754491C52EA030764
:103DE000F3D102780023120704D5702D06D009B153
:103DF000022311342246F0BC00F0BDB90123103477
:103E0000F8E770B504460D462146106800F081F9C8
:103E1000024629462046BDE870400023C6E7D21D71
:103E200022F00703D3E90023C0E70368126843F0D8
:103E3000200303600823C3610023B7E726180000AE
:103E40002DE9F05F894604464FF0000ADFF874B1AF
:103E5000FB44C0F820A02046E1688847002874D0C1
:103E6000252806D0D4E901219047206A401C206211
:103E7000F1E700265F462046E1688847202805468E
:103E800007DB312D05D2781910F8200C08B1064354
:103E9000F1E7B00701D526F00406C4F81CA00027FE
:103EA000C4F818A02A2D09D0284601F02AFB38B3FF
:103EB00004EB8708303DC8F8185019E059F8041B86
:103EC000204604EB87029161E1688847012F05468F
:103ED00018D1E069002820DA26F020061DE0D8F885
:103EE000180000EB800005EB40003038C8F81800DF
:103EF0002046E1688847054601F003FB0028EED123
:103F0000012F0AD02E2D08D12046E16888477F1C5A
:103F10000546022F46F02006C4DBA069002803DA1C
:103F2000404246F00106A061F00701D026F01006DD
:103F30006C2D0BD0682D09D04C2D39D06A2D35D081
:103F4000742D35D07A2D33D016E038E0E1682F4655
:103F500020468847B842054609D16C2F26D04FF439
:103F60008060E168064320468847054604E06C2FE0
:103F70001AD04FF4807006430DB3A5F14100192803
:103F800002D8203546F400664A4629462046266077
:103F90004E46FCF7E5F880B101280BD0F61D26F05F
:103FA000070000F1080956E74020E4E78020D8E741
:103FB0000020D6E706F104094DE7284652E7206ABB
:103FC000BDE8F09FB617000040EA010310B59B075B
:103FD0000FD1042A0DD310C808C9121F9C42F8D073
:103FE00020BA19BA884201D9012010BD4FF0FF3024
:103FF00010BD1AB1D30703D0521C07E0002010BD3A
:1040000010F8013B11F8014B1B1B07D110F8013BC5
:1040100011F8014B1B1B01D1921EF1D1184610BDA6
:1040200010B5431C02E010F8011B71B18107FAD1F1
:104030004FF0013202C88C1A8C4314EAC211F9D035
:10404000C01A0A0603D0C01E10BDC01A10BD0A0453
:1040500001D0801E10BD0902FCD0401E10BD032AF5
:1040600040F2308010F0030C00F0158011F8013B95
:10407000BCF1020F624498BF11F801CB00F8013B7C
:1040800038BF11F8013BA2F1040298BF00F801CB40
:1040900038BF00F8013B11F0030300F01982083A21
:1040A000C0F0088051F8043B083A51F804CBA0E86E
:1040B0000810F5E7121D5CBF51F8043B40F8043BC3
:1040C000AFF30080D20724BF11F8013B11F801CBF8
:1040D00048BF11F8012B24BF00F8013B00F801CBC9
:1040E00048BF00F8012B704702F0FF0343EA0322A8
:1040F00042EA024200F020BA7047704770477047AA
:1041000009684A0501D540B27047C905FCD500B21F
:10411000704709684A0501D5C0B27047C905FCD58A
:1041200080B2704770B50C460546012A05D0287844
:10413000800600D5EA69002302E0012305E05B1C4C
:10414000934202D2E05C0028F9D1A869E618C01AAF
:10415000A861286A184428622846FFF7FFFD04E09A
:10416000D5E9012114F8010B9047B442F8D3284651
:10417000FFF70AFE70BD2DE9F0470D4699469246BD
:10418000044600F124080168880604D5E06921F09E
:104190001001216000E00120A84201DD471B00E082
:1041A0000027A1697A1902EB0900081AA06120789A
:1041B000C00602D42046FFF7D1FD002608E0D4E96E
:1041C00001211AF806009047206A401C761C2062E4
:1041D0004E45F4DB2078C0060AD52046FFF7BEFD29
:1041E00006E0D4E9012130209047206A401C20627B
:1041F000381EA7F10107F4DC07E0D4E9012118F823
:1042000005009047206A401C2062281EA5F1010588
:10421000F3DC2046FFF7B8FD2078000602D5022027
:10422000BDE8F0870120FBE72DE9F04106460024B8
:1042300010687529314616A510D0FFF761FF0028D8
:1042400002DA404213A507E031688A0701D512A5BA
:1042500002E0490704D511A5012401E0FFF759FF49
:1042600000210A2206F1240709E0B0FBF2FCB0FBB2
:10427000F2F302FB1C00303078541846491C002829
:10428000F3D123462A463046BDE8F041FFF773BF1D
:10429000000000002D0000002B00000020000000A6
:1042A00011680268006A530501D508700AE0D30559
:1042B00001D5088006E0130603D5C217C1E9000244
:1042C00000E008600120704701694A1C026108781B
:1042D000704700B58FB0CDE9013100210591054946
:1042E0007944CDE9031011466846FFF7A9FD0FB0E8
:1042F00000BD0000E5FFFFFF0A6802F8010B0A603D
:1043000070470000074B70B50D467B44FFF7E1FF97
:104310000446284600F0AEFB10B14FF0FF3070BDF0
:10432000204670BD55CBFFFF2DE9FF5F15468A463D
:104330000446DFF8AC80F8440027D8E900103E4678
:10434000CDE9001010E03AF816106A4602A800F015
:1043500095FB411C07D02178890603D5E2693918FD
:1043600091420DD80744761C2078800602D5E0697A
:10437000B84205DDAE42E6DB3AF816000028E2D18D
:10438000A069C01BA0612046FFF7E8FCD8E9001037
:10439000CDE90010002017E03AF818106A4602A88C
:1043A00000F06CFBB0F1FF3F81460BD000250DF112
:1043B000080B05E0D4E901211BF8050090476D1CAE
:1043C0004D45F7D308F10100B0428046E4DB206A96
:1043D000384420622046FFF7D7FCBDE8FF9F00006D
:1043E000E21200002DE9F0418046D21D22F00702C2
:1043F0000025D2E90002F52915A614D0011E72F19C
:10440000000106DA0023D0EB030063EB020211A6E1
:1044100008E0D8F800108B0701D50FA602E0490785
:1044200001D50EA601251146002408F1240704E059
:1044300000F0A2F830323A55641C50EA0102F7D17C
:104440002B46324621464046BDE8F041FFF793BE79
:10445000000000002D0000002B00000020000000E4
:1044600030B4002100F1240408E002F00705D2086E
:10447000303542EA4372DB086554491C52EA0305B1
:10448000F3D10468002310A2250708D504F0200406
:104490000C4304D0C46901230CA2641EC46130BC67
:1044A000FFF769BE10B5044621461068FFF731FEDC
:1044B00002462046BDE810400023D1E7D21D22F07D
:1044C0000701D1E90023CBE7000000003000000025
:1044D00010B5203AC0F00B80B1E81850203AA0E89F
:1044E0001850B1E81850A0E81850BFF4F5AF5FEAD3
:1044F000027C24BFB1E81850A0E8185044BF18C986
:1045000018C0BDE810405FEA827C24BF51F8043B2C
:1045100040F8043B08BF7047D20728BF31F8023B80
:1045200048BF11F8012B28BF20F8023B48BF00F814
:10453000012B70474FF000020429C0F0128010F0E8
:10454000030C00F0BD82CCF1040CBCF1020F18BFCB
:1045500000F8012BA8BF20F8022BA1EB0C0100F002
:10456000AFBA5FEAC17C24BF00F8012B00F8012B31
:1045700048BF00F8012B704730B5B0F10A024FEA8E
:10458000900E71F100034EEA817EB0EB0E0061EBFC
:1045900091014FEA101E4EEA017E10EB0E0041EB36
:1045A00011114FEA102E4EEA016E10EB0E0041EB96
:1045B00011214FEA104E4EEA014E10EB0E0041EB76
:1045C0001141401841F100014FEAD00040EA41702A
:1045D0004FEAD10110EB80054FEA810444EA907460
:1045E00044EB01046D1944EB0404521BA3414FF04A
:1045F000000348BF0A3200D530BD401C41F1000124
:1046000030BD70472DE9FF4F0C461E464FF0FF3777
:104610008BB0D2E90001DDF860800A908A46C1F3D0
:104620000A5505B93D46002108464FF00000BAF191
:10463000000F00F4400005DA00EB80004FF4400169
:1046400001EA50004FEA9059B9F1010F00DDB94677
:104650000A9850EA4A000ED044F61050A5F2FF35F1
:1046600045432F14B8F1000F1ED07542291E1EDDE0
:10467000C9F100021CE0B8F1010F4FF0000001D0B9
:10468000302103E0F24305E02154401CB042FBDB43
:1046900030460022002121540B99C1F80880C1E95D
:1046A00000200FB0BDE8F08FBD1B6D1CDEE74A4651
:1046B00000DA694206A800F099FA06AB93E8070011
:1046C00003AB83E8070050460A9900F04BFB8DE8E6
:1046D0000700A0F500501F3800900398002D09DD59
:1046E00042F21F014A46084403A90390684600F0BD
:1046F000AAFD08E0A0F500504A461F3803A9039020
:10470000684600F0B4FD8DE807000004000C03D0FB
:104710004FF0FF30410800E01046B8F1000F03D021
:104720000022009215461EE0751E05D4FFF724FFF7
:10473000303262556D1EF9D5B3460122084302D0CE
:1047400000227F1C04E02078302801D100227F1E47
:10475000002A099786D01DE0112D07DAFFF70CFF1C
:10476000303262556D1C50EA0102F5D1084302D087
:104770000098C8B10EE00021681E05E0235C625C71
:1047800063542254401E491C8142F7DBAB46A81BF0
:10479000401E0990002004F80B000B98099AC0F8FD
:1047A0000880C0E9002B7CE711264FF0000859E78C
:1047B0002DE9F04F88460446D21D22F0070191B042
:1047C000D1E90001CDE90A0100F087FE02460B980D
:1047D000C00F01D02D2007E02068810701D52B20D4
:1047E00002E0202101EAC000032A099001D0072A33
:1047F00005DB03464146204600F0B8F90BE120787E
:10480000800601D5E06900E00620B8F1650F814619
:1048100006D0B8F1660F18D0B8F1670F70D131E04B
:104820000020B9F1110F009001DB112301E009F123
:1048300001030AAA01A90CA8FFF7E4FEDDE90C7048
:10484000002609F10105834647E001204B46009010
:104850004FF000470AAA01A90CA8FFF7D3FEDDE933
:104860000DB00C995D46002610B909F101000D1834
:10487000B9EB050003D4C0F1FF3609F10105A5EB42
:1048800009002BE0B9F1010F01DA4FF00109002016
:10489000B9F1110F0090484601DD112300E00346F5
:1048A0000AAA01A90CA8FFF7ADFEDDE90C704D4680
:1048B00000268346207800070AD4AB4500DA5D461F
:1048C00001A8012D04DD411911F8011C302907D080
:1048D0004F4502DA17F1040F04DA012082460FE097
:1048E0006D1EEEE7002F02DCED1B3E4403E0781C5A
:1048F000A84200DD7D1CB81B00F1010A4FF0004703
:104900002078000703D4AA4501DB4FF0FF3A0021CD
:10491000B7F1004F0DF143088DF8431024D0022069
:104920002B23002F01DA7F422D230A21021EA0F142
:10493000010000DC5FB197FBF1FC97FBF1F201FB9A
:104940001C7C17460CF1300C08F801CDEEE7A8F1FD
:10495000010003702188090501D5452100E065218A
:10496000A0F1010800F8011C09980FA9A1EB0807A4
:10497000FF1D00B10120411901EBEA70A169384423
:10498000081A401EA0612078C00602D42046FFF716
:10499000E5F9099828B1D4E901219047206A401C23
:1049A00020622078C00622D52046FFF7D7F91EE006
:1049B000002E04DBB34502DD01A8805D00E030205D
:1049C000D4E901219047206A401C2062761CAAF19C
:1049D00001005FEA000A0AD100F0C4F8C06801686B
:1049E000405CD4E901219047206A401C2062281EC7
:1049F000A5F10105DCDC07E0D4E9012118F8010B81
:104A00009047206A401C2062381EA7F10107F3DCA2
:104A10002046FFF7B9F9032011B043E610B543690A
:104A200013B1AFF3008001E0FFF77CFB012010BD64
:104A3000127800F124010A7000224A700122EDE789
:104A400011684FF0FF32E9E710B5436913B1AFF3D6
:104A5000008001E0FFF768FC012010BD128800F122
:104A6000240182840022C2840122EDE711684FF004
:104A7000FF32E9E7007B00F08000704770B5164612
:104A80000C46054600F066F8036893F8010101281A
:104A900006D0FF2C0FD8185D68B101202C7070BDB6
:104AA000D3F807013246214603F207130344284690
:104AB000BDE8704018474FF0FF3070BD4FF0000266
:104AC00000B5134694469646203922BFA0E80C5004
:104AD000A0E80C50B1F12001BFF4F7AF090728BFDF
:104AE000A0E80C5048BF0CC05DF804EB890028BF5B
:104AF00040F8042B08BF704748BF20F8022B11F084
:104B0000804F18BF00F8012B7047754600F0E6F89B
:104B1000AE4605006946534620F00700854618B0AA
:104B200020B5FCF709FBBDE820404FF000064FF030
:104B300000074FF000084FF0000B21F00701AC46D2
:104B4000ACE8C009ACE8C009ACE8C009ACE8C009F1
:104B50008D46704710B500F005F8001D10BD00BF70
:104B6000DD09000000487047C00200202DE9F04137
:104B70001F46044603260168072A01F4006004DB8F
:104B800008B116A505E016A503E008B115A500E0DB
:104B900015A521F010002060A069C01EA0610FB112
:104BA000401EA0612046FFF7D9F84FB1D4E901219A
:104BB00038469047206A401C2062C01C206206E0F4
:104BC000206AFAE7D4E9012115F8010B9047761E17
:104BD000F8D22046FFF7D8F8BDE8F0814E414E00EC
:104BE0006E616E00494E4600696E66002DE9F04721
:104BF000814616468AB0334878440DC88DE80D00CA
:104C000030487844801C03AC0DC884E80D0041F6A0
:104C10009B300844372190FBF1F290FBF1F5A5F1B0
:104C2000800501FB12041B3C02D56442012000E018
:104C30000020DFF890A080460027FA44AAF1BE0ABF
:104C40000DE0E00709D03246684607EB47010AEB62
:104C5000810100F00CFB8DE8070064107F1C002C24
:104C6000EFD1184F7F44AC3F18E0E80714D007EBB2
:104C700004100DF1180A90E80E008AE80E00C068D2
:104C8000F04201D198190890324606A903A800F015
:104C9000EEFA03AB83E807006D10641C002DE4D12D
:104CA00032466946B8F1000F03A802D000F0CBFAF3
:104CB00001E000F0DCFAC9E90001C9F808200AB0F7
:104CC000BDE8F087A40A000010B50446AFF30080E9
:104CD0002046BDE81040FBF7A6BA00000048704728
:104CE000A00200204FF0013C50F8042B51F8043B87
:104CF0009A4221D1A2EB0C03934313EACC1317D1B0
:104D000050F8042B51F8043B9A4215D1A2EB0C0346
:104D1000934313EACC130BD150F8042B51F8043B06
:104D20009A4209D1A2EB0C03934313EACC13DBD0D4
:104D30004FF00000704700BFD01A01BAB1FA81F1FC
:104D400001F0180122FA01F0CB40C1F12001DBB2E1
:104D5000C0B2C01A2CFA01F3D11A914311EAC3115F
:104D6000E6D170475FEA400C08BF91F0000F4FEAB0
:104D70008C234FEAC12243EA51514FEA1C5018BF1D
:104D800000F5F0404FEA300018BF41F000415FEA03
:104D90006C5C00F02980BCF1FF3F08BF40F0804010
:104DA0007047130C06BF12044FF0100C4FF0000CAC
:104DB000130E04BF12020CF1080C130F04BF1201F2
:104DC0000CF1040C930F04BF92000CF1020CD30FF2
:104DD00004BF52000CF1010C11464FF00002A0F18B
:104DE0001F00A0EB0C00704711F0004F08BF704788
:104DF00031F000413FF4D5AF0B0C06BF09044FF072
:104E0000100C4FF0000C0B0E04BF09020CF1080C43
:104E10000B0F04BF09010CF1040C8B0F04BF8900B8
:104E20000CF1020CCB0F04BF49000CF1010CCCF1CA
:104E30002003A0EB0C0022FA03F302FA0CF241EA81
:104E4000030100F10100704720F07F4C80EA03006D
:104E500023F07F47ACEB070303F57C5300F00040E1
:104E600003F1FF032DE980494FEA154B09B44FEADE
:104E7000144325EA0B4E24EA03480FF2042606EBFE
:104E8000132749083E785FEA320203FB0667C7F53D
:104E9000000707FB06F64FEA54374FEAD64606F1FD
:104EA000020607FB066CCCF1005C4FEA1C472CEABB
:104EB000074C07FB06F40CFB06F504EB15464FEA1E
:104EC000961634BF00204FF000404FEAD13706FB62
:104ED00007FC4FEA1C4C0CFB0BF7D21B03FB0CF737
:104EE00061EB07010CFB0EF7B0EB074072EB1742CA
:104EF0000CFB08F734BFA2EB0742B2EB074261EBB1
:104F000017414FEA0C444FEA910706FB07FC4FEAB2
:104F10001C4C0CFB0BF7B0EBC74072EB573203FB9A
:104F20000CF734BFA2EBC742B2EBC74261EB57317B
:104F30000CFB0EF7B0EBC70072EB57720CFB08F7D7
:104F400034BFA2EBC702B2EBC70261EB5771039FFC
:104F50004FEA816141EA921104EBCC044FEAD13768
:104F60004FEA826206FB07FC42EA90124FEA806039
:104F70004FEA1C4C0CFB0BF7D21B03FB0CF761EB4D
:104F800007010CFB0EF7B0EB074072EB17420CFB6E
:104F900008F734BFA2EB0742B2EB074261EB1741BF
:104FA0004FEA8C554FEA910704EB9C2406FB07FC63
:104FB0004FEA1C4C0CFB0BF7B0EBC74072EB5732BF
:104FC00003FB0CF734BFA2EBC742B2EBC74261EB65
:104FD00057310CFB0EF7B0EBC70072EB57720CFBAE
:104FE00008F734BFA2EBC702B2EBC70261EB5771FF
:104FF00015EB4C254FEA816141EA92114FEA82623A
:105000004FEAD13742EA901206FB07FC44F1000454
:105010004FEA80604FEA1C4C0CFB0BF7D21B03FBE2
:105020000CF761EB07010CFB0EF7B0EB074072EBDE
:1050300017420CFB08F734BFA2EB0742B2EB074262
:1050400061EB174115EB1C154FEA813141EA9241A2
:105050004FEA823242EA90424FEA80304FEA0C76C1
:1050600044F1000448EA03434EEA0B484FF0000EB7
:10507000B2EB080C71EB030724BF624639464EEBD6
:105080000E0E4FF0000B0018524149414BEB0B0B39
:10509000B2EB080C71EB03077BF1000B24BF6246F7
:1050A00039464EEB0E0E4FF0000B001852414941AD
:1050B0004BEB0B0BB2EB080C71EB03077BF1000B16
:1050C00024BF624639464EEB0E0E51EA020718BF66
:1050D00046F0010616EB0E7655F1000254F1000180
:1050E00003D5BDE88901BDE80088BDE88901BDE8B8
:1050F0000048B619524141EB0101A3F10103704789
:1051000080807F7E7D7C7B7A797877767675747304
:10511000727171706F6E6E6D6C6C6B6A6A696868C3
:10512000676666656464636362616160605F5F5E59
:105130005E5D5D5C5C5B5B5A5A59595858575756CF
:105140005655555554545353525252515150505034
:105150004F4F4F4E4E4D4D4D4C4C4C4B4B4B4A4A86
:105160004A494949484848474747474646464545CA
:105170004544444444434343434242424241414103
:10518000002B26D4770021D01CB54FEA370703B493
:105190004FF010004FF010014FF000000FBCBDE8C1
:1051A00010400BF1010BBBF1010F08BF5FEA1707BD
:1051B00022BF12F1010211F101014FF0004143F150
:1051C000000300F0004043EA00007047F9D357089D
:1051D000DAE746EA064613F1400F4FEA16461FDDAE
:1051E00013F1200FDFBF16430A46002120335B4234
:1051F000C8D0C3F1200746EA064602FA07F74FEA8D
:10520000164646EA0706C3F1200722FA03F201FA1E
:1052100007F721FA03F14FF0000342EA0702B1E772
:1052200046EA020646EA06464FEA164646EA0106FE
:10523000BCBF46EA0646360C4FF000034FF00002B2
:105240004FF000019EE72DE9C048934630B491E845
:10525000380007C831EA400C48BF34EA430C03D594
:10526000FFF7F2FDFFF78CFFF0BCBDE800882DE9E9
:10527000C048934630B491E8380007C810F0804F1A
:1052800008BF13F0804F03D100F005F8FFF778FF57
:10529000F0BCBDE8008820F07F4780EA030023F0DF
:1052A0007F4C07EB0C03A3F57C5300F00040A3F107
:1052B000FE0392F0000F00F0B38095F0000F00F0B5
:1052C00077802DE901494FEA11404FEA144621EA5F
:1052D000004800FB06FC24EA064708FB06F607FB2D
:1052E00008F800FB07F718EB06484CEB164C4FEAA2
:1052F000124B18EB07484FEA15464CEB174022EAD1
:105300000B4E0BFB06FC25EA06470EFB06F607FBD9
:105310000EFE0BFB07F71EEB064E4CEB164C4FF048
:1053200000061EEB074E4CEB174B18EB0B0840F139
:10533000000018EB0E0B58EB000840F100008F1A2C
:105340004FF000013CBFC943661B14BFB5EB040C12
:1053500000213CBFC943F61B4FEA17444EEA8E0EAC
:1053600027EA04454FEA1C4704FB07622CEA074C76
:1053700005FB07F70CFB05F604FB0CFC16EB0746D8
:1053800042EB174216EB0C4642EB1C421BEB0606A7
:1053900058EB0202414146EA9E0601D5BDE801896B
:1053A000B619524141EB0101A3F10103BDE80189A6
:1053B0004FEA14454FEA114724EA054621EA074C13
:1053C00005FB07F406FB07F70CFB06F105FB0CFCDD
:1053D00011EB074144EB17444FEA124711EB0C4124
:1053E00044EB1C4422EA074C05FB07F206FB07F7D7
:1053F0000CFB06F605FB0CFC16EB074642EB1742CE
:1054000016EB0C4642EB1C456A1854F1000148BFEC
:105410007047B619524141EB0101A3F101037047F6
:1054200095F0000F37D04FEA11424FEA144721EAB6
:10543000024624EA074C02FB07F106FB07F70CFBC8
:1054400006F402FB0CFC14EB074441EB17414FEA56
:10545000154714EB0C4441EB1C4125EA074C02FBB9
:1054600007F506FB07F70CFB06F602FB0CFC16EB38
:10547000074645EB174516EB0C4645EB1C42121947
:1054800051F1000148BF7047B619524141EB01018B
:10549000A3F1010370474FEA14454FEA114724EA8C
:1054A000054621EA074C05FB07F106FB07F70CFB55
:1054B00006F24FF0000605FB0CFC12EB074241EB35
:1054C000174112EB0C4251EB1C4148BF7047921838
:1054D00041EB0101A3F101037047490050EAC120EB
:1054E00018BF04204A0D18BF40F0010040F2FF72BF
:1054F000B2EB515F08BF40F00200012808BF052051
:10550000704730380A2801D20120704700207047C8
:1055100010B500290AD00878002807D0054878443B
:10552000FFF7E0FB002801D0002010BD02487844BE
:1055300010BD0000BA010000B201000010B5002942
:105540000AD00878002807D005487844FFF7CAFB3E
:10555000002801D0002010BD0248784410BD000092
:10556000AA010000A2010000FFF722B97003A60003
:105570007003A6007003A600000000001003A60040
:105580000B02A6001003A60000000000FFFFFFFFB3
:10559000FFFF020001080006323031383036FFFFCD
:1055A000FFFFFFFF0200010800060000A0005FB13E
:1055B00000000000000000000000000000000000EB
:1055C00000DC4420B808040046592558491023023D
:1055D0000000736D6172746C6F636B2076312E30D6
:1055E00000003031323334353637383941424344A4
:1055F000454640305800303132333435363738394B
:105600006162636465664030780004000008000051
:105610000000000000020001000010000000000077
:105620000000000002400000000000A00000000098
:1056300005400000000000C8000000000C40000011
:105640000000409C00000000194000000020BCBE8B
:105650000000000034400000BFC91B8E00000004A1
:10566000B5400000504BCFD06607E2CF01000000EC
:105670006C4100003E8251AADFEEA7340100000019
:10568000D9420000DCB5A0E23A301F97FFFFFFFFD0
:10569000B4450000FD25A0C8E9A3C14FFFFFFFFFEF
:1056A000FF3F00000000008000000000FF3F0000FE
:1056B00000000080000000000458000800000020E6
:1056C0005C00000028010008605800085C00002011
:1056D000A4080000440100081C0000004300000072
:1056E000F8FFFFFF0C0000000E0000000F0000009C
:1056F0002E0000001001000043000000F8FFFFFF33
:1057000000404040404040404040414141414140D4
:105710004040404040404040404040404040404089
:105720004005020202020202020202020202020218
:10573000022020202020202020202002020202021D
:105740000202909090909090101010101010101075
:105750001010101010101010101010100202020281
:1057600002028888888888880808080808080808C5
:1057700008080808080808080808080802020202C1
:1057800040000000000000000000000000000000D9
:105790000000000000000000000000000000000009
:1057A00000000000000000000000000000000000F9
:1057B00000000000000000000000000000000000E9
:1057C00000000000000000000000000000000000D9
:1057D00000000000000000000000000000000000C9
:1057E00000000000000000000000000000000000B9
:1057F00000000000000000000000000000000000A9
:105800000000000000A24A040000000000000000A8
:105810000102030406070809000000000000000060
:105820000000000000000000000000005200000026
:105830000000000000000000000000000204060854
:105840000000000001020304010203040607080926
:10585000FFFFFFFFFFFFFF078069FFFFFFFFFFFF65
:04000005080000ED02
:00000001FF
