:020000040800F2
:10000000000D0020151200086102000863020008BC
:10001000650200086702000869020008000000008D
:100020000000000000000000000000006B0200085B
:100030006D020008000000006F0200087102000855
:100040002F1200082F1200082F1200082F1200088C
:100050002F1200082F1200082F1200082F1200087C
:100060002F1200082F1200082F1200082F1200086C
:100070002F1200082F1200082F1200082F1200085C
:100080002F1200082F1200082F1200082F1200084C
:100090002F1200082F1200082F1200082F1200083C
:1000A0002F1200082F1200082F1200082F1200082C
:1000B0002F1200082F1200089D0D00082F120008B3
:1000C0002F1200082F1200082F1200082F1200080C
:1000D0002F120008DD100008D30A0008BB0E00082C
:1000E0002F1200082F1200082F12000800F002F84B
:1000F00000F090F80AA090E8000C82448344AAF132
:100100000107DA4501D100F085F8AFF2090EBAE82F
:100110000F0013F0010F18BFFB1A43F0010318473B
:10012000CC500000EC500000103A24BF78C878C1D1
:10013000FAD8520724BF30C830C144BF04680C60ED
:10014000704700000023002400250026103A28BF35
:1001500078C1FBD8520728BF30C148BF0B60704739
:100160006E2903F0F085702903F0D583662904F029
:100170009B87652904F09887672904F09587612992
:10018000AFF3008003681B0A28BF41F08001692992
:1001900003F04683642903F04383752903F0408309
:1001A0006F2903F0E986782903F0A183E92903F098
:1001B0008386E42903F08086F52903F07D86EF2904
:1001C00003F0E686F82903F0A0830368DB0928BF63
:1001D00041F08001632903F0F285732903F0F7856C
:1001E000E32904F0B181F32904F0B68100207047BF
:1001F0001FB504F04DFA04000020002104F028FF90
:10020000401C60600020002104F038FFE0601FBD4A
:1002100010B510BD04F017FA1146FFF7E9FF00F022
:1002200008F804F0F5FA03B4FFF7F2FF03BC00F09E
:10023000D5FE00F093FE00F0CDFE4FF4165000F016
:10024000B3FF4FF4E13000F0BBFC03F0F1F9002004
:1002500000F0A1FE00F0FEFB03F099F9FAE70000C0
:100260007047FEE7FEE7FEE7FEE77047704770471E
:1002700010B500F09FFE0D480168491C01600C4953
:10028000086800281CBF401E08600A49086800284A
:100290001CBF401E08600849086800281CBF401C9D
:1002A0000860BDE8104000F0D3BA00001400002040
:1002B00020000020240000201C0000204D4882B0B7
:1002C000016841F00101016042684B491140416001
:1002D000016821F4102121F080710160016821F48E
:1002E00080210160416821F4FE0141604FF41F014B
:1002F0008160002200920192016841F48031016026
:10030000016801F4003101910099491C00910199A3
:1003100019B90099B1F5A06FF2D1016811F4003F4D
:1003200008BF019233D00121019134490A6842F09B
:1003300010020A600A6822F003020A600A6842F0AA
:1003400002020A604168416041684160416841F4CD
:1003500080614160416821F47C114160416841F451
:10036000E8114160016841F080710160016811F09D
:10037000007FFBD0416821F003014160416841F0FA
:1003800002014160416801F00C010829FAD11C49C1
:100390004FF00060086002B07047164B5868194A69
:1003A000194910F00C0018BF042801D0082801D00A
:1003B0000A6015E058685A6800F470104FF0020C9B
:1003C00012F4803F0CEB904003D05A6812F4003FC7
:1003D00003D00E4A5043086002E00A4A50430860C6
:1003E00058680B4AC0F30310105C0A6822FA00F048
:1003F00008607047001002400000FFF80020024033
:1004000008ED00E000127A000000002000093D0025
:100410000400002003004FF0000012BF002900205C
:1004200070470122891E0129D8BF704713F802C006
:10043000521C604492B2C0B29142F7DC7047FA4954
:100440000A68091D0968F94B1B6802704FEA122CF3
:1004500080F801C04FEA124C80F802C0120EC27040
:1004600001710A0A42710A0C8271090EC17103728C
:10047000190A4172190C8172190EC17270477820E5
:1004800012280CBF0120002070477821122918BFC4
:1004900000BA70477821122918BF00BA7047782136
:1004A000122918BF40BA70477821122918BF40BAE4
:1004B0007047F0B5054690F8250089B001281CBFAB
:1004C00009B0F0BD2F8C0024009401940294039491
:1004D0000494059406943A4629466846079403F026
:1004E00053FB9DF80000682848D10DEB070616F86D
:1004F000010C992842D139466846FFF78BFF16F860
:10050000021C88423AD19DF80410C94A512907D0EB
:10051000012353290BD054291CD0552924D02DE078
:100520009DF80300C0EBC00102F8210026E09DF811
:10053000050018B39DF80300C0EBC00002EB80007B
:100540008178D9B98370DDF80610DDF80A20816062
:10055000C26013E09DF803009DF80510C0EBC000D9
:1005600002EB8000C17009E09DF8050030B19DF8F4
:100570000300C0EBC00002EB8000E3E785F82540F4
:1005800009B0F0BD10B40022DFF8A4C2FF2810D0DB
:10059000C0EBC003624602EB8302012914D002299A
:1005A0001DD003291CBF10BC7047547894B910BCEF
:1005B0007047C2EBC2000CEB80004170501CC2B20D
:1005C0001F2AF6D910BC70475478002C1EBF032C8C
:1005D00010BC70470CF82300517010BC7047547861
:1005E000012C18BF032CF5D010BC7047002908BFA0
:1005F00070470121C0EBC0038D4800EB8300817080
:10060000116881605168C1607047894AC0EBC000C1
:1006100002EB8000C1707047854BC0EBC00003EB5C
:100620008000002904BF817070478178002904BFD1
:1006300001218170116881605168C16070472DE9A6
:10064000F04780467C4FC8207A4D0026386095F8E8
:100650002500012808D0012000F09DFC3868002802
:10066000F5D10120BDE8F087B5F8209029464A462B
:10067000404603F089FA85F8256098F8000068285C
:10068000ECD108EB090111F8010C9928E6D15FEAD9
:1006900008004FF0000414BFB9F1000F34460DD02C
:1006A0000123A9F10202012A08DD10F803C05B1C36
:1006B000A4449BB20CF0FF049A42F6DC11F8020C41
:1006C0008442CBD10020BDE8F0872DE9F04F002710
:1006D00089B00124009701970297DFF860818A466C
:1006E000054603970497059706973E46A1464FF4A3
:1006F000FA6B079700225146284600F022FD287920
:10070000512808BFC8F800B00BD06846FFF797FF24
:100710000446022E02BF012CA87803214BD004B35B
:1007200019E06846FFF78BFF50B99DF8040029795E
:10073000884205D19DF803000121FFF723FF002423
:10074000D8F800000028ECD1022E02BF012CA878B6
:10075000002130D02CB3701CC6B2032ECAD334BBD8
:100760001FE09DF80400297988421AD19DF8030002
:10077000A978884215D1532820D0542837D055283D
:1007800018BF0124E7D19DF8050050B1284901F6B2
:100790004C1081F84E99DDF806108160DDF80A10E2
:1007A000C160A878FF281CBF0221FFF7EBFE20469E
:1007B00009B0BDE8F08FFFF7E5FECCE79DF8050036
:1007C00000281B4808BF80F81679EAD090F816096F
:1007D000002804BF164880F816991548DDF8061061
:1007E000C0F81C19DDF80A10C0F82019D9E7104923
:1007F0009DF8050081F83309D3E7114A11481168C3
:10080000006821B1104B411A994238BF704710B5AA
:1008100010600E4C20466178FFF7FCFD6071617836
:100820002046BDE8104050E7E8F7FF1FF0F7FF1F34
:10083000980000201806002024000020200000203E
:100840002800002014000020E09304003000002065
:100850008D4B0020C0EBC00103EB81014A68002AE8
:100860001CBF521C4A60401CC0B21F28F2D97047FE
:100870002DE9F05F0024844F844E41F288384FF018
:1008800004092546C4EBC40007EB800A9AF801006E
:10089000002851D09AF80310FF2902D001282CD04B
:1008A0004AE0DAF80400404546D3B4707178774BDB
:1008B0000020002908BF28460DD00122A1F1020C1A
:1008C000BCF1010F07DD13F802B0521C584492B27C
:1008D000C0B29445F7DC70716C48FFF7F6FE002853
:1008E00007BF9AF80200002803208AF8030008BF17
:1008F0008AF80390CAF804501EE0B4707178634B14
:100900000020002908BF28460DD00122A1F1020CC9
:10091000BCF1010F07DD13F802A0521C504492B243
:10092000C0B29445F7DC70715848FFF7CEFE18B995
:1009300002212046FFF726FE601CC4B21F2CA1D95D
:10094000BDE8F09F70B5504BC0EBC00203EB8204D2
:100950001F281AD8A078C0B104F10800082203F0BB
:10096000C8F890B94A48A1684A4DC0F82210E16819
:10097000C0F826109920A87369782846FFF74AFD29
:10098000687369782846FFF7A0FEE078FF2819BF52
:10099000012060600320E07070BD2DE9F0413C4A09
:1009A0003D4800245168006800291CBF411AB1F578
:1009B000FA6F38BFBDE8F081334E384D00275060E4
:1009C000C4EBC40006EB80004078C8B1AC70697815
:1009D000324B0022002908BF3A460DD00120A1F178
:1009E000020CBCF1010F07DD13F80080401C4244EB
:1009F00080B2D2B28445F7DC6A712848FFF765FE01
:100A0000601CC4B21F2CDBD9BDE8F081244850E53E
:100A1000A0F1300109299CBFC8B27047A0F1410183
:100A2000052998BF373806D9A0F16101052992BF81
:100A3000573800207047C0B27047092898BF30303F
:100A400006D9A0F10A01052992BF3730302070473E
:100A5000C0B2704710B50E4A0F481168006819B14E
:100A6000104B411A99420AD30F4C1060204661780E
:100A7000FFF7D0FC607161782046FFF726FEFFF794
:100A8000F7FEBDE8104088E79800002037000020FE
:100A90002800002045000020140000203E00002017
:100AA00018060020E093040030000020010010B57B
:100AB000CE484FF0000108D0044601F079FE2046F0
:100AC000BDE81040012101F05ABCBDE8104001F022
:100AD00056BC70B5C64C40F22551204600F0FEFFD2
:100AE000002808BF70BD204600F097FFC14DC4B27A
:100AF0002888B0F5807F28BF40F4004012D2BB4E5A
:100B00000021304601F054FE298839B900213046D1
:100B100001F04EFE0121304601F031FCB649288833
:100B20000C54401C288070BD30B50D46044685B07D
:100B30000121042000F00FFEADF804400020ADF8C4
:100B40000050AA4CADF80600ADF8020069462046F8
:100B500001F041F901221146204601F024FC1E203B
:100B60008DF80C0001208DF80D0002218DF80E107B
:100B70008DF80F0003A800F0E2FF05B030BD70B59E
:100B80000C46064601218CB01546084600F0D1FD02
:100B9000304601F085FE00211020CDE902018020C1
:100BA000CDE904104001CDE9081006910A910791A2
:100BB00069463046CDE9004501F0D9FE0CB070BD64
:100BC0002DE9F043044691B00121042000F0BAFD64
:100BD0000121480400F0BFFD854F384600F002FEB9
:100BE0000425ADF82C5003268DF82E601820DFF870
:100BF0000C828DF82F000BA9404600F096FB0820D0
:100C0000ADF82C008DF82F500BA9404600F08DFB5D
:100C10000C940024ADF838400C20ADF83440ADF809
:100C20003A00ADF83640ADF83C400CA9384600F02B
:100C300023FE01228021384600F0B9FE0121DFF8B1
:100C4000C09107F104086F4D084600F072FD484658
:100C500001F026FE1020CDE902048020CDE90440F9
:100C600040010694CDE908400A94CDE90085079437
:100C70006946484601F07BFE0121384600F076FEC9
:100C8000012240F22551384600F079FE26208DF8E9
:100C9000400002278DF841708DF842604FF0010846
:100CA0008DF8438010A800F04AFF632641F61F45E7
:100CB0000121042000F04FFDADF800504B4DADF880
:100CC0000460ADF80640ADF802406946284601F0E0
:100CD00082F801221146284601F065FB1E208DF89E
:100CE0000C008DF80D808DF80E708DF80F8003A824
:100CF00000F025FF3F4800210480284601F03FFB1B
:100D000011B0BDE8F08370B50C460546002101F036
:100D100064FE2146284601F072FE2846BDE8704078
:100D2000012101F05ABE0FB4364870B505AA0499E6
:100D300002F0F2FC3448D0F884100029FBD1304D89
:100D4000304802F002FF84B20021284601F045FE3F
:100D50002146284601F053FE0121284601F03DFEC0
:100D600070BC5DF814FB70B50C460A460146254878
:100D700002F00AFF224D284601F043FE0028FAD176
:100D80000021284601F029FE2146284601F037FEC1
:100D90002846BDE87040012101F01FBE10B5134C7C
:100DA0000121204601F030FD002808BF10BD0121BF
:100DB000204601F034FD0F4920460A8842F40042E3
:100DC0000A80BDE81040002101F0D9BA10B50446F0
:100DD0000021064801F0ECFC0C49088800220A803A
:100DE0000A8842EA0400088010BD000000080040A4
:100DF0000044004054000020180500200008014075
:100E00008000024018040020000002402C0800402E
:100E1000F0B5044687B00121092000F093FC0121C0
:100E2000880400F098FC4A4E304600F0DBFC301598
:100E3000ADF8000003258DF802501820454F8DF8BD
:100E400003006946384600F070FAF014ADF800006F
:100E500004208DF803006946384600F066FA022047
:100E6000ADF8000010208DF803008DF8025069469F
:100E7000394800F05AFA27208DF8040000208DF838
:100E8000050001208DF806008DF8070001A800F08C
:100E900056FE02A800F047FD02A93046029400F079
:100EA000EBFC012240F22551304600F068FD0121A3
:100EB000304600F05BFD07B0F0BD70B5244D402119
:100EC000284600F008FE40F22551284600F006FEB4
:100ED000002808BF70BD284600F09FFDC4B2012065
:100EE00000F059F82146284600F093FD802128465D
:100EF00000F0EAFD0028F9D0BDE87040022000F0C3
:100F00004AB810B5124C0146204600F082FD8021FF
:100F1000204600F0D9FD0028F9D010BD2DE9F041A0
:100F20000D46064600240A4F0AE0384600F071FDDF
:100F30008021384600F0C8FD0028F9D0601C84B23A
:100F4000315D002918BFAC42EFD3BDE8F08100004D
:100F50000048004000080140000C01401A484FF4CE
:100F60007A710068B0FBF1F0B0F1807F12D220F00E
:100F70007F40411E4FF0E0204161144AF02182F889
:100F8000141D0021816107210161016921F0010126
:100F900001617047FEE701B40D48009901604FF010
:100FA000E0210A6942F001020A6101680029FCD1CE
:100FB00001B0704706480168002908BF7047016802
:100FC000491E016070470000000000200FE000E0B3
:100FD000580000204FF4A06000F0AABD7047864979
:100FE0000A8812F0400FFBD0844AC1B211807047CA
:100FF00090F82420082A28BF7047DFE802F0150483
:101000000A0F11111113CA1F0C2A0DD8018400F008
:10101000CFB87B4A1278914202D005E01F2903D84D
:1010200000F0C6B8992901D000F0DAB8428C81549A
:101030000021418480F82410012180F82510704798
:10104000F0B5054687B0012144F2040000F07AFBB8
:10105000694E304600F0C6FB7015ADF81000032451
:101060008DF812401820674F8DF8130004A93846F8
:1010700000F05BF93015ADF8100004208DF8130076
:1010800004A9384600F051F925208DF814008DF898
:1010900015408DF8164001208DF8170005A800F0C6
:1010A0004EFD0020ADF80400ADF80600ADF80800D4
:1010B000ADF80C000C20ADF80A00009569463046EA
:1010C00000F0DAFB012240F22551304600F057FCD7
:1010D0000121304600F04AFC07B0F0BD10B54A4887
:1010E0004A4A00681168814206D2411A642903D332
:1010F000474B002183F824103F4C106040F22551EB
:10110000204600F0EBFC002808BF10BD204600F090
:1011100084FCC1B23E48FFF76BFF2046BDE810409B
:1011200040F2255100F0FBBC10B5334C014620467F
:1011300000F06FFC8021204600F0C6FC0028F9D0AA
:1011400010BD70B505460E461046FFF724FF701E11
:1011500084B22CBF284E70BD15F8011B304600F03C
:1011600058FC8021304600F0AFFC0028F9D0611E09
:101170008CB2F1D270BD2DE9F0410D460646002437
:101180001D4F0AE0384600F044FC8021384600F04C
:101190009BFC0028F9D0601C84B2315D002918BF87
:1011A000AC42EFD3BDE8F081154AF021117047E75A
:1011B000428C815490F82210491C01F01F02428495
:1011C00090F82410052918BF491C02D080F824107B
:1011D0007047911C028C914208BF0621F6D07047DF
:1011E000002268291EBF428480F82420704780F8BE
:1011F00025204284DCE7000000380140043801402B
:101200005C000020000801401400002018000020AD
:10121000180600200948804709480047FEE7FEE716
:10122000FEE7FEE7FEE7FEE7FEE7FEE7FEE7FEE796
:1012300004480549054A064B70470000BD020008F6
:10124000ED00000800070020000D0020000900202C
:101250000009002010B5A0F18041B1F584311DD006
:10126000B1F5806124D0B1F580612BD0B1F58061FA
:1012700032D0B1F5806139D0B1F5806140D0B1F59F
:10128000806118BF10BD0121080200F06DFABDE8B1
:10129000104000214FF4807000F066BA0121042054
:1012A00000F062FA0021BDE81040042000F05CBAB2
:1012B0000121082000F058FA0021BDE81040082064
:1012C00000F052BA0121102000F04EFA0021BDE8D2
:1012D0001040102000F048BA0121202000F044FA0C
:1012E0000021BDE81040202000F03EBA012140203E
:1012F00000F03AFA0021BDE81040402000F034BA76
:101300000121802000F030FA0021BDE8104080204B
:1013100000F02ABA10B50121084600F025FA002194
:10132000BDE81040012000F01FBA2DE9F00191F84E
:1013300003C000220CF00F031CF0100F1CBF91F82B
:1013400002C04CEA030391F800C04FF00F071CF0F5
:10135000FF0F4FF0010618BF04681CD00D8806FA75
:1013600002FC05EA0C05654511D1950007FA05F860
:1013700024EA080403FA05F52C43CD78282D08BF8C
:10138000C0F814C003D0482D08BFC0F810C0521CCC
:10139000082AE3D304600A88FF2A87BF4468002232
:1013A000BDE8F001704702F1080C0D8806FA0CFC4C
:1013B00005EA0C05654511D1950007FA05F824EA00
:1013C000080403FA05F52C43CD78282D08BFC0F892
:1013D00014C0CD78482D08BFC0F810C0521C082A90
:1013E000E1D34460BDE8F00170474FF6FF71018022
:1013F000022181700421C17070470246002092686A
:101400000A4218BF01207047806880B270470246C8
:101410000020D2680A4218BF01207047C06880B21D
:1014200070470161704741617047002A14BF016134
:1014300041617047C160704741F4803282618161CF
:1014400082618169806970472E4B1A684FF6807CF3
:1014500002EA0C0242EA00100843186070472A4969
:10146000C861704770B4DFF89CC010F0004F14BF23
:10147000DCF81C20DCF80420C0F303444FF44013D4
:1014800033EA00054FEA50534FEA031386B206FAD7
:1014900003F316D010F4801F08BF9A4303D003252E
:1014A00005FA04F4A24342F07062002918BF1A43FF
:1014B00010F0004F14BFCCF81C20CCF8042070BCF6
:1014C0007047DCF8044022F0706224F07064CCF8BD
:1014D0000440EAE78A0721F0030101F1804101F5A8
:1014E0008031120F0F23D1F808C093402CEA030378
:1014F0008B608B6890401843886070470249C1F840
:10150000DC0070470000014000002042AC48016848
:1015100041F0010101604168AA4A1140416001683F
:1015200021F4102121F080710160016821F48021F3
:101530000160416821F4FE0141604FF41F018160A8
:1015400070479F490A6822F480320A600A6822F4D0
:1015500080220A60B0F5803F04BF086840F4803004
:1015600006D0B0F5802F06BF086840F4A020704771
:101570000860704700224109914B012908BF196892
:1015800003D002290CBF196A596A00F01F00012319
:1015900003FA00F0084218BF01221046704708B550
:1015A0000020874A00900020116811F4003F18BF06
:1015B00001200099491C0091B1F5A06F01D00028CD
:1015C000F1D03120FFF7D6FF002818BF012008BD59
:1015D0007B4A116821F0F80141EAC00010607047B1
:1015E000794908607047764B5A68084322F47C12A8
:1015F000104358607047744908667047704A5168D4
:1016000021F003010843506070476D48406800F0C6
:101610000C0070476A4A516821F0F001084350609D
:101620007047674A516821F4E06108435060704791
:10163000634A516821F4605141EAC000506070472C
:101640005F4A0029517A14BF084321EA0000507212
:1016500070475D49C1F8D8007047594A516821F474
:1016600040410843506070475549002281F82020CE
:1016700081F82020012803D004280CBF05207047E2
:1016800081F8200070475149086070474C490A6A48
:101690001043086270474E4908607047484A10B4CA
:1016A00051684C4B11F00C0118BF042901D00829D6
:1016B00001D0036015E05168536801F470114FF0D8
:1016C000020C13F4803F0CEB914103D0536813F4E8
:1016D000003F03D0404B5943016002E03D4B59436A
:1016E000016051680F23DFF8F4C003EA11111CF800
:1016F0000110036823FA01F141605368072404EAEA
:1017000013231CF8033021FA03F38360536804EABF
:10171000D3231CF80330D940C1605268032303EA85
:101720009232ACF104039A5CB1FBF2F1016110BC9E
:101730007047234A0029516914BF084321EA000079
:10174000506170471E4A0029916914BF084321EA7D
:101750000000906170471A4A0029D16914BF0843FC
:1017600021EA0000D0617047154A0029D16814BFF2
:10177000084321EA0000D0607047114A002911692E
:1017800014BF084321EA0000106170471449086043
:1017900070470D49C86470470949C87170470848C7
:1017A000416A41F0807141627047054A014600205C
:1017B00092680A4218BF0120704701498872704739
:1017C000001002400000FFF8000042428004424244
:1017D0003C04424200127A0000093D0068000020EB
:1017E0004004424210B5A0F18041B1F59C3117D0C0
:1017F00011F574411FD0B1F5806127D0B1F580613A
:101800002FD0B1F5806118BF10BD01210805FFF789
:10181000B4FFBDE8104000214FF48010FFF7ADBFCA
:1018200001218803FFF7A0FFBDE8104000214FF41D
:101830008040FFF799BF01214804FFF79EFFBDE8F4
:10184000104000214FF40030FFF797BF01218804BA
:10185000FFF793FFBDE8104000214FF48020FFF711
:101860008CBF0121C804FFF788FFBDE810400021AC
:101870004FF40020FFF781BF30B50446008A85B0E1
:101880000D464CF6FF710840E98808432082A08984
:101890004EF6F3110840A9882A8911436A8910433A
:1018A0000843A081A08A4FF6FF410840A989084358
:1018B000A0826846FFF7F2FEA4F18040B0F59C30AC
:1018C0000CBF03980298A18911F4004F00EBC001EE
:1018D00001EB0010296814BF49008900B0FBF1F04A
:1018E000924A6FF0180CA2FB0031490909010B095B
:1018F00003FB0CF300EB8300A38913F4004F4FF0BC
:10190000320314BF03EBC00003EB0010A2FB002066
:101910004FEA501014BF00F0070000F00F0008431A
:10192000208105B030BD4FF4165101600021818047
:10193000C18001810C22428181817047028A4FF26D
:10194000FF031A400B88B1F802C043EA0C03B1F858
:1019500004C0C9884CEA0101194311430182704750
:101960000021018041808180C180704700298189E8
:1019700014BF41F4005121F4005181817047C1F33B
:10198000421301F01F014FF0010C0CFA01F1012B81
:1019900008BF0C3003D0022B0CBF10301430002ACB
:1019A000026814BF114322EA010101607047002A56
:1019B000828A14BF114322EA010181827047028AA0
:1019C00022F00F020282028A11430182704782894B
:1019D00022F400628281828911438181704700294B
:1019E000818914BF41F0020121F002018181704719
:1019F000028A22F020020282028A11430182704789
:101A00000029018A14BF41F4804121F48041018200
:101A10007047C1F30801818070478088C0F30800D7
:101A20007047818941F0010181817047028BD2B2F8
:101A30000283028B42EA012101837047028B02F488
:101A40007F420283028B1143018370470029818A00
:101A500014BF41F0200121F020018182704700294C
:101A6000818A14BF41F0100121F01001818270477A
:101A70000029818A14BF41F0080121F00801818208
:101A800070470029818914BF41F40041C1F30E0160
:101A9000818170470029818A14BF41F4006121F4DB
:101AA000006181827047828A22F004028282828AE7
:101AB0001143818270470029818A14BF41F00201DD
:101AC00021F00201818270470246002012880A42FA
:101AD00018BF01207047C9430180704710B401F05E
:101AE0001F020124C1F3421304FA02F24FF0000C6A
:101AF000012B04BF83891A4004D0022B0CBF038A38
:101B0000838A1A40090A008804FA01F10840002A71
:101B10001CBF00284FF0010C604610BC7047090A3A
:101B2000012202FA01F1C943018070471F85EB5180
:101B30002D4940F0FD7040F080600860704710B49F
:101B4000C27801784FF00F0C01242AB3264A12689C
:101B500001F1E02102F4E062C2F5E062120AC2F192
:101B600004032CFA02F290F801C00CFA03F390F887
:101B700002C00CEA02021A43120181F80024007824
:101B800000F01F0104FA01F14009800000F1E0209B
:101B9000C0F8001110BC704701F01F0004FA00F0FB
:101BA0004909890001F1E021C1F8800110BC7047AA
:101BB00021F07F0121F0604108430C490860704723
:101BC0000B4A0029116814BF084321EA0000106085
:101BD00070474FF0E021042808690CBF40F0040072
:101BE00020F00400086170470CED00E008ED00E013
:101BF00010ED00E010B5A0F18041B1F596313BD079
:101C0000B0F1804F4DD011F5943140D0B1F58061E5
:101C100051D0B1F5806158D0B1F580615FD0B1F598
:101C2000806166D0B1F590316DD0B1F5C05175D0FD
:101C3000B1F580617DD0B1F580617DD011F59E3127
:101C40007BD0B1F5806179D0B1F5806177D0B1F505
:101C5000903175D0B1F5806173D0B1F5806118BF56
:101C600010BD01218804FFF77FFDBDE81040002171
:101C70004FF48020FFF778BD0121C802FFF774FD03
:101C8000BDE8104000214FF40060FFF76DBD012159
:101C90000220FFF772FD0021BDE810400220FFF78F
:101CA0006CBD01210846FFF768FD0021BDE810402A
:101CB0000120FFF762BD01210420FFF75EFD002136
:101CC000BDE810400420FFF758BD01210820FFF7B0
:101CD00054FD0021BDE810400820FFF74EBD012152
:101CE0001020FFF74AFD0021BDE810401020FFF74B
:101CF00044BD01212020FFF740FD0021BDE8104038
:101D00002020FFF73ABD01214803FFF72DFDBDE874
:101D1000104000214FF40050FFF726BD0121C804F8
:101D2000FFF722FDBDE8104000214FF40020FFF72F
:101D30001BBD0121080505E00DE017E020E029E0CA
:101D400033E03DE0FFF710FDBDE8104000214FF407
:101D50008010FFF709BD01214805FFF705FDBDE82B
:101D6000104000214FF40010FFF7FEBC012140207D
:101D7000FFF703FD0021BDE810404020FFF7FDBC48
:101D800001218020FFF7F9FC0021BDE810408020F0
:101D9000FFF7F3BC01210802FFF7EFFCBDE810409C
:101DA00000214FF48070FFF7E8BC01210804FFF721
:101DB000DBFCBDE8104000214FF48030FFF7D4BCBD
:101DC00001214804FFF7D0FCBDE8104000214FF48A
:101DD0000030FFF7C9BC10B40288DFF8F0C3FC4B39
:101DE000604518BF984211D0B0F1804F1CBFA0F1E0
:101DF0008044B4F5806409D0A0F18044B4F5006457
:101E00001CBFA0F18044B4F5406403D14C8822F09B
:101E100070022243A0F18044B4F580541CBFA0F1AD
:101E20008044B4F5A05403D0CC8822F440722243FD
:101E300002808A8882850A880285604518BF984298
:101E40000DD0A0F18042B2F5A0321FBFA0F18042B8
:101E5000B2F5A232A0F18042B2F5A43201D1097AE2
:101E600001860121818210BC704710B4028C22F0DF
:101E700001020284028C8388B0F818C00C882CF010
:101E8000730C44EA0C0C0C8922F0020222434C88A9
:101E90002243A0F18044B4F596341CBFA0F18044E5
:101EA000B4F59A340DD0A0F18044B4F5A0341FBF2E
:101EB000A0F18044B4F5A234A0F18044B4F5A43478
:101EC0000DD14C8922F0080222438C8822F00402B2
:101ED00022438C8923F440732343CC89234383809A
:101EE000A0F818C0C9888186028410BC704730B43D
:101EF000028C22F010020284028C8388B0F818C091
:101F00000D882CF4E6444FF6FF7C0CEA05252C43A3
:101F10000D8922F020020CEA05152A434D880CEAAF
:101F200005152A43A0F18045B5F596351CBFA0F1F3
:101F30008045B5F59A3516D14D8922F080020CEA1C
:101F400005152A438D8822F040020CEA05152A4324
:101F50008D8923F440630CEA85052B43CD890CEA77
:101F6000850C4CEA030383800483C98801870284BB
:101F700030BC704730B4028C22F480720284028C30
:101F80008388B0F81CC00C882CF0730C44EA0C0455
:101F90000D894FF6FF7C22F400720CEA05252A43D6
:101FA0004D880CEA05252A43A0F18045B5F5963504
:101FB0001CBFA0F18045B5F59A3516D14D8922F4A4
:101FC00000620CEA05252A438D8822F480620CEA1F
:101FD00005252A438D8923F440530CEA05152B432C
:101FE000CD890CEA051C4CEA030383808483C988ED
:101FF0008187028430BC704730B4028C22F4805256
:102000000284038C8288B0F81CC00D884FF6FF74E0
:102010002CF4E64C04EA052545EA0C0C0D8923F462
:10202000005304EA05352B434D8804EA05352B435C
:10203000A0F18045B5F596351CBFA0F18045B5F5FA
:102040009A3505D18D8922F4804204EA8514224311
:102050008280A0F81CC0C988A0F84010038430BC5E
:102060007047828B22F440628283828B4FF6FF732B
:1020700003EA0121114381837047828B22F00C0215
:102080008283828B114381837047028B22F44062EA
:102090000283028B4FF6FF7303EA01211143018390
:1020A000704770B4B0F820C02CF0100CA0F820C01D
:1020B000058BB0F820C04FF6FF7625F4734506EA8D
:1020C00003332B4306EA02221A43A0F1804306EAB7
:1020D0000114B3F596331CBFA0F18043B3F59A33D6
:1020E00014D0B0F1804F1CBFA0F18043B3F58063E2
:1020F0000CD0A0F18043B3F500631FBFA0F1804373
:10210000B3F540632CF0A003194302D12CF0200159
:10211000214341F010010283018470BC7047028B9F
:1021200022F00C020283028B1143018370472DE9D8
:10213000F05F0D4604460888244FDFF89480DFF8EE
:102140009490DFF894A0DFF894E04988AA882B895E
:10215000002845D04FF6FF7604284DD00828208C63
:1021600058D020F480502084B4F81CB0208C2BF47C
:10217000734B06EA022242EA0B0206EA03331A43D1
:1021800006EA013CBC4218BF44450BD0B4F1804F75
:1021900018BF4C4506D054451EBF744520F402407C
:1021A000084303D120F4005040EA0C0040F4805072
:1021B000A2832084A879A18B21F44061A183A18B03
:1021C00006EA00200843A083BDE8F09F002C0140F0
:1021D000003401400004004000080040000C0040B2
:1021E000204600F01FFBE888218B21F00C012183A1
:1021F000218B08432083E7E72046FFF752FFA879A9
:10220000218B21F440612183218B06EA00200843C1
:102210002083D9E720F480702084B4F81CC0208C7F
:1022200006EA03131A432CF0F30C06EA012B42EAE8
:102230000C02BC4218BF44450BD0B4F1804F18BF0C
:102240004C4506D054451EBF744520F42060084319
:1022500003D120F4007040EA0B0040F48070A283A8
:102260002084E888A18B21F00C01A183A18B084375
:10227000A083A9E72DE9F0410C46498801260546CF
:102280004FF00008002908BF4FF00208A288012A79
:1022900008BF02262088238900284FF6FF772846AA
:1022A0001BD0FFF7FEFEA079298B21F44061298322
:1022B000298B07EA002008432883238932464146B8
:1022C000284600F0AFFAE088298B21F00C01298321
:1022D000298B08432883BDE8F08100F0A3FAE08849
:1022E000298B21F00C012983298B0843288323891A
:1022F000324641462846FFF7D4FEA079298B21F4C7
:1023000040612983298B07EA002008432883BDE820
:10231000F0810A884B88B1F806C01A438B8843EADB
:102320000C031A430B891A434B8989891A431143B9
:10233000A0F8441070474FF6FF71818000210180A2
:10234000C1804180017270470021018041808180FD
:10235000C180018141818181C1817047002101805B
:10236000418001228280C18001817047002101806B
:1023700041808180C1800181418181817047002934
:10238000018814BF41F0010121F001010180704773
:102390000029B0F8441014BF41F40041C1F30E010C
:1023A000A0F844107047002A828914BF114322EA22
:1023B000010181817047818270471143A0F8481064
:1023C0007047002A828914BF114322EA01018181EA
:1023D0007047018921F0070101817047028922F0CD
:1023E0007002114301817047028922F0700211438B
:1023F0000181018941F007010181704770B5944660
:102400000D46602904464FF0010261460BD000F0F2
:1024100009FA208920F0700028432081208940F0AB
:102420000700208170BDFFF73CFEF2E710B4B0F862
:1024300008C04FF6FF7404EA03231A430CF0FF0CA4
:10244000114341EA0C01018110BC704710B4B0F88F
:1024500008C04FF6FF7404EA03231A430CF0FF0C84
:10246000114341EA0C010181018941F077010181A9
:1024700010BC704710B4B0F808C04FF6FF7404EAFF
:1024800003231A430CF0FF0C114341EA0C010181B4
:10249000018941F48041018110BC7047018582822D
:1024A0007047028822F0700211430180704730B4F7
:1024B0000589B0F818C0048C25F0070529432CF0D5
:1024C000030C2CF4407C40F201154CEA050C4FF64D
:1024D000FF7505EA031324F022041A432243018105
:1024E000A0F818C0028430BC7047028B22F0700242
:1024F000114301837047028B4FF6FF7322F4E042D1
:1025000003EA0121114301837047828B22F070029C
:10251000114381837047828B4FF6FF7322F4E042B0
:1025200003EA01211143818370470029018814BF08
:1025300041F0800121F080010180704700298188ED
:1025400014BF41F0040121F004018180704700298B
:10255000818814BF41F0080121F008018180704793
:102560000029818814BF41F0010121F0010181801F
:102570007047028B22F00802114301837047028BDF
:102580004FF6FF7322F4006203EA01211143018335
:102590007047828B22F00802114381837047828B3F
:1025A0004FF6FF7322F4006203EA01211143818395
:1025B0007047028B22F00402114301837047028BA3
:1025C0004FF6FF7322F4806203EA01211143018375
:1025D0007047828B22F00402114381837047828B03
:1025E0004FF6FF7322F4806203EA012111438183D5
:1025F0007047028B22F08002114301837047028BE7
:102600004FF6FF73C2F30E0203EA01211143018367
:102610007047828B22F08002114381837047828B46
:102620004FF6FF73C2F30E0203EA012111438183C7
:102630007047028C22F00202114301847047028C21
:1026400022F00802114301847047028C4FF6FF7399
:1026500022F0200203EA0111114301847047028C29
:102660004FF6FF7322F0800203EA01111143018447
:102670007047028C4FF6FF7322F4007203EA0121C7
:10268000114301847047028C4FF6FF7322F40062FD
:1026900003EA0121114301847047028C4FF6FF7356
:1026A00022F4005203EA01311143018470470123EF
:1026B000B0F820C08B402CEA03030384038C02FA99
:1026C00001F11943018470470423B0F820C08B4006
:1026D0002CEA03030384038C02FA01F119430184F9
:1026E000704710B44FF0010C048C00F118030CFA81
:1026F00001FC24EA0C0CA0F820C0002918BF08290E
:1027000010D0081FC0F34E001844016821F4E041C6
:10271000016001684FF6FF7303EA02221143016072
:1027200010BC704703EB5100016821F0700101609B
:1027300001681143016010BC70470029018814BF73
:1027400041F0020121F00201018070470029018857
:1027500014BF41F0040121F00401018070470029F9
:10276000818814BF41F0800121F080018180704791
:10277000028822F00802028002881143018070471B
:10278000828822F0700282808288114381807047A3
:10279000028922F0070202810289114301817047F8
:1027A000028922F08002028102891143018170476F
:1027B00081847047818570478186704701877047A3
:1027C00081877047A0F840107047028822F4407259
:1027D00002800288114301807047808E7047008F0D
:1027E0007047808F7047B0F840007047808C70470A
:1027F000008D704702460020128A0A4218BF01204D
:102800007047C94301827047038A002280890B42C6
:1028100000EA01001CBF0028012210467047C9438E
:102820000182704730B4B0F820C02CF0010CA0F841
:1028300020C0048BB0F820C04FF6FF7505EA0313E3
:102840001A4324F0F3042243A0F18043B3F59633F6
:102850001CBFA0F18043B3F59A331AD0B0F1804F7A
:102860001CBFA0F18043B3F5806312D0A0F1804378
:10287000B3F500631CBFA0F18043B3F5406308D0FB
:102880002CF00A03194341F001010283018430BC9A
:1028900070472CF00203194341F00101F5E70000F5
:1028A00002684FF6FE711140016000210160416035
:1028B0008160C160684A6949904204BF486840F03D
:1028C0000F0022D0664A904204BF486840F0F000F2
:1028D0001BD0644A904204BF486840F4706014D032
:1028E000614A904204BF486840F470400DD05F4A8E
:1028F000904204BF486840F4702006D05C4A904281
:1029000004BF486840F4700001D148607047594ADC
:10291000904204D1486840F0706048607047564A61
:10292000111F904204BF086840F00F0014D0534AB2
:10293000904204BF086840F0F0000DD0504A904229
:1029400004BF086840F4706006D04E4A904204BF4D
:10295000086840F4704001D1086070474A4A9042CC
:1029600018BF7047086840F470200860704710B4C2
:102970000268D1F820C08B686FF30E1243EA0C0393
:10298000D1E904C44CEA040C43EA0C03D1F818C0A2
:1029900043EA0C03D1F81CC043EA0C03D1F824C06D
:1029A00043EA0C03D1F828C043EA0C031A4302603F
:1029B000CA6842600A6882604968C16010BC70479A
:1029C0000021016041608160C160016141618161FC
:1029D000C16101624162816270470029016812BFD2
:1029E00041F001014FF6FE72114001607047002A6C
:1029F000026814BF114322EA01010160704741607F
:102A00007047406880B27047002210F0805F14BFAA
:102A10001E4912490968014218BF01221046704739
:102A200010F0805F19BF1A4908600C494860704770
:102A3000002210F0805F14BF144908490968014260
:102A400018BF01221046704710F0805F19BF10496F
:102A500008600249486070470800024000000240D8
:102A60001C00024030000240440002405800024076
:102A70006C00024080000240080402401C04024036
:102A80003004024044040240580402400004024062
:102A90000404024010B50146FE480022008810F4EC
:102AA000004F07D0FC4BC0F30E001A54184601F03B
:102AB0000EF80246104610BD2DE9F043E7B04FF482
:102AC000807106A801F0A5F8842146A801F0A1F8BC
:102AD000F04C208810F4004F04BF67B0BDE8F083CD
:102AE000C0F30E054FF00009B5F5807F82BFA4F852
:102AF000009067B0BDE8F0832A46E74906A801F0D8
:102B000043F8A4F80090BDF818000DF11A04FDF781
:102B1000C6FCA0F58071ADF8180101391CBF67B083
:102B2000BDE8F083BDF81A00A41CFDF7B8FCADF8B1
:102B30001A01BDF81C00A41CFDF7B1FCADF81C0186
:102B4000BDF81E00A41CFDF7AAFCADF81E0102464C
:102B5000214646AF48A801F017F8BDF81E0148AE5F
:102B600000F80690BDF81E01044434F8020BFDF78E
:102B700096FCADF840010246214607F12A0001F01B
:102B800003F8BDF840010DF5A178C44A00F808909B
:102B9000BDF84001005D8DF89701BDF81C1122F8C9
:102BA0001010BDF81A01001DA84228D1BC48BDF87C
:102BB0001E214089824222D1BA4907F1080000F063
:102BC00098FFE0B99DF897011F2818D2B64CC0EBCA
:102BD000C00004EB8000083000F0B7FFBDF84021D2
:102BE00090420CD19DF89701C0EBC00004EB80002F
:102BF00000F1080107F12A0000F07BFFD8B19DF831
:102C000097010321FDF701FD9DF89701BDF84011E3
:102C1000CDE90380CDE90161BDF81E010090BDF84A
:102C20001C31BDF81A21BDF81811A04800F086FD2E
:102C300067B0BDE8F0839EA000F080FD9DF897018D
:102C400007F12A01FDF77EFE67B0BDE8F0832DE9AC
:102C5000F04791460D4604460026FFF72DFF8D4FA5
:102C6000B046FF2CA7F8008098BF954806D8D0F84A
:102C700084100029FBD19348048003E0214692A0F0
:102C8000FEF751F8002D18BFB9F1000F22D0A9F1BD
:102C900001000404240C18BFDFF8FC9119D00A20AD
:102CA000FEF779F9388810F4004F0ED0C0F30E000B
:102CB000294609F80080784800F009FF002808BF7D
:102CC000A7F8008001D024B104E0601E0404240CA5
:102CD000E5D101263046BDE8F0872DE9F0478EB0FA
:102CE00000250195029503956D4E04950595069571
:102CF00007950895764F09950A950B950C950D95B6
:102D00003178DFF8908138682C464FF001090029AE
:102D10001CBFF268002A04D0821A42F210739A4251
:102D20002ED3F060C8226BA16BA0FFF790FF0028A4
:102D300018BF0425C8226BA16CA0FFF788FF0028EC
:102D400018BF45F008050AD0002D1BBF3470747001
:102D500086F800900EB018BFBDE8F08715E062A1BC
:102D60004D4800F0B4FE824662A100F0B0FE04704F
:102D70000AF1020000F09EFEB070A8F80040E3E700
:102D800001291CBF0EB0BDE8F087717811B1F07851
:102D9000032822D9F27858A000F0D0FC4FF4FA7240
:102DA00061A164A0FFF753FF4FF4FA7265A167A019
:102DB000FFF74DFF684800906848694B69A10268B9
:102DC00001A800F0C7FC4FF4FA7242A101A8FFF776
:102DD0003EFF86F80190F47001E0012925D13069A9
:102DE00040B13968081A41F2883188423CBF0EB0C0
:102DF000BDE8F087386830614FF4FA7235A160A001
:102E0000FFF725FF62A1244800F061FE18B174703D
:102E100061A000F093FC66A11F4800F058FE20B1AD
:102E20000220707065A000F089FC707802281CBF39
:102E30000EB0BDE8F087B8F8000010F4004F04BFF2
:102E40000EB0BDE8F087C0F30E0013490C5450A13A
:102E5000114800F03CFE002804BF0EB0BDE8F0872A
:102E600074705AA000F06AFC0EB0BDE8F0872DE93E
:102E7000F04104460E460088A71CFDF710FB0546EE
:102E80003888FDF70CFB0746B5F5817F00D0A9E037
:102E9000BBE0000054000020180500203E06002082
:102EA000780000207E060020980000209C51000839
:102EB0007265637620756E6C6F636B206F6B0A00B2
:102EC000000002400444004025730D0A0000000089
:102ED000140000204F4B000041542B4350494E3FFB
:102EE000000000002B4353513A00000041542B4393
:102EF000535100002C0000005443502052455345CC
:102F00005420636F6E6E6563745F73746174655B88
:102F100025645D2C206865617274626561745F650B
:102F200072725B25645D0A00434C4F5345204F4B42
:102F30000000000041542B434950434C4F53453D42
:102F40003100000053485554204F4B0041542B434F
:102F50004950534855540000AC50000890000020E0
:102F6000B250000841542B43495053544152543DF0
:102F7000222573222C222573222C22257322000065
:102F800041542B43495053544154555300000000C1
:102F9000434C4F534544000054435020434F4E4E42
:102FA000454354494E4720434C4F5345440A000083
:102FB000434F4E4E454354204F4B00005443502046
:102FC000434F4E4E454354204F4B0A00544350202C
:102FD000434F4E4E454354454420434C4F53454484
:102FE0000A000000A5F5807003381CBF0020BDE872
:102FF000F0813A462146304600F0C6FD0320FDF739
:103000004EFA70800720BDE8F08102462146304626
:1030100000F0BAFD781C80B2FDF741FA7080781D8F
:1030200080B2BDE8F0812DE9F04FC9B00024894697
:103030008246012640944194429440F6B837439426
:1030400044944594469431026846479400F0E1FD6B
:103050000025FFF731FD69465046FFF708FF80461F
:103060004A46FCA140A800F075FB4FF4FA72FDA19E
:1030700040A8FFF7ECFD40B1002211461B20FFF7EE
:10308000E6FD49B03046BDE8F08F3220FDF783FF02
:10309000DFF8D4B349465046ABF80040FDF763FE75
:1030A000DFF8C8A325E0BBF8000010F4004F1DD0E6
:1030B000C0F30E0915B1012D0AD015E00AF8094038
:1030C000EBA1EA4800F003FD002818BF01250BD052
:1030D000B8F1000F07D0C84506D14A466946E34813
:1030E00000F007FD00B90026ABF800400120FDF715
:1030F00052FF781E07043F0C18BF002EC1D0D2E744
:10310000F0B4DE4A0021DFF870C31679957954795E
:103110000B46C1EBC1020CEB820257785FB18F19ED
:1031200000F8017B5278032A0CBF00F8015B00F81D
:10313000014B5A1CD3B2491CC9B21F29E9D9F0BCB2
:10314000184670472DE9F047064617460D464FF0E2
:1031500000080846FDF7A3F93080A5F58070C64940
:10316000B41CDFF81893C7EBC702013801EB8205E6
:1031700004D0012841D002287CD0ADE005F1080040
:1031800000F0E3FC1FFA80F8B9F80A004044083068
:1031900080B2FDF784F924F8020BB94830F8170023
:1031A000FDF77DF924F8020BB9F80A00FDF777F96D
:1031B00024F8020BB9F80A20B249204600F0E4FCDA
:1031C000B9F80A0004444046FDF769F924F8020BF7
:1031D00005F108014246204600F0D6FC04EB080049
:1031E00000F8017BE978042914BF0121002100F8CF
:1031F000011B801B1FFA80F86EE005F1080000F04B
:10320000A4FC1FFA80F8B9F80A004044C01D80B23F
:10321000FDF745F924F8020BB9F80800FDF73FF96E
:1032200024F8020BB9F80800401CA9F80800B9F806
:103230000A00FDF734F924F8020BB9F80A20914985
:10324000204600F0A1FCB9F80A0004444046FDF70E
:1032500026F924F8020B05F108014246204600F049
:1032600093FC04EB080000F8017B801B1FFA80F838
:1032700032E0FFE7B9F80A0030440930FFF740FFB9
:103280000546B9F80A0000EB4500401D80B2FDF785
:1032900006F924F8020BB9F80800FDF700F924F844
:1032A000020BB9F80800401CA9F80800B9F80A0098
:1032B000FDF7F5F824F8020BB9F80A207149204609
:1032C00000F062FCB9F80A00204400F8015B00EB52
:1032D0004500801B1FFA80F84046BDE8F087F0B536
:1032E000C1B000244FF48071684600F092FC624E39
:1032F0000027C4EBC40006EB8005E87870B168686D
:1033000060B9224640F201116846FFF71BFF0146F3
:103310006846FFF788FE002808BFEF70601CC4B243
:103320001F2CE6D941B0F0BDF0B5C1B000244FF478
:103330008071684600F06DFC4F4E0227C4EBC4005C
:1033400006EB8005A87801280CD122464FF4817144
:103350006846FFF7F7FE01466846FFF764FE00285F
:1033600008BFAF70601CC4B21F2CE7D941B0F0BDDC
:1033700010B5C0B04FF48071684600F04AFC3F4C75
:103380004148E178006841B9616931B1411A4CF2B4
:10339000503291423CBF40B010BD0022606140F20B
:1033A00003116846FFF7CEFE01466846FFF73BFE75
:1033B00000281CBFE078401CE07040B010BD2DE933
:1033C000F04100242D4E2546642274703470AFF213
:1033D000FC412EA0FFF73BFC58B14FF49660FDF77F
:1033E000DAFD6422AFF2145128A0FFF730FC002868
:1033F000F3D1C822AFF2245125A0FFF728FC002802
:103400001CBF44F00100BDE8F081C822AFF23C517E
:1034100021A0FFF71CFC00281CBF44F00200BDE8FF
:10342000F0811FA1114FB81C00F051FB0570BA1CB0
:103430001CA1144800F08EF9DFF82C807081C8229E
:10344000A8F80050AFF27451AFF27450FFF7FFFBD1
:10345000002829E041542B43495053454E443D2513
:10346000640000003E000000540000201805002009
:1034700053454E44204F4B00980000207800002018
:103480003E0600207E06002014000020415400006B
:10349000415445300000000041542B4347534E0037
:1034A0000D0A0000257300001CBF44F00400BDE8B5
:1034B000F081C822AFF2D451AFF2D050FFF7C7FB72
:1034C00000281CBF44F00800BDE8F081AFF2E851CD
:1034D0006E4800F0FCFA0746AFF2E85100F0F7FA48
:1034E0000570B81C00F0E6FAB070A8F8005064222D
:1034F000AFF2CC51AFF2C450FFF7A9FB6422AFF298
:10350000BC51AFF2B850FFF7A2FB4FF47A72AFF2A2
:103510003C615FA0FFF79BFB00281CBF44F010003C
:10352000BDE8F0814FF47A72AFF258615CA0FFF70A
:103530008EFB00281CBF44F02000BDE8F0814FF452
:10354000FA72AFF270615DA0FFF781FB00281CBF2B
:1035500044F04000BDE8F0814FF4FA72AFF28C61A4
:1035600059A0FFF774FB00281CBF44F08000BDE8A1
:10357000F0814FF4FA72AFF2A46159A0FFF767FB34
:10358000002814BF44F480702046BDE8F081F0B5F7
:10359000C1B0FFF7A2FBFFF78FFA55480178012968
:1035A00007BF4078022841B0F0BDFFF798FE002425
:1035B0004FF48071684600F02CFB4E4E0227C4EB9E
:1035C000C40006EB8005A87801280CD122464FF4F0
:1035D00081716846FFF7B6FD01466846FFF723FD97
:1035E000002808BFAF70601CC4B21F2CE7D941B0DF
:1035F000BDE8F040BCE610B53F4C0120C4F8AC017A
:103600004FF47A7004F5D674FDF7C5FC00202060F5
:10361000FFF7D5FE38B14FF47A70FDF7BCFCFFF729
:10362000CEFE0028F7D1BDE8104034A000F086B8E7
:1036300038B501210820FEF785F84FF40060ADF899
:10364000000010208DF8030003208DF80200694669
:103650002F48FDF76AFE284C0120C4F8AC014FF456
:103660007A7004F5D674FDF796FC00202060FFF711
:10367000A6FE38B14FF47A70FDF78DFCFFF79FFE80
:103680000028F7D11DA000F059F838BD180500201A
:1036900041542B4347434C4153533D2242220000A7
:1036A00041542B434744434F4E543D312C22495003
:1036B000222C22434D4E45542200000041542B43FE
:1036C000474154543D31000041542B43495043532A
:1036D00047503D312C22434D4E45542200000000FE
:1036E00041542B434950484541443D3000000000BF
:1036F00078000020980000200080214273696D3816
:103700003030635F726573657420646F6E650A00A4
:10371000000C0140704700001CB50C46064B7B4472
:1037200069460090204600F028FB044600206946C8
:1037300000F036FB20461CBD7F0600000FB4044994
:1037400010B503AA029800F047FB10BC5DF814FB0B
:10375000600000200FB41CB5084B06AA7B446946E4
:103760000090059800F009FB04460020694600F02F
:1037700017FB20461CBC5DF814FB0000410600004E
:1037800070B5044685690068C10601D5302600E0A1
:103790002026C00707D070BDD4E9012130469047EC
:1037A000206A401C20626D1EF6D570BD70B50446BF
:1037B00085690078C00707D170BDD4E901212020B8
:1037C0009047206A401C20626D1EF6D570BD70B512
:1037D0000C460546012A05D02878800600D5EA69FE
:1037E000002302E0012305E05B1C934202D2E05C6F
:1037F0000028F9D1A869E618C01AA861286A1844F7
:1038000028622846FFF7BCFF04E0D5E9012114F83F
:10381000010B9047B442F8D32846FFF7C7FF70BDAD
:103820002DE9F0410646002410687529314616A599
:1038300010D000F01DFA002802DA404213A507E07C
:1038400031688A0701D512A502E0490704D511A500
:10385000012401E000F015FA00210A2206F12407F4
:1038600009E0B0FBF2FCB0FBF2F302FB1C003030CD
:1038700078541846491C0028F3D123462A4630467E
:10388000BDE8F04100F006BA000000002D00000085
:103890002B00000020000000F0B40D46018809054F
:1038A00002D5214C7C4402E01F4C7C440E340021A4
:1038B00000F1240608E002F00F071209E75D42EA72
:1038C00003721B097754491C52EA0307F3D10278AB
:1038D0000023120704D5702D06D009B1022311343C
:1038E0002246F0BC00F0D6B901231034F8E770B5D9
:1038F00004460D462146106800F0C3F902462946E9
:103900002046BDE870400023C6E7D21D22F0070321
:10391000D3E90023C0E70368126843F02003036083
:103920000823C3610023B7E71F1800002DE9F05FEB
:10393000894604464FF0000ADFF874B1FB44C0F832
:1039400020A02046E1688847002874D0252806D0AA
:10395000D4E901219047206A401C2062F1E700264B
:103960005F462046E16888472028054607DB312D61
:1039700005D2781910F8200C08B10643F1E7B0071A
:1039800001D526F00406C4F81CA00027C4F818A02E
:103990002A2D09D0284601F054FB38B304EB8708E0
:1039A000303DC8F8185019E059F8041B204604EBC4
:1039B00087029161E1688847012F054618D1E069C7
:1039C000002820DA26F020061DE0D8F8180000EBC9
:1039D000800005EB40003038C8F818002046E16848
:1039E0008847054601F02DFB0028EED1012F0AD0B3
:1039F0002E2D08D12046E16888477F1C0546022FFE
:103A000046F02006C4DBA069002803DA404246F0F5
:103A10000106A061F00701D026F010066C2D0BD036
:103A2000682D09D04C2D39D06A2D35D0742D35D064
:103A30007A2D33D016E038E0E1682F4620468847DB
:103A4000B842054609D16C2F26D04FF48060E1685A
:103A5000064320468847054604E06C2F1AD04FF4F1
:103A6000807006430DB3A5F14100192802D8203516
:103A700046F400664A462946204626604E46FCF734
:103A80006FFB80B101280BD0F61D26F0070000F176
:103A9000080956E74020E4E78020D8E70020D6E771
:103AA00006F104094DE7284652E7206ABDE8F09F79
:103AB000AF17000070B5064600F0D6F8046805465A
:103AC00030460A22002100F06DFA2C6070BD30B53E
:103AD00005460B462A4613F8014B12F8010B08B1B4
:103AE000A042F8D01CB1002802D06D1CF1E7284696
:103AF00030BD40EA010310B59B070FD1042A0DD356
:103B000010C808C9121F9C42F8D020BA19BA8842BE
:103B100001D9012010BD4FF0FF3010BD1AB1D307FD
:103B200003D0521C07E0002010BD10F8013B11F833
:103B3000014B1B1B07D110F8013B11F8014B1B1B5C
:103B400001D1921EF1D1184610BD10B5431C02E000
:103B500010F8011B71B18107FAD14FF0013202C890
:103B60008C1A8C4314EAC211F9D0C01A0A0603D089
:103B7000C01E10BDC01A10BD0A0401D0801E10BDA9
:103B80000902FCD0401E10BD032A40F2308010F024
:103B9000030C00F0158011F8013BBCF1020F6244E8
:103BA00098BF11F801CB00F8013B38BF11F8013B79
:103BB000A2F1040298BF00F801CB38BF00F8013B26
:103BC00011F0030300F02682083AC0F0088051F893
:103BD000043B083A51F804CBA0E80810F5E7121DA1
:103BE0005CBF51F8043B40F8043BAFF30080D207C0
:103BF00024BF11F8013B11F801CB48BF11F8012B8C
:103C000024BF00F8013B00F801CB48BF00F8012BAE
:103C100070474FF0000200B513469446964620398F
:103C200022BFA0E80C50A0E80C50B1F12001BFF475
:103C3000F7AF090728BFA0E80C5048BF0CC05DF8DB
:103C400004EB890028BF40F8042B08BF704748BF29
:103C500020F8022B11F0804F18BF00F8012B70479D
:103C6000704770477047704700487047A0060020B3
:103C700009684A0501D540B27047C905FCD500B2B4
:103C8000704709684A0501D5C0B27047C905FCD51F
:103C900080B270472DE9F0470D469946924604469A
:103CA00000F124080168880604D5E06921F01001BC
:103CB000216000E00120A84201DD471B00E0002751
:103CC000A1697A1902EB0900081AA0612078C006E0
:103CD00002D42046FFF754FD002608E0D4E9012174
:103CE0001AF806009047206A401C761C20624E4558
:103CF000F4DB2078C0060AD52046FFF741FD06E038
:103D0000D4E9012130209047206A401C2062381EEF
:103D1000A7F10107F4DC07E0D4E9012118F8050058
:103D20009047206A401C2062281EA5F10105F3DCA3
:103D30002046FFF73BFD2078000602D50220BDE8B3
:103D4000F0870120FBE711680268006A530501D57E
:103D500008700AE0D30501D5088006E0130603D5F4
:103D6000C217C1E9000200E00860012070470000AE
:103D700001694A1C02610878704700B58FB0CDE92F
:103D800001310021059105497944CDE9031011461F
:103D90006846FFF7CBFD0FB000BD0000E5FFFFFF59
:103DA0000A6802F8010B0A60704710B5436913B145
:103DB000AFF3008001E0FFF70AFD012010BD12788B
:103DC00000F124010A7000224A700122EDE7116817
:103DD0004FF0FF32E9E70000074B70B50D467B441A
:103DE000FFF7CBFF0446284600F009FC10B14FF066
:103DF000FF3070BD204670BDFDD1FFFF2DE9FF5F94
:103E000015468A460446DFF8AC80F8440027D8E916
:103E100000103E46CDE9001010E03AF816106A4650
:103E200002A800F0F0FB411C07D02178890603D5D9
:103E3000E269391891420DD80744761C2078800633
:103E400002D5E069B84205DDAE42E6DB3AF816007D
:103E50000028E2D1A069C01BA0612046FFF790FCBA
:103E6000D8E90010CDE90010002017E03AF818104A
:103E70006A4602A800F0C7FBB0F1FF3F81460BD0B5
:103E800000250DF1080B05E0D4E901211BF8050020
:103E900090476D1C4D45F7D308F10100B0428046B4
:103EA000E4DB206A384420622046FFF77FFCBDE84F
:103EB000FF9F0000F21200002DE9F0418046D21D64
:103EC00022F007020025D2E90002F52915A614D038
:103ED000011E72F1000106DA0023D0EB030063EB50
:103EE000020211A608E0D8F800108B0701D50FA632
:103EF00002E0490701D50EA601251146002408F16C
:103F0000240704E000F0C4F830323A55641C50EA4B
:103F10000102F7D12B46324621464046BDE8F0412A
:103F2000FFF7B8BE000000002D0000002B000000CD
:103F30002000000030B4002100F1240408E002F069
:103F40000705D208303542EA4372DB086554491C44
:103F500052EA0305F3D10468002310A2250708D50F
:103F600004F020040C4304D0C46901230CA2641E95
:103F7000C46130BCFFF78EBE10B504462146106800
:103F8000FFF77FFE02462046BDE810400023D1E740
:103F9000D21D22F00701D1E90023CBE70000000089
:103FA000300000002DE9F04791460F468046044658
:103FB000002614F8015B2DB100F062F80068405D46
:103FC000C007F6D12B2D02D02D2D18D0641E4A46E5
:103FD0003946204600F0C4FA27B13968A14201D120
:103FE000C7F800804FF0020471050BD5404200284D
:103FF00003DDFFF739FE0460A007BDE8F08746F453
:104000008066E4E70028F8DAFFF72EFE04606FF020
:104010000040F2E710B5203AC0F00B80B1E818502C
:10402000203AA0E81850B1E81850A0E81850BFF4A2
:10403000F5AF5FEA027C24BFB1E81850A0E8185041
:1040400044BF18C918C0BDE810405FEA827C24BF95
:1040500051F8043B40F8043B08BF7047D20728BF23
:1040600031F8023B48BF11F8012B28BF20F8023B72
:1040700048BF00F8012B704700487047A006002099
:1040800010B500F005FB001D10BD00BFC50F0000FE
:1040900030B5B0F10A024FEA900E71F100034EEA1A
:1040A000817EB0EB0E0061EB91014FEA101E4EEAEB
:1040B000017E10EB0E0041EB11114FEA102E4EEA7B
:1040C000016E10EB0E0041EB11214FEA104E4EEA4B
:1040D000014E10EB0E0041EB1141401841F100017F
:1040E0004FEAD00040EA41704FEAD10110EB800561
:1040F0004FEA810444EA907444EB01046D1944EBE7
:104100000404521BA3414FF0000348BF0A3200D5FC
:1041100030BD401C41F1000130BD70472DE9FF4F1B
:104120000C461E464FF0FF378BB0D2E90001DDF898
:1041300060800A908A46C1F30A5505B93D460021C0
:1041400008464FF00000BAF1000F00F4400005DA15
:1041500000EB80004FF4400101EA50004FEA905913
:10416000B9F1010F00DDB9460A9850EA4A000ED0B5
:1041700044F61050A5F2FF3545432F14B8F1000F57
:104180001ED07542291E1EDDC9F100021CE0B8F1E7
:10419000010F4FF0000001D0302103E0F24305E0B1
:1041A0002154401CB042FBDB304600220021215448
:1041B0000B99C1F80880C1E900200FB0BDE8F08F6D
:1041C000BD1B6D1CDEE74A4600DA694206A800F016
:1041D000B1FA06AB93E8070003AB83E8070050464B
:1041E0000A9900F05FFB8DE80700A0F500501F382A
:1041F00000900398002D09DD42F21F014A46084451
:1042000003A90390684600F0BEFD08E0A0F5005049
:104210004A461F3803A90390684600F0C8FD8DE8A0
:1042200007000004000C03D04FF0FF30410800E00D
:104230001046B8F1000F03D00022009215461EE090
:10424000751E05D4FFF724FF303262556D1EF9D577
:10425000B3460122084302D000227F1C04E02078EC
:10426000302801D100227F1E002A099786D01DE048
:10427000112D07DAFFF70CFF303262556D1C50EA42
:104280000102F5D1084302D00098C8B10EE0002128
:10429000681E05E0235C625C63542254401E491C86
:1042A0008142F7DBAB46A81B401E0990002004F8B2
:1042B0000B000B98099AC0F80880C0E9002B7CE736
:1042C00011264FF0000859E72DE9F04F88460446C3
:1042D000D21D22F0070191B0D1E90001CDE90A0118
:1042E00000F09BFE02460B98C00F01D02D2007E086
:1042F0002068810701D52B2002E0202101EAC000BF
:10430000032A099001D0072A05DB034641462046CF
:1043100000F0C2F90BE12078800601D5E06900E0E9
:104320000620B8F1650F814606D0B8F1660F18D0A7
:10433000B8F1670F70D131E00020B9F1110F009092
:1043400001DB112301E009F101030AAA01A90CA86C
:10435000FFF7E4FEDDE90C70002609F10105834654
:1043600047E001204B4600904FF000470AAA01A900
:104370000CA8FFF7D3FEDDE90DB00C995D460026D1
:1043800010B909F101000D18B9EB050003D4C0F113
:10439000FF3609F10105A5EB09002BE0B9F1010F8A
:1043A00001DA4FF001090020B9F1110F00904846E1
:1043B00001DD112300E003460AAA01A90CA8FFF7BA
:1043C000ADFEDDE90C704D460026834620780007DF
:1043D0000AD4AB4500DA5D4601A8012D04DD411980
:1043E00011F8011C302907D04F4502DA17F1040FEC
:1043F00004DA012082460FE06D1EEEE7002F02DC9A
:10440000ED1B3E4403E0781CA84200DD7D1CB81B78
:1044100000F1010A4FF000472078000703D4AA45B5
:1044200001DB4FF0FF3A0021B7F1004F0DF14308D7
:104430008DF8431024D002202B23002F01DA7F4275
:104440002D230A21021EA0F1010000DC5FB197FBC1
:10445000F1FC97FBF1F201FB1C7C17460CF1300CD0
:1044600008F801CDEEE7A8F10100037021880905E5
:1044700001D5452100E06521A0F1010800F8011CEB
:1044800009980FA9A1EB0807FF1D00B101204119F0
:1044900001EBEA70A1693844081A401EA061207837
:1044A000C00602D42046FFF76BF9099828B1D4E979
:1044B00001219047206A401C20622078C00622D546
:1044C0002046FFF75DF91EE0002E04DBB34502DD58
:1044D00001A8805D00E03020D4E901219047206AE6
:1044E000401C2062761CAAF101005FEA000A0AD192
:1044F00000F0CEF8C0680168405CD4E90121904723
:10450000206A401C2062281EA5F10105DCDC07E0C2
:10451000D4E9012118F8010B9047206A401C206261
:10452000381EA7F10107F3DC2046FFF73FF903200F
:1045300011B043E610B5436913B1AFF3008001E059
:10454000FFF75CFC012010BD128800F12401828479
:104550000022C2840122EDE711684FF0FF32E9E743
:104560002DE9F05F824615468B4600270AF10104CB
:10457000B9460078302801D09DB113E014F8010B42
:104580000127782803D0582801D045B10AE00DB1A1
:10459000102D07D1002714F8010B102502E0082583
:1045A00000E00A250026B0460EE005FB080005FBEA
:1045B00006F101271FFA80F801EB1046B6F5803F9F
:1045C00000D3B94614F8010B294600F0A5F80028DD
:1045D000EBDABBF1000F05D00FB1641E00E05446CA
:1045E000CBF80040B9F1000F06D0FFF73DFB0221E8
:1045F0000160C81EBDE8F09F48EA0640FAE7007B6C
:1046000000F08000704770B516460C460546FFF76F
:1046100037FD036893F80101012806D0FF2C0FD85D
:10462000185D68B101202C7070BDD3F807013246C7
:10463000214603F2071303442846BDE8704018479B
:104640004FF0FF3070BD7546FFF716FDAE46050012
:104650006946534620F00700854618B020B5FCF7A0
:10466000E7FDBDE820404FF000064FF000074FF097
:1046700000084FF0000B21F00701AC46ACE8C00980
:10468000ACE8C009ACE8C009ACE8C0098D46704789
:1046900000487047C00600202DE9F0411F4604463F
:1046A00003260168072A01F4006004DB08B116A59F
:1046B00005E016A503E008B115A500E015A521F059
:1046C00010002060A069C01EA0610FB1401EA06153
:1046D0002046FFF755F84FB1D4E9012138469047FD
:1046E000206A401C2062C01C206206E0206AFAE7B3
:1046F000D4E9012115F8010B9047761EF8D2204627
:10470000FFF754F8BDE8F0814E414E006E616E0037
:10471000494E4600696E66003A2800D2303820F0D3
:104720002002412A01D3A2F13700884201D34FF081
:10473000FF3070472DE9F047814616468AB033486E
:1047400078440DC88DE80D0030487844801C03ACD7
:104750000DC884E80D0041F69B300844372190FBDA
:10476000F1F290FBF1F5A5F1800501FB12041B3C71
:1047700002D56442012000E00020DFF890A08046CE
:104780000027FA44AAF1BE0A0DE0E00709D032463C
:10479000684607EB47010AEB810100F008FB8DE852
:1047A000070064107F1C002CEFD1184F7F44AC3FF2
:1047B00018E0E80714D007EB04100DF1180A90E890
:1047C0000E008AE80E00C068F04201D198190890E6
:1047D000324606A903A800F0EAFA03AB83E8070013
:1047E0006D10641C002DE4D132466946B8F1000F0B
:1047F00003A802D000F0C7FA01E000F0D8FAC9E936
:104800000001C9F808200AB0BDE8F087400A00009E
:1048100010B50446AFF300802046BDE81040FBF71A
:1048200002BD00004FF0013C50F8042B51F8043B4E
:104830009A4221D1A2EB0C03934313EACC1317D174
:1048400050F8042B51F8043B9A4215D1A2EB0C030B
:10485000934313EACC130BD150F8042B51F8043BCB
:104860009A4209D1A2EB0C03934313EACC13DBD099
:104870004FF00000704700BFD01A01BAB1FA81F1C1
:1048800001F0180122FA01F0CB40C1F12001DBB2A6
:10489000C0B2C01A2CFA01F3D11A914311EAC31124
:1048A000E6D170475FEA400C08BF91F0000F4FEA75
:1048B0008C234FEAC12243EA51514FEA1C5018BFE2
:1048C00000F5F0404FEA300018BF41F000415FEAC8
:1048D0006C5C00F02980BCF1FF3F08BF40F08040D5
:1048E0007047130C06BF12044FF0100C4FF0000C71
:1048F000130E04BF12020CF1080C130F04BF1201B7
:104900000CF1040C930F04BF92000CF1020CD30FB6
:1049100004BF52000CF1010C11464FF00002A0F14F
:104920001F00A0EB0C00704711F0004F08BF70474C
:1049300031F000413FF4D5AF0B0C06BF09044FF036
:10494000100C4FF0000C0B0E04BF09020CF1080C08
:104950000B0F04BF09010CF1040C8B0F04BF89007D
:104960000CF1020CCB0F04BF49000CF1010CCCF18F
:104970002003A0EB0C0022FA03F302FA0CF241EA46
:10498000030100F10100704720F07F4C80EA030032
:1049900023F07F47ACEB070303F57C5300F00040A6
:1049A00003F1FF032DE980494FEA154B09B44FEAA3
:1049B000144325EA0B4E24EA03480FF2042606EBC3
:1049C000132749083E785FEA320203FB0667C7F502
:1049D000000707FB06F64FEA54374FEAD64606F1C2
:1049E000020607FB066CCCF1005C4FEA1C472CEA80
:1049F000074C07FB06F40CFB06F504EB15464FEAE3
:104A0000961634BF00204FF000404FEAD13706FB26
:104A100007FC4FEA1C4C0CFB0BF7D21B03FB0CF7FB
:104A200061EB07010CFB0EF7B0EB074072EB17428E
:104A30000CFB08F734BFA2EB0742B2EB074261EB75
:104A400017414FEA0C444FEA910706FB07FC4FEA77
:104A50001C4C0CFB0BF7B0EBC74072EB573203FB5F
:104A60000CF734BFA2EBC742B2EBC74261EB573140
:104A70000CFB0EF7B0EBC70072EB57720CFB08F79C
:104A800034BFA2EBC702B2EBC70261EB5771039FC1
:104A90004FEA816141EA921104EBCC044FEAD1372D
:104AA0004FEA826206FB07FC42EA90124FEA8060FE
:104AB0004FEA1C4C0CFB0BF7D21B03FB0CF761EB12
:104AC00007010CFB0EF7B0EB074072EB17420CFB33
:104AD00008F734BFA2EB0742B2EB074261EB174184
:104AE0004FEA8C554FEA910704EB9C2406FB07FC28
:104AF0004FEA1C4C0CFB0BF7B0EBC74072EB573284
:104B000003FB0CF734BFA2EBC742B2EBC74261EB29
:104B100057310CFB0EF7B0EBC70072EB57720CFB72
:104B200008F734BFA2EBC702B2EBC70261EB5771C3
:104B300015EB4C254FEA816141EA92114FEA8262FE
:104B40004FEAD13742EA901206FB07FC44F1000419
:104B50004FEA80604FEA1C4C0CFB0BF7D21B03FBA7
:104B60000CF761EB07010CFB0EF7B0EB074072EBA3
:104B700017420CFB08F734BFA2EB0742B2EB074227
:104B800061EB174115EB1C154FEA813141EA924167
:104B90004FEA823242EA90424FEA80304FEA0C7686
:104BA00044F1000448EA03434EEA0B484FF0000E7C
:104BB000B2EB080C71EB030724BF624639464EEB9B
:104BC0000E0E4FF0000B0018524149414BEB0B0BFE
:104BD000B2EB080C71EB03077BF1000B24BF6246BC
:104BE00039464EEB0E0E4FF0000B00185241494172
:104BF0004BEB0B0BB2EB080C71EB03077BF1000BDB
:104C000024BF624639464EEB0E0E51EA020718BF2A
:104C100046F0010616EB0E7655F1000254F1000144
:104C200003D5BDE88901BDE80088BDE88901BDE87C
:104C30000048B619524141EB0101A3F1010370474D
:104C400080807F7E7D7C7B7A7978777676757473C9
:104C5000727171706F6E6E6D6C6C6B6A6A69686888
:104C6000676666656464636362616160605F5F5E1E
:104C70005E5D5D5C5C5B5B5A5A5959585857575694
:104C800056555555545453535252525151505050F9
:104C90004F4F4F4E4E4D4D4D4C4C4C4B4B4B4A4A4B
:104CA0004A4949494848484747474746464645458F
:104CB00045444444444343434342424242414141C8
:104CC000002B26D4770021D01CB54FEA370703B458
:104CD0004FF010004FF010014FF000000FBCBDE886
:104CE00010400BF1010BBBF1010F08BF5FEA170782
:104CF00022BF12F1010211F101014FF0004143F115
:104D0000000300F0004043EA00007047F9D3570861
:104D1000DAE746EA064613F1400F4FEA16461FDD72
:104D200013F1200FDFBF16430A46002120335B42F8
:104D3000C8D0C3F1200746EA064602FA07F74FEA51
:104D4000164646EA0706C3F1200722FA03F201FAE3
:104D500007F721FA03F14FF0000342EA0702B1E737
:104D600046EA020646EA06464FEA164646EA0106C3
:104D7000BCBF46EA0646360C4FF000034FF0000277
:104D80004FF000019EE72DE9C048934630B491E80A
:104D9000380007C831EA400C48BF34EA430C03D559
:104DA000FFF7F2FDFFF78CFFF0BCBDE800882DE9AE
:104DB000C048934630B491E8380007C810F0804FDF
:104DC00008BF13F0804F03D100F005F8FFF778FF1C
:104DD000F0BCBDE8008820F07F4780EA030023F0A4
:104DE0007F4C07EB0C03A3F57C5300F00040A3F1CC
:104DF000FE0392F0000F00F0B38095F0000F00F07A
:104E000077802DE901494FEA11404FEA144621EA23
:104E1000004800FB06FC24EA064708FB06F607FBF1
:104E200008F800FB07F718EB06484CEB164C4FEA66
:104E3000124B18EB07484FEA15464CEB174022EA95
:104E40000B4E0BFB06FC25EA06470EFB06F607FB9E
:104E50000EFE0BFB07F71EEB064E4CEB164C4FF00D
:104E600000061EEB074E4CEB174B18EB0B0840F1FE
:104E7000000018EB0E0B58EB000840F100008F1AF1
:104E80004FF000013CBFC943661B14BFB5EB040CD7
:104E900000213CBFC943F61B4FEA17444EEA8E0E71
:104EA00027EA04454FEA1C4704FB07622CEA074C3B
:104EB00005FB07F70CFB05F604FB0CFC16EB07469D
:104EC00042EB174216EB0C4642EB1C421BEB06066C
:104ED00058EB0202414146EA9E0601D5BDE8018930
:104EE000B619524141EB0101A3F10103BDE801896B
:104EF0004FEA14454FEA114724EA054621EA074CD8
:104F000005FB07F406FB07F70CFB06F105FB0CFCA1
:104F100011EB074144EB17444FEA124711EB0C41E8
:104F200044EB1C4422EA074C05FB07F206FB07F79B
:104F30000CFB06F605FB0CFC16EB074642EB174292
:104F400016EB0C4642EB1C456A1854F1000148BFB1
:104F50007047B619524141EB0101A3F101037047BB
:104F600095F0000F37D04FEA11424FEA144721EA7B
:104F7000024624EA074C02FB07F106FB07F70CFB8D
:104F800006F402FB0CFC14EB074441EB17414FEA1B
:104F9000154714EB0C4441EB1C4125EA074C02FB7E
:104FA00007F506FB07F70CFB06F602FB0CFC16EBFD
:104FB000074645EB174516EB0C4645EB1C4212190C
:104FC00051F1000148BF7047B619524141EB010150
:104FD000A3F1010370474FEA14454FEA114724EA51
:104FE000054621EA074C05FB07F106FB07F70CFB1A
:104FF00006F24FF0000605FB0CFC12EB074241EBFA
:10500000174112EB0C4251EB1C4148BF70479218FC
:1050100041EB0101A3F101037047490050EAC120AF
:1050200018BF04204A0D18BF40F0010040F2FF7283
:10503000B2EB515F08BF40F00200012808BF052015
:10504000704730380A2801D201207047002070478D
:1050500010B500290AD00878002807D00548784400
:10506000FFF7E0FB002801D0002010BD0248784483
:1050700010BD0000AE010000A601000010B500291F
:105080000AD00878002807D005487844FFF7CAFB03
:10509000002801D0002010BD0248784410BD000057
:1050A000920200008A020000FFF70EB93438343350
:1050B00038003230386C3877313833382E35316D2E
:1050C0007970632E636E00303132333435363738C1
:1050D0003941424344454640305800303132333440
:1050E000353637383961626364656640307800046C
:1050F0000000080000000000000002000100001095
:10510000000000000000000002400000000000A0BD
:105110000000000005400000000000C80000000082
:105120000C4000000000409C0000000019400000FE
:105130000020BCBE0000000034400000BFC91B8E30
:1051400000000004B5400000504BCFD06607E2CF0E
:10515000010000006C4100003E8251AADFEEA7343E
:1051600001000000D9420000DCB5A0E23A301F97F0
:10517000FFFFFFFFB4450000FD25A0C8E9A3C14F14
:10518000FFFFFFFFFF3F0000000000800000000065
:10519000FF3F0000000000800000000072656376A1
:1051A00020756E6C6F636B206572723A30782530B3
:1051B00034782C203078253034782C203078253005
:1051C00034782C203078253034782C2025732C200E
:1051D0003078253034782C2025732C2030782530F9
:1051E00032780A00544350005544500038530008A8
:1051F000000000209800000028010008D05300089B
:1052000098000020680C0000440100081001000014
:1052100043000000F8FFFFFF004040404040404096
:105220004040414141414140404040404040404079
:10523000404040404040404040050202020202021D
:10524000020202020202020202202020202020206C
:105250002020200202020202020290909090909080
:10526000101010101010101010101010101010103E
:1052700010101010020202020202888888888888B2
:10528000080808080808080808080808080808089E
:1052900008080808020202024000000000000000A6
:1052A00000000000000000000000000000000000FE
:1052B00000000000000000000000000000000000EE
:1052C00000000000000000000000000000000000DE
:1052D00000000000000000000000000000000000CE
:1052E00000000000000000000000000000000000BE
:1052F00000000000000000000000000000000000AE
:10530000000000000000000000000000000000009D
:105310000000000000000000000000001C00000071
:1053200043000000F8FFFFFF0C0000000E0000002B
:105330000F0000002E00000000A24A040000000040
:105340000000000001020304060708090000000035
:10535000000000000000000000000000000000004D
:1053600000000000000000006707FFF0510099678F
:105370000700F0530099670700F0510099670F008C
:10538000F0540000000000000000000000000000D9
:1053900000000000000000000000000002040608F9
:1053A00000000000010203040102030406070809CB
:1053B000000000003031300000000000000000005C
:1053C0000000000000000000E4510008E85100085F
:04000005080000ED02
:00000001FF
