:020000040800F2
:10000000E00E0020911100087D0200087F02000828
:100010008102000883020008850200080000000039
:10002000000000000000000000000000870200083F
:1000300089020008000000008B0200088D02000801
:10004000AB110008AB110008AB110008AB110008A0
:10005000AB110008AB110008AB110008AB11000890
:10006000AB110008AB110008AB110008AB11000880
:10007000AB110008AB110008AB110008AB11000870
:10008000AB110008AB110008AB110008AB11000860
:10009000AB110008AB110008AB110008AB11000850
:1000A000AB110008AB110008AB110008AB11000840
:1000B000AB110008AB11000837070008AB110008AE
:1000C000AB110008AB110008AB110008AB11000820
:1000D000AB110008CB0F00086704000857080008A0
:1000E000AB110008AB110008AB11000800F002F8DA
:1000F00000F090F80AA090E8000C82448344AAF132
:100100000107DA4501D100F085F8AFF2090EBAE82F
:100110000F0013F0010F18BFFB1A43F0010318473B
:100120005441000074410000103A24BF78C878C1DF
:10013000FAD8520724BF30C830C144BF04680C60ED
:10014000704700000023002400250026103A28BF35
:1001500078C1FBD8520728BF30C148BF0B60704739
:100160006E2902F00287702902F03185662904F0B9
:100170000380652904F00080672903F0FD87612969
:10018000AFF3008003681B0A28BF41F08001692992
:1001900002F0A284642902F09F84752902F09C84F5
:1001A0006F2902F0E987782902F0FD84E92902F03D
:1001B0008387E42902F08087F52902F07D87EF2903
:1001C00002F0E687F82902F0FC840368DB0928BF07
:1001D00041F08001632902F00487732902F0098746
:1001E000E32903F06D82F32903F072820020704747
:1001F0001FB503F0BFFA04000020002103F0A6FFA2
:10020000401C60600020002103F08AFFE0601FBDF9
:1002100010B510BD03F080FA1146FFF7E9FF00F0BA
:1002200008F803F059FB03B4FFF7F2FF03BC00F03A
:10023000F9FC00F0B7FC00F0EDF800F0EFFC4FF433
:10024000165000F029FF00F045FC4FF4E13000F0BB
:1002500085F94FF4165000F0A9FA002000F0BFFC19
:10026000002000F03CFC4FF47A7000F0B8FC012054
:1002700000F035FC40F6B830F0E700007047FEE7CC
:10028000FEE7FEE7FEE770477047704710B500F0E5
:10029000B5FC07480168491C016006490868002848
:1002A0001CBF401C086001200349C1F8B40110BD07
:1002B000140000201C000020000022424D4882B0A3
:1002C000016841F00101016042684B491140416001
:1002D000016821F4102121F080710160016821F48E
:1002E00080210160416821F4FE0141604FF41F014B
:1002F0008160002200920192016841F48031016026
:10030000016801F4003101910099491C00910199A3
:1003100019B90099B1F5A06FF2D1016811F4003F4D
:1003200008BF019233D00121019134490A6842F09B
:1003300010020A600A6822F003020A600A6842F0AA
:1003400002020A604168416041684160416841F4CD
:1003500080614160416821F47C114160416841F451
:10036000E8114160016841F080710160016811F09D
:10037000007FFBD0416821F003014160416841F0FA
:1003800002014160416801F00C010829FAD11C49C1
:100390004FF00060086002B07047164B5868194A69
:1003A000194910F00C0018BF042801D0082801D00A
:1003B0000A6015E058685A6800F470104FF0020C9B
:1003C00012F4803F0CEB904003D05A6812F4003FC7
:1003D00003D00E4A5043086002E00A4A50430860C6
:1003E00058680B4AC0F30310105C0A6822FA00F048
:1003F00008607047001002400000FFF80020024033
:1004000008ED00E000127A000000002000093D0025
:100410000400002008B50121102001F051F94FF42B
:100420000050ADF8000010208DF8030003208DF877
:1004300002006946014800F036FF08BD0010014087
:10044000010010B5CF484FF0000108D0044602F07B
:100450006DF92046BDE81040012101F04EBFBDE816
:10046000104001F04ABF70B5C74C40F225512046FC
:1004700001F0F2FA002808BF70BD0021C348C0F89F
:10048000B411204601F087FAC14DC4B22888B0F5F6
:10049000806F28BF40F4004012D2BA4E002130468F
:1004A00002F044F9298839B90021304602F03EF9BA
:1004B0000121304601F021FFB64928880C54401C28
:1004C000288070BD30B50D46044685B0012104205A
:1004D00001F0FFF8ADF804400020ADF80050A94C41
:1004E000ADF80600ADF802006946204601F031FC87
:1004F00001221146204601F014FF1E208DF80C0049
:1005000001208DF80D0002218DF80E108DF80F00DE
:1005100003A801F0D2FA05B030BD70B50C4606460E
:1005200001218CB01546084601F0C1F8304602F0B2
:1005300075F900211020CDE902018020CDE90410D9
:100540004001CDE9081006910A91079169463046AD
:10055000CDE9004502F0C9F90CB070BD2DE9F043BA
:10056000044691B00121042001F0AAF801214804B9
:1005700001F0AFF8844F384601F0F2F80425ADF8E9
:100580002C5003268DF82E601820DFF80C828DF891
:100590002F000BA9404600F086FE0820ADF82C0085
:1005A0008DF82F500BA9404600F07DFE0C940024DE
:1005B000ADF838400C20ADF83440ADF83A00ADF855
:1005C0003640ADF83C400CA9384601F013F9012241
:1005D0008021384601F0A9F90121DFF8C09107F127
:1005E00004086F4D084601F062F8484602F016F91B
:1005F0001020CDE902048020CDE90440400106949A
:10060000CDE908400A94CDE900850794694648463B
:1006100002F06BF90121384601F066F9012240F23F
:100620002551384601F069F926208DF8400002274F
:100630008DF841708DF842604FF001088DF84380CD
:1006400010A801F03AFA632641F61F450121042063
:1006500001F03FF8ADF800504A4DADF80460ADF838
:100660000640ADF802406946284601F072FB0122BF
:100670001146284601F055FE1E208DF80C008DF81D
:100680000D808DF80E708DF80F8003A801F015FA1B
:100690003F4800210480284601F02FFE11B0BDE83C
:1006A000F08370B50C460546002102F054F921464E
:1006B000284602F062F92846BDE87040012102F0A8
:1006C0004AB90FB4364870B505AA049902F0A2F9E8
:1006D0003448D0F884100029FBD1304D304802F066
:1006E00071FB84B20021284602F035F921462846E4
:1006F00002F043F90121284602F02DF970BC5DF8A3
:1007000014FB70B50C460A460146254802F079FBF9
:100710002448D0F884100029FBD1204D284602F04F
:100720001AF92146284602F028F92846BDE870400B
:10073000012102F010B910B5124C0121204602F03F
:1007400021F8002808BF10BD0121204602F025F83D
:100750000F4920460A8842F400420A80BDE8104052
:10076000002101F0CABD10B504460021054801F082
:10077000DDFF0D49088800220A800A8842EA040049
:10078000088010BD000800400044004000002242E4
:1007900022000020480400200008014080000240A0
:1007A00048000020000002402C080040F0B504463C
:1007B00087B00121092000F083FF0121880400F0A7
:1007C00088FF4C4E304600F0CBFF3015ADF80000EE
:1007D00003258DF802501820474F8DF80300694615
:1007E000384600F060FDF014ADF8000004208DF8EC
:1007F00003006946384600F056FD0220ADF80000BF
:1008000010208DF803008DF8025069463B4800F037
:100810004AFD27208DF8040000208DF805000120F6
:100820008DF806008DF8070001A801F046F902A82E
:1008300001F037F802A93046029400F0DBFF0122F4
:1008400040F22551304601F058F80121304601F0C0
:100850004BF807B0F0BD70B5264C4021204601F0A2
:10086000F8F840F22551204601F0F6F8002808BFBC
:1008700070BD00202249C1F8B4012546204601F090
:100880008AF8C4B2012000F0AAF92146284601F0F6
:100890007EF88021284601F0D5F80028F9D0BDE87F
:1008A0007040022000F09BB910B5124C0146204662
:1008B00001F06DF88021204601F0C4F80028F9D03D
:1008C00010BD2DE9F0410D4606460024094F0AE00F
:1008D000384601F05CF88021384601F0B3F8002872
:1008E000F9D0601C84B2315D002918BFAC42EFD34F
:1008F000BDE8F0810048004000080140000C0140C4
:100900000000224208B50121082000F0D9FE802015
:10091000ADF8000010208DF8030003208DF80200D0
:100920006946064800F0BFFC08BD8021034800F07E
:1009300036BD8021014800F034BD0000000C0140AC
:1009400038B500216A4801F0D8FC2020ADF800003D
:1009500010208DF803000320664C8DF802006946D4
:10096000204600F0A0FC2021204600F01AFD38BDF2
:100970002DE9F0415E4F20260325DFF8788182B013
:1009800004467A2803D944F62060844215D9002110
:10099000384601F0B2FCADF8046010208DF8070075
:1009A0008DF8065001A9404600F07DFC202140460C
:1009B00000F0F7FC02B0BDE8F08101214E4800F0E4
:1009C0000FFDADF8006018208DF803008DF802507F
:1009D0006946404600F067FC4848B0FBF4F4A1B219
:1009E000384601F0A5FEC4F34F01384601F0A4FEDD
:1009F0000121384601F081FC02B0BDE8F0812DE90B
:100A0000F04FDFF8F0A083B0064600244FF0200836
:100A10004FF0100B4FF0030906EB8407788800288D
:100A200004BF03B0BDE8F08F36F824507A2D03D907
:100A300044F62060854212D900212D4801F05DFC6A
:100A4000ADF804808DF807B08DF8069001A95046E6
:100A500000F029FC2021504600F0A3FC1EE00121FB
:100A6000254800F0BDFCADF8008018208DF803008B
:100A70008DF802906946504600F015FC1F48B0FB07
:100A8000F5F5A9B21A4801F053FEC5F34F01184815
:100A900001F052FE0121164801F02FFCB7F90200C7
:100AA00000F09DF8601CC4B20021114801F025FC43
:100AB000ADF800808DF803B08DF80290694650467D
:100AC00000F0F1FB2021504600F06BFC0A2000F002
:100AD00086F8A1E70A2143F63F0000F015B820B1DF
:100AE000012818BF7047064889E7064887E70000D5
:100AF00000040040000C014000081A0000127A00B7
:100B00008C4100087C41000830B50D46044689B090
:100B10000121022000F0DDFD0121092000F0D0FDBF
:100B200001211D4800F05CFC2022ADF81C20182299
:100B30008DF81F2003228DF81E2007A9174800F00A
:100B4000B2FBADF81440ADF810500024144DADF8D0
:100B50001640ADF8124004A9284601F0FAF87021B9
:100B6000ADF800100121ADF802100221ADF8081017
:100B7000ADF806406946284601F077F90821284675
:100B800001F0BBFC0121284601F08DFC0121284623
:100B900001F0B3FB09B030BD00081A00000C0140A1
:100BA000000400401A484FF47A710068B0FBF1F07D
:100BB000B0F1807F12D220F07F40411E4FF0E02044
:100BC0004161144AF02182F8141D0021816107213E
:100BD0000161016921F0010101617047FEE701B483
:100BE0000D48009901604FF0E0210A6942F00102CE
:100BF0000A6101680029FCD101B07047064801680C
:100C0000002908BF70470168491E01607047000055
:100C1000000000200FE000E0240000204FF4A0605E
:100C200000F044BF7047FC490A8812F0400FFBD027
:100C3000FA4AC1B21180704790F82420082A28BFD0
:100C40007047DFE802F019040A1315151517CA1FBB
:100C50000C2A11D8018400F06EBAFF2908D0F04A9E
:100C60001278914218BF002A02D005E0F02903D182
:100C700000F061BA992901D000F075BA428C815414
:100C80000021418480F82410012180F8251070474C
:100C900003004FF0000012BF00290020704701221E
:100CA000891E0129D8BF704713F802C0521C604446
:100CB00092B2C0B29142F7DC704710B504460128E9
:100CC00006D0FFF736FED6488470D648046010BDC3
:100CD000FFF72BFEF7E770B5D24DD349286888425D
:100CE00038BF70BD0024FFF724FECD48CF49847083
:100CF00052202C60087070BD70B50546CC480E4679
:100D0000CC490068A1FB002189084A4202EB82011C
:100D100008444FF47A4148434FF49661B0FBF1F038
:100D2000FFF75DFF701E84B22CBFBB4E70BD15F87F
:100D3000011B304600F02BFE8021304600F082FE81
:100D40000028F9D0611E8CB2F1D270BD2DE9F043BC
:100D5000064690F8250091B001281CBF11B0BDE8EF
:100D6000F08300250095019502950395049505955E
:100D700006950795B6F82080089509950A956C4662
:100D800001270B950C950D950E954246314608A806
:100D90000F9502F036F89DF8200067287ED10DF1FE
:100DA000200C0CEB080919F8010C992876D10021C8
:100DB0006246B8F1000F08BF29460CD00120A8F107
:100DC0000203012B07DD12F80080401C414480B271
:100DD000C9B28342F7DC19F8020C814278D168204D
:100DE00004F8020BDFF838829DF8230004F8010BA9
:100DF00098F8000004F8010B9DF8240020709DF87D
:100E00002400512817D0532804D0542865D05528E1
:100E10007ED05DE098F80100002818BF012004F89A
:100E2000010F40B1D8F80300C4F80100D8F807005A
:100E3000C4F805000834002F4AD0992004F8020FA6
:100E40006846201A401C10F0FF038DF801306A46F6
:100E50004FF0000108BF29460BD001209B1E012B3B
:100E600007DD12F800C0401C614480B2C9B2834261
:100E7000F7DC04F8011C6E486E49144600689DF8C2
:100E80000180A1FB00218908494201EB810108444E
:100E90004FF47A4148434FF4966100E018E0B0FB0C
:100EA000F1F0FFF79CFEB8F1010087B228BFDFF830
:100EB00068810DD314F8011B404600F068FD8021C5
:100EC000404600F0BFFD0028F9D0791E8FB2F1D264
:100ED00086F8255011B0BDE8F083082256490CF180
:100EE000050001F043FF18B1012004F8010FA2E74B
:100EF00098F80100002808BF02200BD04FF001092C
:100F0000FFF713FD474888F80290C0F8009000E012
:100F100003E0FF2004F8010F8DE798F80100012895
:100F200018BF002004F8010F002884D07AE7F0B53C
:100F3000054687B0012144F2040000F0C1FB364EA3
:100F4000304600F00DFC7015ADF8100003248DF84C
:100F500012401820394F8DF8130004A9384600F0CC
:100F6000A2F93015ADF8100004208DF8130004A983
:100F7000384600F098F925208DF814008DF81540BA
:100F80008DF8164001208DF8170005A800F095FD9A
:100F90000020ADF80400ADF80600ADF80800ADF88B
:100FA0000C000C20ADF80A0000956946304600F0B0
:100FB00021FC012240F22551304600F09EFC012127
:100FC000304600F091FC07B0F0BD70B518481C49E0
:100FD000002400680A68821A642A24BF194A82F829
:100FE000244008600C4D40F22551284600F034FDA5
:100FF000002808BF70BD1448C0F8B441284600F06E
:10100000CAFCC1B20F48FFF717FE2846BDE8704082
:1010100040F2255100F041BD003801400438014044
:10102000280000201C00002080F0FA022000002090
:1010300014000020CDCCCCCC2B00002000080140B7
:1010400018000020540800200000224210B54B4C2C
:101050000146204600F09BFC8021204600F0F2FC77
:101060000028F9D010BD2DE9F0410D4606460024B8
:10107000424F0AE0384600F08AFC8021384600F0F2
:10108000E1FC0028F9D0601C84B2315D002918BF52
:10109000AC42EFD3BDE8F081F8B505463948384990
:1010A0000368001DD0F800C0001D02680B70180A0C
:1010B0004870180C8870180EC87081F804C04FEA88
:1010C0001C2048714FEA1C4088714FEA1C60C871AF
:1010D0000A72100A4872100C8872100EC8722A4CDC
:1010E0000121082000F0ECFA48208DF803000320CD
:1010F0008DF802004FF48050244FADF8000069468F
:10110000384600F0D0F87814ADF80000694638464B
:1011100000F0C9F8B914384600F02DF906467914E4
:10112000384600F028F9401C06FA00F020702846E6
:10113000BDE8F840FBE6428C815490F82210491C2F
:1011400001F01F02428490F82410052918BF491CA1
:1011500002D080F824107047911C028C914208BF85
:101160000621F6D07047002267291EBF428480F80E
:101170002420704780F825204284DCE700380140B5
:1011800048080020E8F7FF1F28000020000C01405D
:101190000948804709480047FEE7FEE7FEE7FEE70B
:1011A000FEE7FEE7FEE7FEE7FEE7FEE70448054947
:1011B000054A064B70470000BD020008ED0000081C
:1011C000E0080020E00E0020E00A0020E00A0020F5
:1011D00010B5A0F18041B1F584311DD0B1F5806129
:1011E00024D0B1F580612BD0B1F5806132D0B1F55A
:1011F000806139D0B1F5806140D0B1F5806118BF10
:1012000010BD0121080200F06DFABDE81040002178
:101210004FF4807000F066BA0121042000F062FAF9
:101220000021BDE81040042000F05CBA0121082034
:1012300000F058FA0021BDE81040082000F052BA32
:101240000121102000F04EFA0021BDE810401020CE
:1012500000F048BA0121202000F044FA0021BDE846
:101260001040202000F03EBA0121402000F03AFA60
:101270000021BDE81040402000F034BA0121802058
:1012800000F030FA0021BDE81040802000F02ABABA
:1012900010B50121084600F025FA0021BDE81040F4
:1012A000012000F01FBA2DE9F00191F803C00022DF
:1012B0000CF00F031CF0100F1CBF91F802C04CEA99
:1012C000030391F800C04FF00F071CF0FF0F4FF021
:1012D000010618BF04681CD00D8806FA02FC05EA56
:1012E0000C05654511D1950007FA05F824EA0804B4
:1012F00003FA05F52C43CD78282D08BFC0F814C09B
:1013000003D0482D08BFC0F810C0521C082AE3D3F0
:1013100004600A88FF2A87BF44680022BDE8F00104
:10132000704702F1080C0D8806FA0CFC05EA0C0562
:10133000654511D1950007FA05F824EA080403FA77
:1013400005F52C43CD78282D08BFC0F814C0CD7802
:10135000482D08BFC0F810C0521C082AE1D34460D1
:10136000BDE8F00170474FF6FF71018002218170E6
:101370000421C17070470246002092680A4218BFDB
:1013800001207047806880B2704702460020D26812
:101390000A4218BF01207047C06880B270470161DF
:1013A000704741617047002A14BF01614161704775
:1013B000C160704741F480328261816182618169DC
:1013C000806970472E4B1A684FF6807C02EA0C0247
:1013D00042EA00100843186070472A49C861704704
:1013E00070B4DFF89CC010F0004F14BFDCF81C2074
:1013F000DCF80420C0F303444FF4401333EA000543
:101400004FEA50534FEA031386B206FA03F316D09D
:1014100010F4801F08BF9A4303D0032505FA04F493
:10142000A24342F07062002918BF1A4310F0004F27
:1014300014BFCCF81C20CCF8042070BC7047DCF83A
:10144000044022F0706224F07064CCF80440EAE7B3
:101450008A0721F0030101F1804101F58031120F6B
:101460000F23D1F808C093402CEA03038B608B68EC
:1014700090401843886070470249C1F8DC0070470B
:101480000000014000002042AC48016841F0010129
:1014900001604168AA4A11404160016821F41021AD
:1014A00021F080710160016821F4802101604168B0
:1014B00021F4FE0141604FF41F01816070479F4994
:1014C0000A6822F480320A600A6822F480220A60E4
:1014D000B0F5803F04BF086840F4803006D0B0F516
:1014E000802F06BF086840F4A0207047086070474E
:1014F00000224109914B012908BF196803D0022934
:101500000CBF196A596A00F01F00012303FA00F0AA
:10151000084218BF01221046704708B50020874ACC
:1015200000900020116811F4003F18BF01200099BD
:10153000491C0091B1F5A06F01D00028F1D03120F5
:10154000FFF7D6FF002818BF012008BD7B4A1168AD
:1015500021F0F80141EAC000106070477949086045
:101560007047764B5A68084322F47C121043586047
:101570007047744908667047704A516821F003014A
:101580000843506070476D48406800F00C00704799
:101590006A4A516821F0F001084350607047674A79
:1015A000516821F4E061084350607047634A516814
:1015B00021F4605141EAC000506070475F4A002941
:1015C000517A14BF084321EA0000507270475D4908
:1015D000C1F8D8007047594A516821F44041084386
:1015E000506070475549002281F8202081F8202062
:1015F000012803D004280CBF0520704781F8200083
:1016000070475149086070474C490A6A10430862A4
:1016100070474E4908607047484A10B451684C4BB7
:1016200011F00C0118BF042901D0082901D0036072
:1016300015E05168536801F470114FF0020C13F477
:10164000803F0CEB914103D0536813F4003F03D06B
:10165000404B5943016002E03D4B594301605168E2
:101660000F23DFF8F4C003EA11111CF8011003681E
:1016700023FA01F141605368072404EA13231CF89C
:10168000033021FA03F38360536804EAD3231CF880
:101690000330D940C1605268032303EA9232ACF1AF
:1016A00004039A5CB1FBF2F1016110BC7047234A5C
:1016B0000029516914BF084321EA000050617047B6
:1016C0001E4A0029916914BF084321EA0000906175
:1016D00070471A4A0029D16914BF084321EA000063
:1016E000D0617047154A0029D16814BF084321EA28
:1016F0000000D0607047114A0029116914BF0843E7
:1017000021EA0000106170471449086070470D49D4
:10171000C86470470949C87170470848416A41F078
:10172000807141627047054A0146002092680A4272
:1017300018BF0120704701498872704700100240AD
:101740000000FFF800004242800442423C04424252
:1017500000127A0000093D00370000204004424298
:1017600010B5A0F18041B1F59C3117D011F574414D
:101770001FD0B1F5806127D0B1F580612FD0B1F5D0
:10178000806118BF10BD01210805FFF7B4FFBDE857
:10179000104000214FF48010FFF7ADBF01218803F6
:1017A000FFF7A0FFBDE8104000214FF48040FFF795
:1017B00099BF01214804FFF79EFFBDE810400021BA
:1017C0004FF40030FFF797BF01218804FFF793FF24
:1017D000BDE8104000214FF48020FFF78CBF0121AD
:1017E000C804FFF788FFBDE8104000214FF4002037
:1017F000FFF781BF30B50446008A85B00D464CF630
:10180000FF710840E98808432082A0894EF6F31151
:101810000840A9882A8911436A8910430843A08196
:10182000A08A4FF6FF410840A9890843A082684674
:10183000FFF7F2FEA4F18040B0F59C300CBF039896
:101840000298A18911F4004F00EBC00101EB0010D8
:10185000296814BF49008900B0FBF1F0924A6FF08B
:10186000180CA2FB0031490909010B0903FB0CF319
:1018700000EB8300A38913F4004F4FF0320314BF31
:1018800003EBC00003EB0010A2FB00204FEA501056
:1018900014BF00F0070000F00F000843208105B0DE
:1018A00030BD4FF41651016000218180C18001815B
:1018B0000C22428181817047028A4FF2FF031A4055
:1018C0000B88B1F802C043EA0C03B1F804C0C98820
:1018D0004CEA010119431143018270470021018044
:1018E00041808180C18070470029818914BF41F403
:1018F000005121F4005181817047C1F3421301F07E
:101900001F014FF0010C0CFA01F1012B08BF0C3044
:1019100003D0022B0CBF10301430002A026814BF11
:10192000114322EA010101607047002A828A14BF34
:10193000114322EA010181827047028A22F00F02DC
:101940000282028A114301827047828922F4006276
:10195000828182891143818170470029818914BF66
:1019600041F0020121F0020181817047028A22F0D8
:1019700020020282028A1143018270470029018AF3
:1019800014BF41F4804121F4804101827047C1F3CA
:101990000801818070478088C0F308007047818902
:1019A00041F0010181817047028BD2B20283028B28
:1019B00042EA012101837047028B02F47F420283D5
:1019C000028B1143018370470029818A14BF41F0C3
:1019D000200121F02001818270470029818A14BFF3
:1019E00041F0100121F01001818270470029818AA5
:1019F00014BF41F0080121F00801818270470029DD
:101A0000818914BF41F40041C1F30E018181704707
:101A10000029818A14BF41F4006121F400618182B0
:101A20007047828A22F004028282828A1143818274
:101A300070470029818A14BF41F0020121F00201A0
:101A4000818270470246002012880A4218BF012096
:101A50007047C9430180704710B401F01F02012490
:101A6000C1F3421304FA02F24FF0000C012B04BF41
:101A700083891A4004D0022B0CBF038A838A1A4040
:101A8000090A008804FA01F10840002A1CBF002856
:101A90004FF0010C604610BC7047090A012202FA9F
:101AA00001F1C943018070471F85EB512D4940F07A
:101AB000FD7040F080600860704710B4C278017813
:101AC0004FF00F0C01242AB3264A126801F1E021DD
:101AD00002F4E062C2F5E062120AC2F104032CFAD9
:101AE00002F290F801C00CFA03F390F802C00CEA7D
:101AF00002021A43120181F80024007800F01F014D
:101B000004FA01F14009800000F1E020C0F8001162
:101B100010BC704701F01F0004FA00F04909890069
:101B200001F1E021C1F8800110BC704721F07F0174
:101B300021F0604108430C49086070470B4A0029B6
:101B4000116814BF084321EA0000106070474FF08D
:101B5000E021042808690CBF40F0040020F00400D4
:101B6000086170470CED00E008ED00E010ED00E0CA
:101B700010B5A0F18041B1F596313BD0B0F1804F66
:101B80004DD011F5943140D0B1F5806151D0B1F50F
:101B9000806158D0B1F580615FD0B1F5806166D0C9
:101BA000B1F590316DD0B1F5C05175D0B1F580610E
:101BB0007DD0B1F580617DD011F59E317BD0B1F53E
:101BC000806179D0B1F5806177D0B1F5903175D071
:101BD000B1F5806173D0B1F5806118BF10BD0121EE
:101BE0008804FFF77FFDBDE8104000214FF48020FE
:101BF000FFF778BD0121C802FFF774FDBDE8104072
:101C000000214FF40060FFF76DBD01210220FFF7B6
:101C100072FD0021BDE810400220FFF76CBD0121DC
:101C20000846FFF768FD0021BDE810400120FFF7DE
:101C300062BD01210420FFF75EFD0021BDE81040D8
:101C40000420FFF758BD01210820FFF754FD0021B3
:101C5000BDE810400820FFF74EBD01211020FFF71E
:101C60004AFD0021BDE810401020FFF744BD0121CE
:101C70002020FFF740FD0021BDE810402020FFF7A5
:101C80003ABD01214803FFF72DFDBDE810400021BA
:101C90004FF40050FFF726BD0121C804FFF722FDD5
:101CA000BDE8104000214FF40020FFF71BBD0121CB
:101CB000080505E00DE017E020E029E033E03DE015
:101CC000FFF710FDBDE8104000214FF48010FFF732
:101CD00009BD01214805FFF705FDBDE810400021C1
:101CE0004FF40010FFF7FEBC01214020FFF703FD79
:101CF0000021BDE810404020FFF7FDBC01218020FD
:101D0000FFF7F9FC0021BDE810408020FFF7F3BC8D
:101D100001210802FFF7EFFCBDE8104000214FF45D
:101D20008070FFF7E8BC01210804FFF7DBFCBDE889
:101D3000104000214FF48030FFF7D4BC012148044B
:101D4000FFF7D0FCBDE8104000214FF40030FFF752
:101D5000C9BC10B40288DFF8F0C3FC4B604518BF63
:101D6000984211D0B0F1804F1CBFA0F18044B4F56F
:101D7000806409D0A0F18044B4F500641CBFA0F1D8
:101D80008044B4F5406403D14C8822F070022243B1
:101D9000A0F18044B4F580541CBFA0F18044B4F598
:101DA000A05403D0CC8822F44072224302808A8857
:101DB00082850A880285604518BF98420DD0A0F13F
:101DC0008042B2F5A0321FBFA0F18042B2F5A2322C
:101DD000A0F18042B2F5A43201D1097A0186012135
:101DE000818210BC704710B4028C22F00102028480
:101DF000028C8388B0F818C00C882CF0730C44EA6D
:101E00000C0C0C8922F0020222434C882243A0F1E0
:101E10008044B4F596341CBFA0F18044B4F59A34E4
:101E20000DD0A0F18044B4F5A0341FBFA0F18044D0
:101E3000B4F5A234A0F18044B4F5A4340DD14C899A
:101E400022F0080222438C8822F0040222438C896B
:101E500023F440732343CC8923438380A0F818C024
:101E6000C9888186028410BC704730B4028C22F08D
:101E700010020284028C8388B0F818C00D882CF4FC
:101E8000E6444FF6FF7C0CEA05252C430D8922F031
:101E900020020CEA05152A434D880CEA05152A4351
:101EA000A0F18045B5F596351CBFA0F18045B5F58C
:101EB0009A3516D14D8922F080020CEA05152A4385
:101EC0008D8822F040020CEA05152A438D8923F4FF
:101ED00040630CEA85052B43CD890CEA850C4CEA5E
:101EE000030383800483C9880187028430BC704760
:101EF00030B4028C22F480720284028C8388B0F8A1
:101F00001CC00C882CF0730C44EA0C040D894FF6AD
:101F1000FF7C22F400720CEA05252A434D880CEA66
:101F200005252A43A0F18045B5F596351CBFA0F1E3
:101F30008045B5F59A3516D14D8922F400620CEA38
:101F400005252A438D8822F480620CEA05252A4360
:101F50008D8923F440530CEA05152B43CD890CEAF7
:101F6000051C4CEA030383808483C988818702842B
:101F700030BC704730B4028C22F480520284038C4F
:101F80008288B0F81CC00D884FF6FF742CF4E64C24
:101F900004EA052545EA0C0C0D8923F4005304EAF4
:101FA00005352B434D8804EA05352B43A0F18045C8
:101FB000B5F596351CBFA0F18045B5F59A3505D12C
:101FC0008D8922F4804204EA851422438280A0F89D
:101FD0001CC0C988A0F84010038430BC7047828BB5
:101FE00022F440628283828B4FF6FF7303EA012161
:101FF000114381837047828B22F00C028283828B93
:10200000114381837047028B22F440620283028B6A
:102010004FF6FF7303EA012111430183704770B447
:10202000B0F820C02CF0100CA0F820C0058BB0F840
:1020300020C04FF6FF7625F4734506EA03332B43A1
:1020400006EA02221A43A0F1804306EA0114B3F51E
:1020500096331CBFA0F18043B3F59A3314D0B0F18E
:10206000804F1CBFA0F18043B3F580630CD0A0F17A
:102070008043B3F500631FBFA0F18043B3F5406315
:102080002CF0A003194302D12CF02001214341F090
:1020900010010283018470BC7047028B22F00C0295
:1020A0000283028B1143018370472DE9F05F0D46D7
:1020B00004460888244FDFF89480DFF89490DFF816
:1020C00094A0DFF894E04988AA882B89002845D09D
:1020D0004FF6FF7604284DD00828208C58D020F4E5
:1020E00080502084B4F81CB0208C2BF4734B06EA8B
:1020F000022242EA0B0206EA03331A4306EA013CD3
:10210000BC4218BF44450BD0B4F1804F18BF4C45BA
:1021100006D054451EBF744520F40240084303D145
:1021200020F4005040EA0C0040F48050A283208448
:10213000A879A18B21F44061A183A18B06EA00203C
:102140000843A083BDE8F09F002C0140003401400B
:102150000004004000080040000C0040204600F051
:102160001FFBE888218B21F00C012183218B084380
:102170002083E7E72046FFF752FFA879218B21F45F
:1021800040612183218B06EA002008432083D9E7A0
:1021900020F480702084B4F81CC0208C06EA03135D
:1021A0001A432CF0F30C06EA012B42EA0C02BC4263
:1021B00018BF44450BD0B4F1804F18BF4C4506D032
:1021C00054451EBF744520F42060084303D120F419
:1021D000007040EA0B0040F48070A2832084E888FD
:1021E000A18B21F00C01A183A18B0843A083A9E757
:1021F0002DE9F0410C464988012605464FF00008BC
:10220000002908BF4FF00208A288012A08BF022651
:102210002088238900284FF6FF7728461BD0FFF738
:10222000FEFEA079298B21F440612983298B07EADE
:10223000002008432883238932464146284600F07F
:10224000AFFAE088298B21F00C012983298B084300
:102250002883BDE8F08100F0A3FAE088298B21F003
:102260000C012983298B0843288323893246414660
:102270002846FFF7D4FEA079298B21F440612983F9
:10228000298B07EA002008432883BDE8F0810A88EB
:102290004B88B1F806C01A438B8843EA0C031A43F3
:1022A0000B891A434B8989891A431143A0F84410BA
:1022B00070474FF6FF71818000210180C18041800D
:1022C000017270470021018041808180C1800181BD
:1022D00041818181C18170470021018041800122BB
:1022E0008280C1800181704700210180418081800E
:1022F000C18001814181818170470029018814BF1B
:1023000041F0010121F00101018070470029B0F87E
:10231000441014BF41F40041C1F30E01A0F8441071
:102320007047002A828914BF114322EA010181818A
:102330007047818270471143A0F848107047002A07
:10234000828914BF114322EA01018181704701890A
:1023500021F0070101817047028922F070021143C8
:1023600001817047028922F07002114301810189C5
:1023700041F007010181704770B594460D46602910
:1023800004464FF0010261460BD000F009FA2089A3
:1023900020F0700028432081208940F00700208130
:1023A00070BDFFF73CFEF2E710B4B0F808C04FF67E
:1023B000FF7404EA03231A430CF0FF0C114341EAB3
:1023C0000C01018110BC704710B4B0F808C04FF682
:1023D000FF7404EA03231A430CF0FF0C114341EA93
:1023E0000C010181018941F07701018110BC704726
:1023F00010B4B0F808C04FF6FF7404EA03231A4380
:102400000CF0FF0C114341EA0C010181018941F4F8
:102410008041018110BC704701858282704702882B
:1024200022F0700211430180704730B40589B0F882
:1024300018C0048C25F0070529432CF0030C2CF45C
:10244000407C40F201154CEA050C4FF6FF7505EA99
:10245000031324F022041A4322430181A0F818C078
:10246000028430BC7047028B22F07002114301835A
:102470007047028B4FF6FF7322F4E04203EA01211A
:10248000114301837047828B22F0700211438183D4
:102490007047828B4FF6FF7322F4E04203EA01217A
:1024A0001143818370470029018814BF41F08001E6
:1024B00021F08001018070470029818814BF41F01C
:1024C000040121F00401818070470029818814BF34
:1024D00041F0080121F008018180704700298188BE
:1024E00014BF41F0010121F0010181807047028B8E
:1024F00022F00802114301837047028B4FF6FF73ED
:1025000022F4006203EA0121114301837047828BA8
:1025100022F00802114381837047828B4FF6FF73CC
:1025200022F4006203EA0121114381837047028B88
:1025300022F00402114301837047028B4FF6FF73B0
:1025400022F4806203EA0121114301837047828BE8
:1025500022F00402114381837047828B4FF6FF7390
:1025600022F4806203EA0121114381837047028BC8
:1025700022F08002114301837047028B4FF6FF73F4
:10258000C2F30E0203EA0121114301837047828BDB
:1025900022F08002114381837047828B4FF6FF73D4
:1025A000C2F30E0203EA0121114381837047028CBA
:1025B00022F00202114301847047028C22F00802CB
:1025C000114301847047028C4FF6FF7322F0200202
:1025D00003EA0111114301847047028C4FF6FF7327
:1025E00022F0800203EA0111114301847047028C3A
:1025F0004FF6FF7322F4007203EA012111430184B4
:102600007047028C4FF6FF7322F4006203EA012147
:10261000114301847047028C4FF6FF7322F400527D
:1026200003EA01311143018470470123B0F820C04F
:102630008B402CEA03030384038C02FA01F1194353
:10264000018470470423B0F820C08B402CEA0303B8
:102650000384038C02FA01F119430184704710B41A
:102660004FF0010C048C00F118030CFA01FC24EA71
:102670000C0CA0F820C0002918BF082910D0081F92
:10268000C0F34E001844016821F4E0410160016884
:102690004FF6FF7303EA02221143016010BC70473A
:1026A00003EB5100016821F07001016001681143E2
:1026B000016010BC70470029018814BF41F002017D
:1026C00021F00201018070470029018814BF41F008
:1026D000040121F00401018070470029818814BFA2
:1026E00041F0800121F0800181807047028822F052
:1026F000080202800288114301807047828822F01C
:10270000700282808288114381807047028922F0A2
:10271000070202810289114301817047028922F078
:1027200080020281028911430181704781847047D0
:102730008185704781867047018770478187704720
:10274000A0F840107047028822F44072028002888C
:10275000114301807047808E7047008F7047808FD3
:102760007047B0F840007047808C7047008D70470C
:1027700002460020128A0A4218BF01207047C9434E
:1027800001827047038A002280890B4200EA01001F
:102790001CBF0028012210467047C94301827047C0
:1027A00030B4B0F820C02CF0010CA0F820C0048B8D
:1027B000B0F820C04FF6FF7505EA03131A4324F062
:1027C000F3042243A0F18043B3F596331CBFA0F17C
:1027D0008043B3F59A331AD0B0F1804F1CBFA0F1FB
:1027E0008043B3F5806312D0A0F18043B3F500635A
:1027F0001CBFA0F18043B3F5406308D02CF00A035E
:10280000194341F001010283018430BC70472CF070
:102810000203194341F00101F5E7000002684FF699
:10282000FE71114001600021016041608160C16062
:10283000684A6949904204BF486840F00F0022D0BE
:10284000664A904204BF486840F0F0001BD0644ADA
:10285000904204BF486840F4706014D0614A9042CE
:1028600004BF486840F470400DD05F4A904204BFF6
:10287000486840F4702006D05C4A904204BF486823
:1028800040F4700001D148607047594A904204D129
:10289000486840F0706048607047564A111F904287
:1028A00004BF086840F00F0014D0534A904204BFA0
:1028B000086840F0F0000DD0504A904204BF08680C
:1028C00040F4706006D04E4A904204BF086840F45D
:1028D000704001D1086070474A4A904218BF704763
:1028E000086840F470200860704710B40268D1F89E
:1028F00020C08B686FF30E1243EA0C03D1E904C4C5
:102900004CEA040C43EA0C03D1F818C043EA0C0368
:10291000D1F81CC043EA0C03D1F824C043EA0C03ED
:10292000D1F828C043EA0C031A430260CA68426027
:102930000A6882604968C16010BC7047002101606C
:1029400041608160C160016141618161C161016279
:102950004162816270470029016812BF41F00101A4
:102960004FF6FE72114001607047002A026814BFE2
:10297000114322EA010101607047416070474068DD
:1029800080B27047002210F0805F14BF1E491249C8
:102990000968014218BF01221046704710F0805F9D
:1029A00019BF1A4908600C4948607047002210F0AE
:1029B000805F14BF144908490968014218BF012209
:1029C0001046704710F0805F19BF10490860024937
:1029D0004860704708000240000002401C000240AE
:1029E0003000024044000240580002406C000240A7
:1029F00080000240080402401C04024030040240EF
:102A0000440402405804024000040240040402400E
:102A1000704700001CB50C46064B7B44694600908D
:102A2000204600F0BCFA04460020694600F0CAFACD
:102A300020461CBDA705000070B5044685690068E6
:102A4000C10601D5302600E02026C00707D070BDA2
:102A5000D4E9012130469047206A401C20626D1E57
:102A6000F6D570BD70B5044685690078C00707D1FA
:102A700070BDD4E9012120209047206A401C2062CB
:102A80006D1EF6D570BD70B50C460546012A05D001
:102A90002878800600D5EA69002302E0012305E0DA
:102AA0005B1C934202D2E05C0028F9D1A869E618C9
:102AB000C01AA861286A184428622846FFF7BCFF9C
:102AC00004E0D5E9012114F8010B9047B442F8D392
:102AD0002846FFF7C7FF70BD2DE9F04106460024E8
:102AE00010687529314616A510D000F0D3F90028DA
:102AF00002DA404213A507E031688A0701D512A522
:102B000002E0490704D511A5012401E000F0CBF94A
:102B100000210A2206F1240709E0B0FBF2FCB0FB19
:102B2000F2F302FB1C00303078541846491C002890
:102B3000F3D123462A463046BDE8F04100F0BCB947
:102B4000000000002D0000002B000000200000000D
:102B5000F0B40D460188090502D5214C7C4402E001
:102B60001F4C7C440E34002100F1240608E002F0E2
:102B70000F071209E75D42EA03721B097754491CEB
:102B800052EA0307F3D102780023120704D5702D0F
:102B900006D009B1022311342246F0BC00F08CB9F2
:102BA00001231034F8E770B504460D46214610683D
:102BB00000F079F9024629462046BDE8704000231E
:102BC000C6E7D21D22F00703D3E90023C0E703685C
:102BD000126843F0200303600823C3610023B7E7B2
:102BE0003C1600002DE9F05F894604464FF0000ACC
:102BF000DFF874B1FB44C0F820A02046E1688847A4
:102C0000002874D0252806D0D4E901219047206AF5
:102C1000401C2062F1E700265F462046E1688847B5
:102C20002028054607DB312D05D2781910F8200C35
:102C300008B10643F1E7B00701D526F00406C4F851
:102C40001CA00027C4F818A02A2D09D0284601F09E
:102C500060FA38B304EB8708303DC8F8185019E023
:102C600059F8041B204604EB87029161E16888470C
:102C7000012F054618D1E069002820DA26F0200649
:102C80001DE0D8F8180000EB800005EB400030385C
:102C9000C8F818002046E1688847054601F039FA6F
:102CA0000028EED1012F0AD02E2D08D12046E16850
:102CB00088477F1C0546022F46F02006C4DBA0692A
:102CC000002803DA404246F00106A061F00701D077
:102CD00026F010066C2D0BD0682D09D04C2D39D064
:102CE0006A2D35D0742D35D07A2D33D016E038E0EA
:102CF000E1682F4620468847B842054609D16C2F27
:102D000026D04FF48060E168064320468847054698
:102D100004E06C2F1AD04FF4807006430DB3A5F178
:102D20004100192802D8203546F400664A46294653
:102D3000204626604E46FDF713FA80B101280BD0DD
:102D4000F61D26F0070000F1080956E74020E4E7E9
:102D50008020D8E70020D6E706F104094DE7284691
:102D600052E7206ABDE8F09FCC15000040EA01035D
:102D700010B59B070FD1042A0DD310C808C9121F24
:102D80009C42F8D020BA19BA884201D9012010BD5E
:102D90004FF0FF3010BD1AB1D30703D0521C07E02B
:102DA000002010BD10F8013B11F8014B1B1B07D18F
:102DB00010F8013B11F8014B1B1B01D1921EF1D100
:102DC000184610BD10B5431C02E010F8011B71B18C
:102DD0008107FAD14FF0013202C88C1A8C4314EAF1
:102DE000C211F9D0C01A0A0603D0C01E10BDC01A05
:102DF00010BD0A0401D0801E10BD0902FCD0401E87
:102E000010BD032A40F2308010F0030C00F0158052
:102E100011F8013BBCF1020F624498BF11F801CBDD
:102E200000F8013B38BF11F8013BA2F1040298BF42
:102E300000F801CB38BF00F8013B11F0030300F0AC
:102E4000B181083AC0F0088051F8043B083A51F8C3
:102E500004CBA0E80810F5E7121D5CBF51F8043B55
:102E600040F8043BAFF30080D20724BF11F8013BC8
:102E700011F801CB48BF11F8012B24BF00F8013B2A
:102E800000F801CB48BF00F8012B7047704770472E
:102E90007047704709684A0501D540B27047C905B7
:102EA000FCD500B2704709684A0501D5C0B2704729
:102EB000C905FCD580B270472DE9F0470D4699460B
:102EC0009246044600F124080168880604D5E069AA
:102ED00021F01001216000E00120A84201DD471B24
:102EE00000E00027A1697A1902EB0900081AA06125
:102EF0002078C00602D42046FFF79EFD002608E099
:102F0000D4E901211AF806009047206A401C761C7B
:102F100020624E45F4DB2078C0060AD52046FFF734
:102F20008BFD06E0D4E9012130209047206A401C47
:102F30002062381EA7F10107F4DC07E0D4E9012183
:102F400018F805009047206A401C2062281EA5F151
:102F50000105F3DC2046FFF785FD2078000602D549
:102F60000220BDE8F0870120FBE711680268006AD3
:102F7000530501D508700AE0D30501D5088006E0A5
:102F8000130603D5C217C1E9000200E00860012062
:102F90007047000001694A1C02610878704700B55B
:102FA0008FB0CDE901310021059105497944CDE982
:102FB000031011466846FFF715FE0FB000BD000074
:102FC000E5FFFFFF0A6802F8010B0A60704710B5C1
:102FD000436913B1AFF3008001E0FFF754FD012016
:102FE00010BD127800F124010A7000224A700122FB
:102FF000EDE711684FF0FF32E9E700002DE9FF5FD0
:1030000015468A460446DFF8AC80F8440027D8E924
:1030100000103E46CDE9001010E03AF816106A465E
:1030200002A800F059FB411C07D02178890603D57E
:10303000E269391891420DD80744761C2078800641
:1030400002D5E069B84205DDAE42E6DB3AF816008B
:103050000028E2D1A069C01BA0612046FFF7ECFC6C
:10306000D8E90010CDE90010002017E03AF8181058
:103070006A4602A800F030FBB0F1FF3F81460BD05A
:1030800000250DF1080B05E0D4E901211BF805002E
:1030900090476D1C4D45F7D308F10100B0428046C2
:1030A000E4DB206A384420622046FFF7DBFCBDE801
:1030B000FF9F0000CA1100002DE9F0418046D21D9B
:1030C00022F007020025D2E90002F52915A614D046
:1030D000011E72F1000106DA0023D0EB030063EB5E
:1030E000020211A608E0D8F800108B0701D50FA640
:1030F00002E0490701D50EA601251146002408F17A
:10310000240704E000F080F830323A55641C50EA9D
:103110000102F7D12B46324621464046BDE8F04138
:10312000FFF7CABE000000002D0000002B000000C9
:103130002000000030B4002100F1240408E002F077
:103140000705D208303542EA4372DB086554491C52
:1031500052EA0305F3D10468002310A2250708D51D
:1031600004F020040C4304D0C46901230CA2641EA3
:10317000C46130BCFFF7A0BE10B5044621461068FC
:10318000FFF791FE02462046BDE810400023D1E73C
:10319000D21D22F00701D1E90023CBE70000000097
:1031A0003000000010B5203AC0F00B80B1E8185094
:1031B000203AA0E81850B1E81850A0E81850BFF421
:1031C000F5AF5FEA027C24BFB1E81850A0E81850C0
:1031D00044BF18C918C0BDE810405FEA827C24BF14
:1031E00051F8043B40F8043B08BF7047D20728BFA2
:1031F00031F8023B48BF11F8012B28BF20F8023BF1
:1032000048BF00F8012B704730B5B0F10A024FEA11
:10321000900E71F100034EEA817EB0EB0E0061EB7F
:1032200091014FEA101E4EEA017E10EB0E0041EBB9
:1032300011114FEA102E4EEA016E10EB0E0041EB19
:1032400011214FEA104E4EEA014E10EB0E0041EBF9
:103250001141401841F100014FEAD00040EA4170AD
:103260004FEAD10110EB80054FEA810444EA9074E3
:1032700044EB01046D1944EB0404521BA3414FF0CD
:10328000000348BF0A3200D530BD401C41F10001A7
:1032900030BD70472DE9FF4F0C461E464FF0FF37FB
:1032A0008BB0D2E90001DDF860800A908A46C1F354
:1032B0000A5505B93D46002108464FF00000BAF115
:1032C000000F00F4400005DA00EB80004FF44001ED
:1032D00001EA50004FEA9059B9F1010F00DDB946FB
:1032E0000A9850EA4A000ED044F61050A5F2FF3575
:1032F00045432F14B8F1000F1ED07542291E1EDD64
:10330000C9F100021CE0B8F1010F4FF0000001D03C
:10331000302103E0F24305E02154401CB042FBDBC6
:1033200030460022002121540B99C1F80880C1E9E0
:1033300000200FB0BDE8F08FBD1B6D1CDEE74A46D4
:1033400000DA694206A800F059FA06AB93E80700D4
:1033500003AB83E8070050460A9900F00BFB8DE8A9
:103360000700A0F500501F3800900398002D09DDDC
:1033700042F21F014A46084403A90390684600F040
:103380006AFD08E0A0F500504A461F3803A90390E3
:10339000684600F074FD8DE807000004000C03D0BF
:1033A0004FF0FF30410800E01046B8F1000F03D0A5
:1033B0000022009215461EE0751E05D4FFF724FF7B
:1033C000303262556D1EF9D5B3460122084302D052
:1033D00000227F1C04E02078302801D100227F1ECB
:1033E000002A099786D01DE0112D07DAFFF70CFFA0
:1033F000303262556D1C50EA0102F5D1084302D00B
:103400000098C8B10EE00021681E05E0235C625CF4
:1034100063542254401E491C8142F7DBAB46A81B73
:10342000401E0990002004F80B000B98099AC0F880
:103430000880C0E9002B7CE711264FF0000859E70F
:103440002DE9F04F88460446D21D22F0070191B0C5
:10345000D1E90001CDE90A0100F047FE02460B98D0
:10346000C00F01D02D2007E02068810701D52B2057
:1034700002E0202101EAC000032A099001D0072AB6
:1034800005DB03464146204600F078F90BE1207841
:10349000800601D5E06900E00620B8F1650F81469D
:1034A00006D0B8F1660F18D0B8F1670F70D131E0CF
:1034B0000020B9F1110F009001DB112301E009F1A7
:1034C00001030AAA01A90CA8FFF7E4FEDDE90C70CC
:1034D000002609F10105834647E001204B46009094
:1034E0004FF000470AAA01A90CA8FFF7D3FEDDE9B7
:1034F0000DB00C995D46002610B909F101000D18B8
:10350000B9EB050003D4C0F1FF3609F10105A5EBC5
:1035100009002BE0B9F1010F01DA4FF00109002099
:10352000B9F1110F0090484601DD112300E0034678
:103530000AAA01A90CA8FFF7ADFEDDE90C704D4603
:1035400000268346207800070AD4AB4500DA5D46A2
:1035500001A8012D04DD411911F8011C302907D003
:103560004F4502DA17F1040F04DA012082460FE01A
:103570006D1EEEE7002F02DCED1B3E4403E0781CDD
:10358000A84200DD7D1CB81B00F1010A4FF0004786
:103590002078000703D4AA4501DB4FF0FF3A002151
:1035A000B7F1004F0DF143088DF8431024D00220ED
:1035B0002B23002F01DA7F422D230A21021EA0F1C6
:1035C000010000DC5FB197FBF1FC97FBF1F201FB1E
:1035D0001C7C17460CF1300C08F801CDEEE7A8F181
:1035E000010003702188090501D5452100E065210E
:1035F000A0F1010800F8011C09980FA9A1EB080728
:10360000FF1D00B10120411901EBEA70A1693844A6
:10361000081A401EA0612078C00602D42046FFF799
:103620000BFA099828B1D4E901219047206A401C7F
:1036300020622078C00622D52046FFF7FDF91EE063
:10364000002E04DBB34502DD01A8805D00E03020E0
:10365000D4E901219047206A401C2062761CAAF11F
:1036600001005FEA000A0AD100F084F8C06801682E
:10367000405CD4E901219047206A401C2062281E4A
:10368000A5F10105DCDC07E0D4E9012118F8010B04
:103690009047206A401C2062381EA7F10107F3DC26
:1036A0002046FFF7DFF9032011B043E610B5436968
:1036B00013B1AFF3008001E0FFF7A0FC012010BDC3
:1036C000128800F1240182840022C2840122EDE7E5
:1036D00011684FF0FF32E9E770B516460C46054613
:1036E00000F040F8036893F80101012806D0FF2C90
:1036F0000FD8185D68B101202C7070BDD3F8070198
:103700003246214603F2071303442846BDE87040C1
:1037100018474FF0FF3070BD754600F0E7F8AE4631
:1037200005006946534620F00700854618B020B5CD
:10373000FDF73CFDBDE820404FF000064FF00007CC
:103740004FF000084FF0000B21F00701AC46ACE849
:10375000C009ACE8C009ACE8C009ACE8C0098D46B6
:103760007047000010B500F005F8001D10BD00BF47
:10377000DD090000004870479C0800202DE9F04159
:103780001F46044603260168072A01F4006004DB93
:1037900008B116A505E016A503E008B115A500E0DF
:1037A00015A521F010002060A069C01EA0610FB116
:1037B000401EA0612046FFF73FF94FB1D4E9012137
:1037C00038469047206A401C2062C01C206206E0F8
:1037D000206AFAE7D4E9012115F8010B9047761E1B
:1037E000F8D22046FFF73EF9BDE8F0814E414E0089
:1037F0006E616E00494E4600696E66002DE9F04725
:10380000814616468AB0334878440DC88DE80D00CD
:1038100030487844801C03AC0DC884E80D0041F6A4
:103820009B300844372190FBF1F290FBF1F5A5F1B4
:10383000800501FB12041B3C02D56442012000E01C
:103840000020DFF890A080460027FA44AAF1BE0AC3
:103850000DE0E00709D03246684607EB47010AEB66
:10386000810100F00CFB8DE8070064107F1C002C28
:10387000EFD1184F7F44AC3F18E0E80714D007EBB6
:1038800004100DF1180A90E80E008AE80E00C068D6
:10389000F04201D198190890324606A903A800F019
:1038A000EEFA03AB83E807006D10641C002DE4D131
:1038B00032466946B8F1000F03A802D000F0CBFAF7
:1038C00001E000F0DCFAC9E90001C9F808200AB0FB
:1038D000BDE8F087500A000010B50446AFF3008041
:1038E0002046BDE81040FCF79EBC00000048704731
:1038F0007C0800204FF0013C50F8042B51F8043BA9
:103900009A4221D1A2EB0C03934313EACC1317D1B3
:1039100050F8042B51F8043B9A4215D1A2EB0C034A
:10392000934313EACC130BD150F8042B51F8043B0A
:103930009A4209D1A2EB0C03934313EACC13DBD0D8
:103940004FF00000704700BFD01A01BAB1FA81F100
:1039500001F0180122FA01F0CB40C1F12001DBB2E5
:10396000C0B2C01A2CFA01F3D11A914311EAC31163
:10397000E6D170475FEA400C08BF91F0000F4FEAB4
:103980008C234FEAC12243EA51514FEA1C5018BF21
:1039900000F5F0404FEA300018BF41F000415FEA07
:1039A0006C5C00F02980BCF1FF3F08BF40F0804014
:1039B0007047130C06BF12044FF0100C4FF0000CB0
:1039C000130E04BF12020CF1080C130F04BF1201F6
:1039D0000CF1040C930F04BF92000CF1020CD30FF6
:1039E00004BF52000CF1010C11464FF00002A0F18F
:1039F0001F00A0EB0C00704711F0004F08BF70478C
:103A000031F000413FF4D5AF0B0C06BF09044FF075
:103A1000100C4FF0000C0B0E04BF09020CF1080C47
:103A20000B0F04BF09010CF1040C8B0F04BF8900BC
:103A30000CF1020CCB0F04BF49000CF1010CCCF1CE
:103A40002003A0EB0C0022FA03F302FA0CF241EA85
:103A5000030100F10100704720F07F4C80EA030071
:103A600023F07F47ACEB070303F57C5300F00040E5
:103A700003F1FF032DE980494FEA154B09B44FEAE2
:103A8000144325EA0B4E24EA03480FF2042606EB02
:103A9000132749083E785FEA320203FB0667C7F541
:103AA000000707FB06F64FEA54374FEAD64606F101
:103AB000020607FB066CCCF1005C4FEA1C472CEABF
:103AC000074C07FB06F40CFB06F504EB15464FEA22
:103AD000961634BF00204FF000404FEAD13706FB66
:103AE00007FC4FEA1C4C0CFB0BF7D21B03FB0CF73B
:103AF00061EB07010CFB0EF7B0EB074072EB1742CE
:103B00000CFB08F734BFA2EB0742B2EB074261EBB4
:103B100017414FEA0C444FEA910706FB07FC4FEAB6
:103B20001C4C0CFB0BF7B0EBC74072EB573203FB9E
:103B30000CF734BFA2EBC742B2EBC74261EB57317F
:103B40000CFB0EF7B0EBC70072EB57720CFB08F7DB
:103B500034BFA2EBC702B2EBC70261EB5771039F00
:103B60004FEA816141EA921104EBCC044FEAD1376C
:103B70004FEA826206FB07FC42EA90124FEA80603D
:103B80004FEA1C4C0CFB0BF7D21B03FB0CF761EB51
:103B900007010CFB0EF7B0EB074072EB17420CFB72
:103BA00008F734BFA2EB0742B2EB074261EB1741C3
:103BB0004FEA8C554FEA910704EB9C2406FB07FC67
:103BC0004FEA1C4C0CFB0BF7B0EBC74072EB5732C3
:103BD00003FB0CF734BFA2EBC742B2EBC74261EB69
:103BE00057310CFB0EF7B0EBC70072EB57720CFBB2
:103BF00008F734BFA2EBC702B2EBC70261EB577103
:103C000015EB4C254FEA816141EA92114FEA82623D
:103C10004FEAD13742EA901206FB07FC44F1000458
:103C20004FEA80604FEA1C4C0CFB0BF7D21B03FBE6
:103C30000CF761EB07010CFB0EF7B0EB074072EBE2
:103C400017420CFB08F734BFA2EB0742B2EB074266
:103C500061EB174115EB1C154FEA813141EA9241A6
:103C60004FEA823242EA90424FEA80304FEA0C76C5
:103C700044F1000448EA03434EEA0B484FF0000EBB
:103C8000B2EB080C71EB030724BF624639464EEBDA
:103C90000E0E4FF0000B0018524149414BEB0B0B3D
:103CA000B2EB080C71EB03077BF1000B24BF6246FB
:103CB00039464EEB0E0E4FF0000B001852414941B1
:103CC0004BEB0B0BB2EB080C71EB03077BF1000B1A
:103CD00024BF624639464EEB0E0E51EA020718BF6A
:103CE00046F0010616EB0E7655F1000254F1000184
:103CF00003D5BDE88901BDE80088BDE88901BDE8BC
:103D00000048B619524141EB0101A3F1010370478C
:103D100080807F7E7D7C7B7A797877767675747308
:103D2000727171706F6E6E6D6C6C6B6A6A696868C7
:103D3000676666656464636362616160605F5F5E5D
:103D40005E5D5D5C5C5B5B5A5A59595858575756D3
:103D50005655555554545353525252515150505038
:103D60004F4F4F4E4E4D4D4D4C4C4C4B4B4B4A4A8A
:103D70004A494949484848474747474646464545CE
:103D80004544444444434343434242424241414107
:103D9000002B26D4770021D01CB54FEA370703B497
:103DA0004FF010004FF010014FF000000FBCBDE8C5
:103DB00010400BF1010BBBF1010F08BF5FEA1707C1
:103DC00022BF12F1010211F101014FF0004143F154
:103DD000000300F0004043EA00007047F9D35708A1
:103DE000DAE746EA064613F1400F4FEA16461FDDB2
:103DF00013F1200FDFBF16430A46002120335B4238
:103E0000C8D0C3F1200746EA064602FA07F74FEA90
:103E1000164646EA0706C3F1200722FA03F201FA22
:103E200007F721FA03F14FF0000342EA0702B1E776
:103E300046EA020646EA06464FEA164646EA010602
:103E4000BCBF46EA0646360C4FF000034FF00002B6
:103E50004FF000019EE72DE9C048934630B491E849
:103E6000380007C831EA400C48BF34EA430C03D598
:103E7000FFF7F2FDFFF78CFFF0BCBDE800882DE9ED
:103E8000C048934630B491E8380007C810F0804F1E
:103E900008BF13F0804F03D100F005F8FFF778FF5B
:103EA000F0BCBDE8008820F07F4780EA030023F0E3
:103EB0007F4C07EB0C03A3F57C5300F00040A3F10B
:103EC000FE0392F0000F00F0B38095F0000F00F0B9
:103ED00077802DE901494FEA11404FEA144621EA63
:103EE000004800FB06FC24EA064708FB06F607FB31
:103EF00008F800FB07F718EB06484CEB164C4FEAA6
:103F0000124B18EB07484FEA15464CEB174022EAD4
:103F10000B4E0BFB06FC25EA06470EFB06F607FBDD
:103F20000EFE0BFB07F71EEB064E4CEB164C4FF04C
:103F300000061EEB074E4CEB174B18EB0B0840F13D
:103F4000000018EB0E0B58EB000840F100008F1A30
:103F50004FF000013CBFC943661B14BFB5EB040C16
:103F600000213CBFC943F61B4FEA17444EEA8E0EB0
:103F700027EA04454FEA1C4704FB07622CEA074C7A
:103F800005FB07F70CFB05F604FB0CFC16EB0746DC
:103F900042EB174216EB0C4642EB1C421BEB0606AB
:103FA00058EB0202414146EA9E0601D5BDE801896F
:103FB000B619524141EB0101A3F10103BDE80189AA
:103FC0004FEA14454FEA114724EA054621EA074C17
:103FD00005FB07F406FB07F70CFB06F105FB0CFCE1
:103FE00011EB074144EB17444FEA124711EB0C4128
:103FF00044EB1C4422EA074C05FB07F206FB07F7DB
:104000000CFB06F605FB0CFC16EB074642EB1742D1
:1040100016EB0C4642EB1C456A1854F1000148BFF0
:104020007047B619524141EB0101A3F101037047FA
:1040300095F0000F37D04FEA11424FEA144721EABA
:10404000024624EA074C02FB07F106FB07F70CFBCC
:1040500006F402FB0CFC14EB074441EB17414FEA5A
:10406000154714EB0C4441EB1C4125EA074C02FBBD
:1040700007F506FB07F70CFB06F602FB0CFC16EB3C
:10408000074645EB174516EB0C4645EB1C4212194B
:1040900051F1000148BF7047B619524141EB01018F
:1040A000A3F1010370474FEA14454FEA114724EA90
:1040B000054621EA074C05FB07F106FB07F70CFB59
:1040C00006F24FF0000605FB0CFC12EB074241EB39
:1040D000174112EB0C4251EB1C4148BF704792183C
:1040E00041EB0101A3F101037047490050EAC120EF
:1040F00018BF04204A0D18BF40F0010040F2FF72C3
:10410000B2EB515F08BF40F00200012808BF052054
:10411000704730380A2801D20120704700207047CC
:1041200010B500290AD00878002807D0054878443F
:10413000FFF7E0FB002801D0002010BD02487844C2
:1041400010BD0000660100005E01000010B50029EE
:104150000AD00878002807D005487844FFF7CAFB42
:10416000002801D0002010BD0248784410BD000096
:10417000560100004E010000FFF762B97003A6006F
:104180007003A6007003A600000000001003A60044
:104190000B02A6001003A6000000000030313233ED
:1041A000343536373839414243444546403058006B
:1041B000303132333435363738396162636465669D
:1041C00040307800040000080000000000000002F9
:1041D00000010000100000000000000000000000CE
:1041E00002400000000000A00000000005400000A8
:1041F000000000C8000000000C4000000000409CCF
:1042000000000000194000000020BCBE00000000BB
:1042100034400000BFC91B8E00000004B540000000
:10422000504BCFD06607E2CF010000006C41000088
:104230003E8251AADFEEA73401000000D9420000FF
:10424000DCB5A0E23A301F97FFFFFFFFB445000046
:10425000FD25A0C8E9A3C14FFFFFFFFFFF3F0000FE
:104260000000008000000000FF3F00000000008010
:1042700000000000C04300080000002048000000CB
:10428000280100080844000848000020980E00009B
:10429000440100081C00000043000000F8FFFFFF7D
:1042A0000C0000000E0000000F0000002E000000B7
:1042B0001001000043000000F8FFFFFF00404040F5
:1042C00040404040404041414141414040404040E9
:1042D0004040404040404040404040404005020295
:1042E0000202020202020202020202020220202054
:1042F00020202020202020020202020202029090B0
:1043000090909090101010101010101010101010AD
:104310001010101010101010020202020202888801
:10432000888888880808080808080808080808080D
:1043300008080808080808080202020240000000F5
:10434000000000000000000000000000000000006D
:10435000000000000000000000000000000000005D
:10436000000000000000000000000000000000004D
:10437000000000000000000000000000000000003D
:10438000000000000000000000000000000000002D
:10439000000000000000000000000000000000001D
:1043A000000000000000000000000000000000000D
:1043B00000000000000000000000000000000000FD
:1043C00000A24A04000000000000000001020304F3
:1043D00006070809000000000000000000000000BF
:1043E000520000000000000000000000000000007B
:1043F000000000020406080000000001020304019E
:0844000002030406070809008D
:04000005080000ED02
:00000001FF
